{"abi":[{"inputs":[{"internalType":"uint256","name":"minimum","type":"uint256"},{"internalType":"address","name":"creator","type":"address"}],"stateMutability":"nonpayable","type":"constructor"},{"inputs":[{"internalType":"uint256","name":"index","type":"uint256"}],"name":"approveRequest","outputs":[],"stateMutability":"nonpayable","type":"function"},{"inputs":[{"internalType":"address","name":"","type":"address"}],"name":"approvers","outputs":[{"internalType":"bool","name":"","type":"bool"}],"stateMutability":"view","type":"function"},{"inputs":[],"name":"contribute","outputs":[],"stateMutability":"payable","type":"function"},{"inputs":[{"internalType":"string","name":"description","type":"string"},{"internalType":"uint256","name":"value","type":"uint256"},{"internalType":"address payable","name":"recipient","type":"address"}],"name":"createRequest","outputs":[],"stateMutability":"nonpayable","type":"function"},{"inputs":[{"internalType":"uint256","name":"index","type":"uint256"}],"name":"finalizeRequest","outputs":[],"stateMutability":"nonpayable","type":"function"},{"inputs":[],"name":"getRequestsCount","outputs":[{"internalType":"uint256","name":"","type":"uint256"}],"stateMutability":"view","type":"function"},{"inputs":[],"name":"getSummary","outputs":[{"internalType":"uint256","name":"","type":"uint256"},{"internalType":"uint256","name":"","type":"uint256"},{"internalType":"uint256","name":"","type":"uint256"},{"internalType":"uint256","name":"","type":"uint256"},{"internalType":"address","name":"","type":"address"}],"stateMutability":"view","type":"function"},{"inputs":[],"name":"manager","outputs":[{"internalType":"address","name":"","type":"address"}],"stateMutability":"view","type":"function"},{"inputs":[],"name":"minimumContribution","outputs":[{"internalType":"uint256","name":"","type":"uint256"}],"stateMutability":"view","type":"function"},{"inputs":[{"internalType":"uint256","name":"","type":"uint256"}],"name":"requests","outputs":[{"internalType":"string","name":"description","type":"string"},{"internalType":"uint256","name":"value","type":"uint256"},{"internalType":"address payable","name":"recipient","type":"address"},{"internalType":"uint256","name":"approvalCount","type":"uint256"},{"internalType":"bool","name":"complete","type":"bool"}],"stateMutability":"view","type":"function"}],"devdoc":{"kind":"dev","methods":{},"version":1},"evm":{"assembly":"    /* \"Campaign.sol\":389:2526  contract Campaign {... */\n  mstore(0x40, 0x80)\n    /* \"Campaign.sol\":902:1018  constructor(uint minimum, address creator) {... */\n  callvalue\n  dup1\n  iszero\n  tag_1\n  jumpi\n  0x00\n  dup1\n  revert\ntag_1:\n  pop\n  mload(0x40)\n  sub(codesize, bytecodeSize)\n  dup1\n  bytecodeSize\n  dup4\n  codecopy\n  dup2\n  dup2\n  add\n  0x40\n  mstore\n  dup2\n  add\n  swap1\n  tag_2\n  swap2\n  swap1\n  tag_3\n  jump\t// in\ntag_2:\n    /* \"Campaign.sol\":965:972  creator */\n  dup1\n    /* \"Campaign.sol\":955:962  manager */\n  0x00\n  dup1\n    /* \"Campaign.sol\":955:972  manager = creator */\n  0x0100\n  exp\n  dup2\n  sload\n  dup2\n  0xffffffffffffffffffffffffffffffffffffffff\n  mul\n  not\n  and\n  swap1\n  dup4\n  0xffffffffffffffffffffffffffffffffffffffff\n  and\n  mul\n  or\n  swap1\n  sstore\n  pop\n    /* \"Campaign.sol\":1004:1011  minimum */\n  dup2\n    /* \"Campaign.sol\":982:1001  minimumContribution */\n  0x01\n    /* \"Campaign.sol\":982:1011  minimumContribution = minimum */\n  dup2\n  swap1\n  sstore\n  pop\n    /* \"Campaign.sol\":902:1018  constructor(uint minimum, address creator) {... */\n  pop\n  pop\n    /* \"Campaign.sol\":389:2526  contract Campaign {... */\n  jump(tag_6)\n    /* \"#utility.yul\":88:205   */\ntag_8:\n    /* \"#utility.yul\":197:198   */\n  0x00\n    /* \"#utility.yul\":194:195   */\n  dup1\n    /* \"#utility.yul\":187:199   */\n  revert\n    /* \"#utility.yul\":334:411   */\ntag_10:\n    /* \"#utility.yul\":371:378   */\n  0x00\n    /* \"#utility.yul\":400:405   */\n  dup2\n    /* \"#utility.yul\":389:405   */\n  swap1\n  pop\n    /* \"#utility.yul\":334:411   */\n  swap2\n  swap1\n  pop\n  jump\t// out\n    /* \"#utility.yul\":417:539   */\ntag_11:\n    /* \"#utility.yul\":490:514   */\n  tag_23\n    /* \"#utility.yul\":508:513   */\n  dup2\n    /* \"#utility.yul\":490:514   */\n  tag_10\n  jump\t// in\ntag_23:\n    /* \"#utility.yul\":483:488   */\n  dup2\n    /* \"#utility.yul\":480:515   */\n  eq\n    /* \"#utility.yul\":470:533   */\n  tag_24\n  jumpi\n    /* \"#utility.yul\":529:530   */\n  0x00\n    /* \"#utility.yul\":526:527   */\n  dup1\n    /* \"#utility.yul\":519:531   */\n  revert\n    /* \"#utility.yul\":470:533   */\ntag_24:\n    /* \"#utility.yul\":417:539   */\n  pop\n  jump\t// out\n    /* \"#utility.yul\":545:688   */\ntag_12:\n    /* \"#utility.yul\":602:607   */\n  0x00\n    /* \"#utility.yul\":633:639   */\n  dup2\n    /* \"#utility.yul\":627:640   */\n  mload\n    /* \"#utility.yul\":618:640   */\n  swap1\n  pop\n    /* \"#utility.yul\":649:682   */\n  tag_26\n    /* \"#utility.yul\":676:681   */\n  dup2\n    /* \"#utility.yul\":649:682   */\n  tag_11\n  jump\t// in\ntag_26:\n    /* \"#utility.yul\":545:688   */\n  swap3\n  swap2\n  pop\n  pop\n  jump\t// out\n    /* \"#utility.yul\":694:820   */\ntag_13:\n    /* \"#utility.yul\":731:738   */\n  0x00\n    /* \"#utility.yul\":771:813   */\n  0xffffffffffffffffffffffffffffffffffffffff\n    /* \"#utility.yul\":764:769   */\n  dup3\n    /* \"#utility.yul\":760:814   */\n  and\n    /* \"#utility.yul\":749:814   */\n  swap1\n  pop\n    /* \"#utility.yul\":694:820   */\n  swap2\n  swap1\n  pop\n  jump\t// out\n    /* \"#utility.yul\":826:922   */\ntag_14:\n    /* \"#utility.yul\":863:870   */\n  0x00\n    /* \"#utility.yul\":892:916   */\n  tag_29\n    /* \"#utility.yul\":910:915   */\n  dup3\n    /* \"#utility.yul\":892:916   */\n  tag_13\n  jump\t// in\ntag_29:\n    /* \"#utility.yul\":881:916   */\n  swap1\n  pop\n    /* \"#utility.yul\":826:922   */\n  swap2\n  swap1\n  pop\n  jump\t// out\n    /* \"#utility.yul\":928:1050   */\ntag_15:\n    /* \"#utility.yul\":1001:1025   */\n  tag_31\n    /* \"#utility.yul\":1019:1024   */\n  dup2\n    /* \"#utility.yul\":1001:1025   */\n  tag_14\n  jump\t// in\ntag_31:\n    /* \"#utility.yul\":994:999   */\n  dup2\n    /* \"#utility.yul\":991:1026   */\n  eq\n    /* \"#utility.yul\":981:1044   */\n  tag_32\n  jumpi\n    /* \"#utility.yul\":1040:1041   */\n  0x00\n    /* \"#utility.yul\":1037:1038   */\n  dup1\n    /* \"#utility.yul\":1030:1042   */\n  revert\n    /* \"#utility.yul\":981:1044   */\ntag_32:\n    /* \"#utility.yul\":928:1050   */\n  pop\n  jump\t// out\n    /* \"#utility.yul\":1056:1199   */\ntag_16:\n    /* \"#utility.yul\":1113:1118   */\n  0x00\n    /* \"#utility.yul\":1144:1150   */\n  dup2\n    /* \"#utility.yul\":1138:1151   */\n  mload\n    /* \"#utility.yul\":1129:1151   */\n  swap1\n  pop\n    /* \"#utility.yul\":1160:1193   */\n  tag_34\n    /* \"#utility.yul\":1187:1192   */\n  dup2\n    /* \"#utility.yul\":1160:1193   */\n  tag_15\n  jump\t// in\ntag_34:\n    /* \"#utility.yul\":1056:1199   */\n  swap3\n  swap2\n  pop\n  pop\n  jump\t// out\n    /* \"#utility.yul\":1205:1712   */\ntag_3:\n    /* \"#utility.yul\":1284:1290   */\n  0x00\n    /* \"#utility.yul\":1292:1298   */\n  dup1\n    /* \"#utility.yul\":1341:1343   */\n  0x40\n    /* \"#utility.yul\":1329:1338   */\n  dup4\n    /* \"#utility.yul\":1320:1327   */\n  dup6\n    /* \"#utility.yul\":1316:1339   */\n  sub\n    /* \"#utility.yul\":1312:1344   */\n  slt\n    /* \"#utility.yul\":1309:1428   */\n  iszero\n  tag_36\n  jumpi\n    /* \"#utility.yul\":1347:1426   */\n  tag_37\n  tag_8\n  jump\t// in\ntag_37:\n    /* \"#utility.yul\":1309:1428   */\ntag_36:\n    /* \"#utility.yul\":1467:1468   */\n  0x00\n    /* \"#utility.yul\":1492:1556   */\n  tag_38\n    /* \"#utility.yul\":1548:1555   */\n  dup6\n    /* \"#utility.yul\":1539:1545   */\n  dup3\n    /* \"#utility.yul\":1528:1537   */\n  dup7\n    /* \"#utility.yul\":1524:1546   */\n  add\n    /* \"#utility.yul\":1492:1556   */\n  tag_12\n  jump\t// in\ntag_38:\n    /* \"#utility.yul\":1482:1556   */\n  swap3\n  pop\n    /* \"#utility.yul\":1438:1566   */\n  pop\n    /* \"#utility.yul\":1605:1607   */\n  0x20\n    /* \"#utility.yul\":1631:1695   */\n  tag_39\n    /* \"#utility.yul\":1687:1694   */\n  dup6\n    /* \"#utility.yul\":1678:1684   */\n  dup3\n    /* \"#utility.yul\":1667:1676   */\n  dup7\n    /* \"#utility.yul\":1663:1685   */\n  add\n    /* \"#utility.yul\":1631:1695   */\n  tag_16\n  jump\t// in\ntag_39:\n    /* \"#utility.yul\":1621:1695   */\n  swap2\n  pop\n    /* \"#utility.yul\":1576:1705   */\n  pop\n    /* \"#utility.yul\":1205:1712   */\n  swap3\n  pop\n  swap3\n  swap1\n  pop\n  jump\t// out\n    /* \"Campaign.sol\":389:2526  contract Campaign {... */\ntag_6:\n  dataSize(sub_0)\n  dup1\n  dataOffset(sub_0)\n  0x00\n  codecopy\n  0x00\n  return\nstop\n\nsub_0: assembly {\n        /* \"Campaign.sol\":389:2526  contract Campaign {... */\n      mstore(0x40, 0x80)\n      jumpi(tag_1, lt(calldatasize, 0x04))\n      shr(0xe0, calldataload(0x00))\n      dup1\n      0x81d12c58\n      gt\n      tag_12\n      jumpi\n      dup1\n      0x81d12c58\n      eq\n      tag_7\n      jumpi\n      dup1\n      0x8a9cfd55\n      eq\n      tag_8\n      jumpi\n      dup1\n      0x937e09b1\n      eq\n      tag_9\n      jumpi\n      dup1\n      0xd7bb99ba\n      eq\n      tag_10\n      jumpi\n      dup1\n      0xd7d1bbdb\n      eq\n      tag_11\n      jumpi\n      jump(tag_1)\n    tag_12:\n      dup1\n      0x03441006\n      eq\n      tag_2\n      jumpi\n      dup1\n      0x0a144391\n      eq\n      tag_3\n      jumpi\n      dup1\n      0x3410452a\n      eq\n      tag_4\n      jumpi\n      dup1\n      0x4051ddac\n      eq\n      tag_5\n      jumpi\n      dup1\n      0x481c6a75\n      eq\n      tag_6\n      jumpi\n    tag_1:\n      0x00\n      dup1\n      revert\n        /* \"Campaign.sol\":1846:2144  function finalizeRequest(uint index) public restricted {... */\n    tag_2:\n      callvalue\n      dup1\n      iszero\n      tag_13\n      jumpi\n      0x00\n      dup1\n      revert\n    tag_13:\n      pop\n      tag_14\n      0x04\n      dup1\n      calldatasize\n      sub\n      dup2\n      add\n      swap1\n      tag_15\n      swap2\n      swap1\n      tag_16\n      jump\t// in\n    tag_15:\n      tag_17\n      jump\t// in\n    tag_14:\n      stop\n        /* \"Campaign.sol\":743:784  mapping(address => bool) public approvers */\n    tag_3:\n      callvalue\n      dup1\n      iszero\n      tag_18\n      jumpi\n      0x00\n      dup1\n      revert\n    tag_18:\n      pop\n      tag_19\n      0x04\n      dup1\n      calldatasize\n      sub\n      dup2\n      add\n      swap1\n      tag_20\n      swap2\n      swap1\n      tag_21\n      jump\t// in\n    tag_20:\n      tag_22\n      jump\t// in\n    tag_19:\n      mload(0x40)\n      tag_23\n      swap2\n      swap1\n      tag_24\n      jump\t// in\n    tag_23:\n      mload(0x40)\n      dup1\n      swap2\n      sub\n      swap1\n      return\n        /* \"Campaign.sol\":2430:2524  function getRequestsCount() public view returns (uint) {... */\n    tag_4:\n      callvalue\n      dup1\n      iszero\n      tag_25\n      jumpi\n      0x00\n      dup1\n      revert\n    tag_25:\n      pop\n      tag_26\n      tag_27\n      jump\t// in\n    tag_26:\n      mload(0x40)\n      tag_28\n      swap2\n      swap1\n      tag_29\n      jump\t// in\n    tag_28:\n      mload(0x40)\n      dup1\n      swap2\n      sub\n      swap1\n      return\n        /* \"Campaign.sol\":2150:2424  function getSummary() public view returns (... */\n    tag_5:\n      callvalue\n      dup1\n      iszero\n      tag_30\n      jumpi\n      0x00\n      dup1\n      revert\n    tag_30:\n      pop\n      tag_31\n      tag_32\n      jump\t// in\n    tag_31:\n      mload(0x40)\n      tag_33\n      swap6\n      swap5\n      swap4\n      swap3\n      swap2\n      swap1\n      tag_34\n      jump\t// in\n    tag_33:\n      mload(0x40)\n      dup1\n      swap2\n      sub\n      swap1\n      return\n        /* \"Campaign.sol\":647:669  address public manager */\n    tag_6:\n      callvalue\n      dup1\n      iszero\n      tag_35\n      jumpi\n      0x00\n      dup1\n      revert\n    tag_35:\n      pop\n      tag_36\n      tag_37\n      jump\t// in\n    tag_36:\n      mload(0x40)\n      tag_38\n      swap2\n      swap1\n      tag_39\n      jump\t// in\n    tag_38:\n      mload(0x40)\n      dup1\n      swap2\n      sub\n      swap1\n      return\n        /* \"Campaign.sol\":712:737  Request[] public requests */\n    tag_7:\n      callvalue\n      dup1\n      iszero\n      tag_40\n      jumpi\n      0x00\n      dup1\n      revert\n    tag_40:\n      pop\n      tag_41\n      0x04\n      dup1\n      calldatasize\n      sub\n      dup2\n      add\n      swap1\n      tag_42\n      swap2\n      swap1\n      tag_16\n      jump\t// in\n    tag_42:\n      tag_43\n      jump\t// in\n    tag_41:\n      mload(0x40)\n      tag_44\n      swap6\n      swap5\n      swap4\n      swap3\n      swap2\n      swap1\n      tag_45\n      jump\t// in\n    tag_44:\n      mload(0x40)\n      dup1\n      swap2\n      sub\n      swap1\n      return\n        /* \"Campaign.sol\":1189:1555  function createRequest(string memory description, uint value, address payable recipient) public restricted {... */\n    tag_8:\n      callvalue\n      dup1\n      iszero\n      tag_46\n      jumpi\n      0x00\n      dup1\n      revert\n    tag_46:\n      pop\n      tag_47\n      0x04\n      dup1\n      calldatasize\n      sub\n      dup2\n      add\n      swap1\n      tag_48\n      swap2\n      swap1\n      tag_49\n      jump\t// in\n    tag_48:\n      tag_50\n      jump\t// in\n    tag_47:\n      stop\n        /* \"Campaign.sol\":675:706  uint public minimumContribution */\n    tag_9:\n      callvalue\n      dup1\n      iszero\n      tag_51\n      jumpi\n      0x00\n      dup1\n      revert\n    tag_51:\n      pop\n      tag_52\n      tag_53\n      jump\t// in\n    tag_52:\n      mload(0x40)\n      tag_54\n      swap2\n      swap1\n      tag_29\n      jump\t// in\n    tag_54:\n      mload(0x40)\n      dup1\n      swap2\n      sub\n      swap1\n      return\n        /* \"Campaign.sol\":1024:1183  function contribute() public payable {... */\n    tag_10:\n      tag_55\n      tag_56\n      jump\t// in\n    tag_55:\n      stop\n        /* \"Campaign.sol\":1561:1840  function approveRequest(uint index) public {... */\n    tag_11:\n      callvalue\n      dup1\n      iszero\n      tag_57\n      jumpi\n      0x00\n      dup1\n      revert\n    tag_57:\n      pop\n      tag_58\n      0x04\n      dup1\n      calldatasize\n      sub\n      dup2\n      add\n      swap1\n      tag_59\n      swap2\n      swap1\n      tag_16\n      jump\t// in\n    tag_59:\n      tag_60\n      jump\t// in\n    tag_58:\n      stop\n        /* \"Campaign.sol\":1846:2144  function finalizeRequest(uint index) public restricted {... */\n    tag_17:\n        /* \"Campaign.sol\":870:877  manager */\n      0x00\n      dup1\n      sload\n      swap1\n      0x0100\n      exp\n      swap1\n      div\n      0xffffffffffffffffffffffffffffffffffffffff\n      and\n        /* \"Campaign.sol\":856:877  msg.sender == manager */\n      0xffffffffffffffffffffffffffffffffffffffff\n      and\n        /* \"Campaign.sol\":856:866  msg.sender */\n      caller\n        /* \"Campaign.sol\":856:877  msg.sender == manager */\n      0xffffffffffffffffffffffffffffffffffffffff\n      and\n      eq\n        /* \"Campaign.sol\":848:878  require(msg.sender == manager) */\n      tag_62\n      jumpi\n      0x00\n      dup1\n      revert\n    tag_62:\n        /* \"Campaign.sol\":1911:1934  Request storage request */\n      0x00\n        /* \"Campaign.sol\":1937:1945  requests */\n      0x02\n        /* \"Campaign.sol\":1946:1951  index */\n      dup3\n        /* \"Campaign.sol\":1937:1952  requests[index] */\n      dup2\n      sload\n      dup2\n      lt\n      tag_64\n      jumpi\n      tag_65\n      tag_66\n      jump\t// in\n    tag_65:\n    tag_64:\n      swap1\n      0x00\n      mstore\n      keccak256(0x00, 0x20)\n      swap1\n      0x06\n      mul\n      add\n        /* \"Campaign.sol\":1911:1952  Request storage request = requests[index] */\n      swap1\n      pop\n        /* \"Campaign.sol\":2013:2014  2 */\n      0x02\n        /* \"Campaign.sol\":1996:2010  approversCount */\n      sload(0x04)\n        /* \"Campaign.sol\":1996:2014  approversCount / 2 */\n      tag_68\n      swap2\n      swap1\n      tag_69\n      jump\t// in\n    tag_68:\n        /* \"Campaign.sol\":1971:1978  request */\n      dup2\n        /* \"Campaign.sol\":1971:1992  request.approvalCount */\n      0x03\n      add\n      sload\n        /* \"Campaign.sol\":1971:2015  request.approvalCount > (approversCount / 2) */\n      gt\n        /* \"Campaign.sol\":1963:2016  require(request.approvalCount > (approversCount / 2)) */\n      tag_70\n      jumpi\n      0x00\n      dup1\n      revert\n    tag_70:\n        /* \"Campaign.sol\":2035:2042  request */\n      dup1\n        /* \"Campaign.sol\":2035:2051  request.complete */\n      0x05\n      add\n      0x00\n      swap1\n      sload\n      swap1\n      0x0100\n      exp\n      swap1\n      div\n      0xff\n      and\n        /* \"Campaign.sol\":2034:2051  !request.complete */\n      iszero\n        /* \"Campaign.sol\":2026:2052  require(!request.complete) */\n      tag_71\n      jumpi\n      0x00\n      dup1\n      revert\n    tag_71:\n        /* \"Campaign.sol\":2063:2070  request */\n      dup1\n        /* \"Campaign.sol\":2063:2080  request.recipient */\n      0x02\n      add\n      0x00\n      swap1\n      sload\n      swap1\n      0x0100\n      exp\n      swap1\n      div\n      0xffffffffffffffffffffffffffffffffffffffff\n      and\n        /* \"Campaign.sol\":2063:2089  request.recipient.transfer */\n      0xffffffffffffffffffffffffffffffffffffffff\n      and\n        /* \"Campaign.sol\":2063:2104  request.recipient.transfer(request.value) */\n      0x08fc\n        /* \"Campaign.sol\":2090:2097  request */\n      dup3\n        /* \"Campaign.sol\":2090:2103  request.value */\n      0x01\n      add\n      sload\n        /* \"Campaign.sol\":2063:2104  request.recipient.transfer(request.value) */\n      swap1\n      dup2\n      iszero\n      mul\n      swap1\n      mload(0x40)\n      0x00\n      mload(0x40)\n      dup1\n      dup4\n      sub\n      dup2\n      dup6\n      dup9\n      dup9\n      call\n      swap4\n      pop\n      pop\n      pop\n      pop\n      iszero\n      dup1\n      iszero\n      tag_73\n      jumpi\n      returndatasize\n      0x00\n      dup1\n      returndatacopy\n      revert(0x00, returndatasize)\n    tag_73:\n      pop\n        /* \"Campaign.sol\":2133:2137  true */\n      0x01\n        /* \"Campaign.sol\":2114:2121  request */\n      dup2\n        /* \"Campaign.sol\":2114:2130  request.complete */\n      0x05\n      add\n      0x00\n        /* \"Campaign.sol\":2114:2137  request.complete = true */\n      0x0100\n      exp\n      dup2\n      sload\n      dup2\n      0xff\n      mul\n      not\n      and\n      swap1\n      dup4\n      iszero\n      iszero\n      mul\n      or\n      swap1\n      sstore\n      pop\n        /* \"Campaign.sol\":1901:2144  {... */\n      pop\n        /* \"Campaign.sol\":1846:2144  function finalizeRequest(uint index) public restricted {... */\n      pop\n      jump\t// out\n        /* \"Campaign.sol\":743:784  mapping(address => bool) public approvers */\n    tag_22:\n      mstore(0x20, 0x03)\n      dup1\n      0x00\n      mstore\n      keccak256(0x00, 0x40)\n      0x00\n      swap2\n      pop\n      sload\n      swap1\n      0x0100\n      exp\n      swap1\n      div\n      0xff\n      and\n      dup2\n      jump\t// out\n        /* \"Campaign.sol\":2430:2524  function getRequestsCount() public view returns (uint) {... */\n    tag_27:\n        /* \"Campaign.sol\":2479:2483  uint */\n      0x00\n        /* \"Campaign.sol\":2502:2510  requests */\n      0x02\n        /* \"Campaign.sol\":2502:2517  requests.length */\n      dup1\n      sload\n      swap1\n      pop\n        /* \"Campaign.sol\":2495:2517  return requests.length */\n      swap1\n      pop\n        /* \"Campaign.sol\":2430:2524  function getRequestsCount() public view returns (uint) {... */\n      swap1\n      jump\t// out\n        /* \"Campaign.sol\":2150:2424  function getSummary() public view returns (... */\n    tag_32:\n        /* \"Campaign.sol\":2202:2206  uint */\n      0x00\n        /* \"Campaign.sol\":2208:2212  uint */\n      dup1\n        /* \"Campaign.sol\":2214:2218  uint */\n      0x00\n        /* \"Campaign.sol\":2220:2224  uint */\n      dup1\n        /* \"Campaign.sol\":2226:2233  address */\n      0x00\n        /* \"Campaign.sol\":2275:2294  minimumContribution */\n      sload(0x01)\n        /* \"Campaign.sol\":2308:2329  address(this).balance */\n      selfbalance\n        /* \"Campaign.sol\":2343:2351  requests */\n      0x02\n        /* \"Campaign.sol\":2343:2358  requests.length */\n      dup1\n      sload\n      swap1\n      pop\n        /* \"Campaign.sol\":2372:2386  approversCount */\n      sload(0x04)\n        /* \"Campaign.sol\":2400:2407  manager */\n      0x00\n      dup1\n      sload\n      swap1\n      0x0100\n      exp\n      swap1\n      div\n      0xffffffffffffffffffffffffffffffffffffffff\n      and\n        /* \"Campaign.sol\":2254:2417  return (... */\n      swap5\n      pop\n      swap5\n      pop\n      swap5\n      pop\n      swap5\n      pop\n      swap5\n      pop\n        /* \"Campaign.sol\":2150:2424  function getSummary() public view returns (... */\n      swap1\n      swap2\n      swap3\n      swap4\n      swap5\n      jump\t// out\n        /* \"Campaign.sol\":647:669  address public manager */\n    tag_37:\n      0x00\n      dup1\n      sload\n      swap1\n      0x0100\n      exp\n      swap1\n      div\n      0xffffffffffffffffffffffffffffffffffffffff\n      and\n      dup2\n      jump\t// out\n        /* \"Campaign.sol\":712:737  Request[] public requests */\n    tag_43:\n      0x02\n      dup2\n      dup2\n      sload\n      dup2\n      lt\n      tag_76\n      jumpi\n      0x00\n      dup1\n      revert\n    tag_76:\n      swap1\n      0x00\n      mstore\n      keccak256(0x00, 0x20)\n      swap1\n      0x06\n      mul\n      add\n      0x00\n      swap2\n      pop\n      swap1\n      pop\n      dup1\n      0x00\n      add\n      dup1\n      sload\n      tag_78\n      swap1\n      tag_79\n      jump\t// in\n    tag_78:\n      dup1\n      0x1f\n      add\n      0x20\n      dup1\n      swap2\n      div\n      mul\n      0x20\n      add\n      mload(0x40)\n      swap1\n      dup2\n      add\n      0x40\n      mstore\n      dup1\n      swap3\n      swap2\n      swap1\n      dup2\n      dup2\n      mstore\n      0x20\n      add\n      dup3\n      dup1\n      sload\n      tag_80\n      swap1\n      tag_79\n      jump\t// in\n    tag_80:\n      dup1\n      iszero\n      tag_81\n      jumpi\n      dup1\n      0x1f\n      lt\n      tag_82\n      jumpi\n      0x0100\n      dup1\n      dup4\n      sload\n      div\n      mul\n      dup4\n      mstore\n      swap2\n      0x20\n      add\n      swap2\n      jump(tag_81)\n    tag_82:\n      dup3\n      add\n      swap2\n      swap1\n      0x00\n      mstore\n      keccak256(0x00, 0x20)\n      swap1\n    tag_83:\n      dup2\n      sload\n      dup2\n      mstore\n      swap1\n      0x01\n      add\n      swap1\n      0x20\n      add\n      dup1\n      dup4\n      gt\n      tag_83\n      jumpi\n      dup3\n      swap1\n      sub\n      0x1f\n      and\n      dup3\n      add\n      swap2\n    tag_81:\n      pop\n      pop\n      pop\n      pop\n      pop\n      swap1\n      dup1\n      0x01\n      add\n      sload\n      swap1\n      dup1\n      0x02\n      add\n      0x00\n      swap1\n      sload\n      swap1\n      0x0100\n      exp\n      swap1\n      div\n      0xffffffffffffffffffffffffffffffffffffffff\n      and\n      swap1\n      dup1\n      0x03\n      add\n      sload\n      swap1\n      dup1\n      0x05\n      add\n      0x00\n      swap1\n      sload\n      swap1\n      0x0100\n      exp\n      swap1\n      div\n      0xff\n      and\n      swap1\n      pop\n      dup6\n      jump\t// out\n        /* \"Campaign.sol\":1189:1555  function createRequest(string memory description, uint value, address payable recipient) public restricted {... */\n    tag_50:\n        /* \"Campaign.sol\":870:877  manager */\n      0x00\n      dup1\n      sload\n      swap1\n      0x0100\n      exp\n      swap1\n      div\n      0xffffffffffffffffffffffffffffffffffffffff\n      and\n        /* \"Campaign.sol\":856:877  msg.sender == manager */\n      0xffffffffffffffffffffffffffffffffffffffff\n      and\n        /* \"Campaign.sol\":856:866  msg.sender */\n      caller\n        /* \"Campaign.sol\":856:877  msg.sender == manager */\n      0xffffffffffffffffffffffffffffffffffffffff\n      and\n      eq\n        /* \"Campaign.sol\":848:878  require(msg.sender == manager) */\n      tag_85\n      jumpi\n      0x00\n      dup1\n      revert\n    tag_85:\n        /* \"Campaign.sol\":1307:1333  Request storage newRequest */\n      0x00\n        /* \"Campaign.sol\":1336:1344  requests */\n      0x02\n        /* \"Campaign.sol\":1336:1351  requests.push() */\n      0x01\n      dup2\n      0x01\n      dup2\n      sload\n      add\n      dup1\n      dup3\n      sstore\n      dup1\n      swap2\n      pop\n      pop\n      sub\n      swap1\n      0x00\n      mstore\n      keccak256(0x00, 0x20)\n      swap1\n      0x06\n      mul\n      add\n        /* \"Campaign.sol\":1307:1351  Request storage newRequest = requests.push() */\n      swap1\n      pop\n        /* \"Campaign.sol\":1386:1397  description */\n      dup4\n        /* \"Campaign.sol\":1361:1371  newRequest */\n      dup2\n        /* \"Campaign.sol\":1361:1383  newRequest.description */\n      0x00\n      add\n        /* \"Campaign.sol\":1361:1397  newRequest.description = description */\n      swap1\n      dup2\n      tag_88\n      swap2\n      swap1\n      tag_89\n      jump\t// in\n    tag_88:\n      pop\n        /* \"Campaign.sol\":1426:1431  value */\n      dup3\n        /* \"Campaign.sol\":1407:1417  newRequest */\n      dup2\n        /* \"Campaign.sol\":1407:1423  newRequest.value */\n      0x01\n      add\n        /* \"Campaign.sol\":1407:1431  newRequest.value = value */\n      dup2\n      swap1\n      sstore\n      pop\n        /* \"Campaign.sol\":1464:1473  recipient */\n      dup2\n        /* \"Campaign.sol\":1441:1451  newRequest */\n      dup2\n        /* \"Campaign.sol\":1441:1461  newRequest.recipient */\n      0x02\n      add\n      0x00\n        /* \"Campaign.sol\":1441:1473  newRequest.recipient = recipient */\n      0x0100\n      exp\n      dup2\n      sload\n      dup2\n      0xffffffffffffffffffffffffffffffffffffffff\n      mul\n      not\n      and\n      swap1\n      dup4\n      0xffffffffffffffffffffffffffffffffffffffff\n      and\n      mul\n      or\n      swap1\n      sstore\n      pop\n        /* \"Campaign.sol\":1505:1510  false */\n      0x00\n        /* \"Campaign.sol\":1483:1493  newRequest */\n      dup2\n        /* \"Campaign.sol\":1483:1502  newRequest.complete */\n      0x05\n      add\n      0x00\n        /* \"Campaign.sol\":1483:1510  newRequest.complete = false */\n      0x0100\n      exp\n      dup2\n      sload\n      dup2\n      0xff\n      mul\n      not\n      and\n      swap1\n      dup4\n      iszero\n      iszero\n      mul\n      or\n      swap1\n      sstore\n      pop\n        /* \"Campaign.sol\":1547:1548  0 */\n      0x00\n        /* \"Campaign.sol\":1520:1530  newRequest */\n      dup2\n        /* \"Campaign.sol\":1520:1544  newRequest.approvalCount */\n      0x03\n      add\n        /* \"Campaign.sol\":1520:1548  newRequest.approvalCount = 0 */\n      dup2\n      swap1\n      sstore\n      pop\n        /* \"Campaign.sol\":1296:1555  {... */\n      pop\n        /* \"Campaign.sol\":1189:1555  function createRequest(string memory description, uint value, address payable recipient) public restricted {... */\n      pop\n      pop\n      pop\n      jump\t// out\n        /* \"Campaign.sol\":675:706  uint public minimumContribution */\n    tag_53:\n      sload(0x01)\n      dup2\n      jump\t// out\n        /* \"Campaign.sol\":1024:1183  function contribute() public payable {... */\n    tag_56:\n        /* \"Campaign.sol\":1091:1110  minimumContribution */\n      sload(0x01)\n        /* \"Campaign.sol\":1079:1088  msg.value */\n      callvalue\n        /* \"Campaign.sol\":1079:1110  msg.value > minimumContribution */\n      gt\n        /* \"Campaign.sol\":1071:1111  require(msg.value > minimumContribution) */\n      tag_91\n      jumpi\n      0x00\n      dup1\n      revert\n    tag_91:\n        /* \"Campaign.sol\":1146:1150  true */\n      0x01\n        /* \"Campaign.sol\":1122:1131  approvers */\n      0x03\n        /* \"Campaign.sol\":1122:1143  approvers[msg.sender] */\n      0x00\n        /* \"Campaign.sol\":1132:1142  msg.sender */\n      caller\n        /* \"Campaign.sol\":1122:1143  approvers[msg.sender] */\n      0xffffffffffffffffffffffffffffffffffffffff\n      and\n      0xffffffffffffffffffffffffffffffffffffffff\n      and\n      dup2\n      mstore\n      0x20\n      add\n      swap1\n      dup2\n      mstore\n      0x20\n      add\n      0x00\n      keccak256\n      0x00\n        /* \"Campaign.sol\":1122:1150  approvers[msg.sender] = true */\n      0x0100\n      exp\n      dup2\n      sload\n      dup2\n      0xff\n      mul\n      not\n      and\n      swap1\n      dup4\n      iszero\n      iszero\n      mul\n      or\n      swap1\n      sstore\n      pop\n        /* \"Campaign.sol\":1160:1174  approversCount */\n      0x04\n      0x00\n        /* \"Campaign.sol\":1160:1176  approversCount++ */\n      dup2\n      sload\n      dup1\n      swap3\n      swap2\n      swap1\n      tag_92\n      swap1\n      tag_93\n      jump\t// in\n    tag_92:\n      swap2\n      swap1\n      pop\n      sstore\n      pop\n        /* \"Campaign.sol\":1024:1183  function contribute() public payable {... */\n      jump\t// out\n        /* \"Campaign.sol\":1561:1840  function approveRequest(uint index) public {... */\n    tag_60:\n        /* \"Campaign.sol\":1614:1637  Request storage request */\n      0x00\n        /* \"Campaign.sol\":1640:1648  requests */\n      0x02\n        /* \"Campaign.sol\":1649:1654  index */\n      dup3\n        /* \"Campaign.sol\":1640:1655  requests[index] */\n      dup2\n      sload\n      dup2\n      lt\n      tag_95\n      jumpi\n      tag_96\n      tag_66\n      jump\t// in\n    tag_96:\n    tag_95:\n      swap1\n      0x00\n      mstore\n      keccak256(0x00, 0x20)\n      swap1\n      0x06\n      mul\n      add\n        /* \"Campaign.sol\":1614:1655  Request storage request = requests[index] */\n      swap1\n      pop\n        /* \"Campaign.sol\":1674:1683  approvers */\n      0x03\n        /* \"Campaign.sol\":1674:1695  approvers[msg.sender] */\n      0x00\n        /* \"Campaign.sol\":1684:1694  msg.sender */\n      caller\n        /* \"Campaign.sol\":1674:1695  approvers[msg.sender] */\n      0xffffffffffffffffffffffffffffffffffffffff\n      and\n      0xffffffffffffffffffffffffffffffffffffffff\n      and\n      dup2\n      mstore\n      0x20\n      add\n      swap1\n      dup2\n      mstore\n      0x20\n      add\n      0x00\n      keccak256\n      0x00\n      swap1\n      sload\n      swap1\n      0x0100\n      exp\n      swap1\n      div\n      0xff\n      and\n        /* \"Campaign.sol\":1666:1696  require(approvers[msg.sender]) */\n      tag_98\n      jumpi\n      0x00\n      dup1\n      revert\n    tag_98:\n        /* \"Campaign.sol\":1715:1723  requests */\n      0x02\n        /* \"Campaign.sol\":1724:1729  index */\n      dup3\n        /* \"Campaign.sol\":1715:1730  requests[index] */\n      dup2\n      sload\n      dup2\n      lt\n      tag_99\n      jumpi\n      tag_100\n      tag_66\n      jump\t// in\n    tag_100:\n    tag_99:\n      swap1\n      0x00\n      mstore\n      keccak256(0x00, 0x20)\n      swap1\n      0x06\n      mul\n      add\n        /* \"Campaign.sol\":1715:1740  requests[index].approvals */\n      0x04\n      add\n        /* \"Campaign.sol\":1715:1752  requests[index].approvals[msg.sender] */\n      0x00\n        /* \"Campaign.sol\":1741:1751  msg.sender */\n      caller\n        /* \"Campaign.sol\":1715:1752  requests[index].approvals[msg.sender] */\n      0xffffffffffffffffffffffffffffffffffffffff\n      and\n      0xffffffffffffffffffffffffffffffffffffffff\n      and\n      dup2\n      mstore\n      0x20\n      add\n      swap1\n      dup2\n      mstore\n      0x20\n      add\n      0x00\n      keccak256\n      0x00\n      swap1\n      sload\n      swap1\n      0x0100\n      exp\n      swap1\n      div\n      0xff\n      and\n        /* \"Campaign.sol\":1714:1752  !requests[index].approvals[msg.sender] */\n      iszero\n        /* \"Campaign.sol\":1706:1753  require(!requests[index].approvals[msg.sender]) */\n      tag_102\n      jumpi\n      0x00\n      dup1\n      revert\n    tag_102:\n        /* \"Campaign.sol\":1796:1800  true */\n      0x01\n        /* \"Campaign.sol\":1764:1771  request */\n      dup2\n        /* \"Campaign.sol\":1764:1781  request.approvals */\n      0x04\n      add\n        /* \"Campaign.sol\":1764:1793  request.approvals[msg.sender] */\n      0x00\n        /* \"Campaign.sol\":1782:1792  msg.sender */\n      caller\n        /* \"Campaign.sol\":1764:1793  request.approvals[msg.sender] */\n      0xffffffffffffffffffffffffffffffffffffffff\n      and\n      0xffffffffffffffffffffffffffffffffffffffff\n      and\n      dup2\n      mstore\n      0x20\n      add\n      swap1\n      dup2\n      mstore\n      0x20\n      add\n      0x00\n      keccak256\n      0x00\n        /* \"Campaign.sol\":1764:1800  request.approvals[msg.sender] = true */\n      0x0100\n      exp\n      dup2\n      sload\n      dup2\n      0xff\n      mul\n      not\n      and\n      swap1\n      dup4\n      iszero\n      iszero\n      mul\n      or\n      swap1\n      sstore\n      pop\n        /* \"Campaign.sol\":1810:1817  request */\n      dup1\n        /* \"Campaign.sol\":1810:1831  request.approvalCount */\n      0x03\n      add\n      0x00\n        /* \"Campaign.sol\":1810:1833  request.approvalCount++ */\n      dup2\n      sload\n      dup1\n      swap3\n      swap2\n      swap1\n      tag_103\n      swap1\n      tag_93\n      jump\t// in\n    tag_103:\n      swap2\n      swap1\n      pop\n      sstore\n      pop\n        /* \"Campaign.sol\":1604:1840  {... */\n      pop\n        /* \"Campaign.sol\":1561:1840  function approveRequest(uint index) public {... */\n      pop\n      jump\t// out\n        /* \"#utility.yul\":7:82   */\n    tag_104:\n        /* \"#utility.yul\":40:46   */\n      0x00\n        /* \"#utility.yul\":73:75   */\n      0x40\n        /* \"#utility.yul\":67:76   */\n      mload\n        /* \"#utility.yul\":57:76   */\n      swap1\n      pop\n        /* \"#utility.yul\":7:82   */\n      swap1\n      jump\t// out\n        /* \"#utility.yul\":88:205   */\n    tag_105:\n        /* \"#utility.yul\":197:198   */\n      0x00\n        /* \"#utility.yul\":194:195   */\n      dup1\n        /* \"#utility.yul\":187:199   */\n      revert\n        /* \"#utility.yul\":211:328   */\n    tag_106:\n        /* \"#utility.yul\":320:321   */\n      0x00\n        /* \"#utility.yul\":317:318   */\n      dup1\n        /* \"#utility.yul\":310:322   */\n      revert\n        /* \"#utility.yul\":334:411   */\n    tag_107:\n        /* \"#utility.yul\":371:378   */\n      0x00\n        /* \"#utility.yul\":400:405   */\n      dup2\n        /* \"#utility.yul\":389:405   */\n      swap1\n      pop\n        /* \"#utility.yul\":334:411   */\n      swap2\n      swap1\n      pop\n      jump\t// out\n        /* \"#utility.yul\":417:539   */\n    tag_108:\n        /* \"#utility.yul\":490:514   */\n      tag_160\n        /* \"#utility.yul\":508:513   */\n      dup2\n        /* \"#utility.yul\":490:514   */\n      tag_107\n      jump\t// in\n    tag_160:\n        /* \"#utility.yul\":483:488   */\n      dup2\n        /* \"#utility.yul\":480:515   */\n      eq\n        /* \"#utility.yul\":470:533   */\n      tag_161\n      jumpi\n        /* \"#utility.yul\":529:530   */\n      0x00\n        /* \"#utility.yul\":526:527   */\n      dup1\n        /* \"#utility.yul\":519:531   */\n      revert\n        /* \"#utility.yul\":470:533   */\n    tag_161:\n        /* \"#utility.yul\":417:539   */\n      pop\n      jump\t// out\n        /* \"#utility.yul\":545:684   */\n    tag_109:\n        /* \"#utility.yul\":591:596   */\n      0x00\n        /* \"#utility.yul\":629:635   */\n      dup2\n        /* \"#utility.yul\":616:636   */\n      calldataload\n        /* \"#utility.yul\":607:636   */\n      swap1\n      pop\n        /* \"#utility.yul\":645:678   */\n      tag_163\n        /* \"#utility.yul\":672:677   */\n      dup2\n        /* \"#utility.yul\":645:678   */\n      tag_108\n      jump\t// in\n    tag_163:\n        /* \"#utility.yul\":545:684   */\n      swap3\n      swap2\n      pop\n      pop\n      jump\t// out\n        /* \"#utility.yul\":690:1019   */\n    tag_16:\n        /* \"#utility.yul\":749:755   */\n      0x00\n        /* \"#utility.yul\":798:800   */\n      0x20\n        /* \"#utility.yul\":786:795   */\n      dup3\n        /* \"#utility.yul\":777:784   */\n      dup5\n        /* \"#utility.yul\":773:796   */\n      sub\n        /* \"#utility.yul\":769:801   */\n      slt\n        /* \"#utility.yul\":766:885   */\n      iszero\n      tag_165\n      jumpi\n        /* \"#utility.yul\":804:883   */\n      tag_166\n      tag_105\n      jump\t// in\n    tag_166:\n        /* \"#utility.yul\":766:885   */\n    tag_165:\n        /* \"#utility.yul\":924:925   */\n      0x00\n        /* \"#utility.yul\":949:1002   */\n      tag_167\n        /* \"#utility.yul\":994:1001   */\n      dup5\n        /* \"#utility.yul\":985:991   */\n      dup3\n        /* \"#utility.yul\":974:983   */\n      dup6\n        /* \"#utility.yul\":970:992   */\n      add\n        /* \"#utility.yul\":949:1002   */\n      tag_109\n      jump\t// in\n    tag_167:\n        /* \"#utility.yul\":939:1002   */\n      swap2\n      pop\n        /* \"#utility.yul\":895:1012   */\n      pop\n        /* \"#utility.yul\":690:1019   */\n      swap3\n      swap2\n      pop\n      pop\n      jump\t// out\n        /* \"#utility.yul\":1025:1151   */\n    tag_110:\n        /* \"#utility.yul\":1062:1069   */\n      0x00\n        /* \"#utility.yul\":1102:1144   */\n      0xffffffffffffffffffffffffffffffffffffffff\n        /* \"#utility.yul\":1095:1100   */\n      dup3\n        /* \"#utility.yul\":1091:1145   */\n      and\n        /* \"#utility.yul\":1080:1145   */\n      swap1\n      pop\n        /* \"#utility.yul\":1025:1151   */\n      swap2\n      swap1\n      pop\n      jump\t// out\n        /* \"#utility.yul\":1157:1253   */\n    tag_111:\n        /* \"#utility.yul\":1194:1201   */\n      0x00\n        /* \"#utility.yul\":1223:1247   */\n      tag_170\n        /* \"#utility.yul\":1241:1246   */\n      dup3\n        /* \"#utility.yul\":1223:1247   */\n      tag_110\n      jump\t// in\n    tag_170:\n        /* \"#utility.yul\":1212:1247   */\n      swap1\n      pop\n        /* \"#utility.yul\":1157:1253   */\n      swap2\n      swap1\n      pop\n      jump\t// out\n        /* \"#utility.yul\":1259:1381   */\n    tag_112:\n        /* \"#utility.yul\":1332:1356   */\n      tag_172\n        /* \"#utility.yul\":1350:1355   */\n      dup2\n        /* \"#utility.yul\":1332:1356   */\n      tag_111\n      jump\t// in\n    tag_172:\n        /* \"#utility.yul\":1325:1330   */\n      dup2\n        /* \"#utility.yul\":1322:1357   */\n      eq\n        /* \"#utility.yul\":1312:1375   */\n      tag_173\n      jumpi\n        /* \"#utility.yul\":1371:1372   */\n      0x00\n        /* \"#utility.yul\":1368:1369   */\n      dup1\n        /* \"#utility.yul\":1361:1373   */\n      revert\n        /* \"#utility.yul\":1312:1375   */\n    tag_173:\n        /* \"#utility.yul\":1259:1381   */\n      pop\n      jump\t// out\n        /* \"#utility.yul\":1387:1526   */\n    tag_113:\n        /* \"#utility.yul\":1433:1438   */\n      0x00\n        /* \"#utility.yul\":1471:1477   */\n      dup2\n        /* \"#utility.yul\":1458:1478   */\n      calldataload\n        /* \"#utility.yul\":1449:1478   */\n      swap1\n      pop\n        /* \"#utility.yul\":1487:1520   */\n      tag_175\n        /* \"#utility.yul\":1514:1519   */\n      dup2\n        /* \"#utility.yul\":1487:1520   */\n      tag_112\n      jump\t// in\n    tag_175:\n        /* \"#utility.yul\":1387:1526   */\n      swap3\n      swap2\n      pop\n      pop\n      jump\t// out\n        /* \"#utility.yul\":1532:1861   */\n    tag_21:\n        /* \"#utility.yul\":1591:1597   */\n      0x00\n        /* \"#utility.yul\":1640:1642   */\n      0x20\n        /* \"#utility.yul\":1628:1637   */\n      dup3\n        /* \"#utility.yul\":1619:1626   */\n      dup5\n        /* \"#utility.yul\":1615:1638   */\n      sub\n        /* \"#utility.yul\":1611:1643   */\n      slt\n        /* \"#utility.yul\":1608:1727   */\n      iszero\n      tag_177\n      jumpi\n        /* \"#utility.yul\":1646:1725   */\n      tag_178\n      tag_105\n      jump\t// in\n    tag_178:\n        /* \"#utility.yul\":1608:1727   */\n    tag_177:\n        /* \"#utility.yul\":1766:1767   */\n      0x00\n        /* \"#utility.yul\":1791:1844   */\n      tag_179\n        /* \"#utility.yul\":1836:1843   */\n      dup5\n        /* \"#utility.yul\":1827:1833   */\n      dup3\n        /* \"#utility.yul\":1816:1825   */\n      dup6\n        /* \"#utility.yul\":1812:1834   */\n      add\n        /* \"#utility.yul\":1791:1844   */\n      tag_113\n      jump\t// in\n    tag_179:\n        /* \"#utility.yul\":1781:1844   */\n      swap2\n      pop\n        /* \"#utility.yul\":1737:1854   */\n      pop\n        /* \"#utility.yul\":1532:1861   */\n      swap3\n      swap2\n      pop\n      pop\n      jump\t// out\n        /* \"#utility.yul\":1867:1957   */\n    tag_114:\n        /* \"#utility.yul\":1901:1908   */\n      0x00\n        /* \"#utility.yul\":1944:1949   */\n      dup2\n        /* \"#utility.yul\":1937:1950   */\n      iszero\n        /* \"#utility.yul\":1930:1951   */\n      iszero\n        /* \"#utility.yul\":1919:1951   */\n      swap1\n      pop\n        /* \"#utility.yul\":1867:1957   */\n      swap2\n      swap1\n      pop\n      jump\t// out\n        /* \"#utility.yul\":1963:2072   */\n    tag_115:\n        /* \"#utility.yul\":2044:2065   */\n      tag_182\n        /* \"#utility.yul\":2059:2064   */\n      dup2\n        /* \"#utility.yul\":2044:2065   */\n      tag_114\n      jump\t// in\n    tag_182:\n        /* \"#utility.yul\":2039:2042   */\n      dup3\n        /* \"#utility.yul\":2032:2066   */\n      mstore\n        /* \"#utility.yul\":1963:2072   */\n      pop\n      pop\n      jump\t// out\n        /* \"#utility.yul\":2078:2288   */\n    tag_24:\n        /* \"#utility.yul\":2165:2169   */\n      0x00\n        /* \"#utility.yul\":2203:2205   */\n      0x20\n        /* \"#utility.yul\":2192:2201   */\n      dup3\n        /* \"#utility.yul\":2188:2206   */\n      add\n        /* \"#utility.yul\":2180:2206   */\n      swap1\n      pop\n        /* \"#utility.yul\":2216:2281   */\n      tag_184\n        /* \"#utility.yul\":2278:2279   */\n      0x00\n        /* \"#utility.yul\":2267:2276   */\n      dup4\n        /* \"#utility.yul\":2263:2280   */\n      add\n        /* \"#utility.yul\":2254:2260   */\n      dup5\n        /* \"#utility.yul\":2216:2281   */\n      tag_115\n      jump\t// in\n    tag_184:\n        /* \"#utility.yul\":2078:2288   */\n      swap3\n      swap2\n      pop\n      pop\n      jump\t// out\n        /* \"#utility.yul\":2294:2412   */\n    tag_116:\n        /* \"#utility.yul\":2381:2405   */\n      tag_186\n        /* \"#utility.yul\":2399:2404   */\n      dup2\n        /* \"#utility.yul\":2381:2405   */\n      tag_107\n      jump\t// in\n    tag_186:\n        /* \"#utility.yul\":2376:2379   */\n      dup3\n        /* \"#utility.yul\":2369:2406   */\n      mstore\n        /* \"#utility.yul\":2294:2412   */\n      pop\n      pop\n      jump\t// out\n        /* \"#utility.yul\":2418:2640   */\n    tag_29:\n        /* \"#utility.yul\":2511:2515   */\n      0x00\n        /* \"#utility.yul\":2549:2551   */\n      0x20\n        /* \"#utility.yul\":2538:2547   */\n      dup3\n        /* \"#utility.yul\":2534:2552   */\n      add\n        /* \"#utility.yul\":2526:2552   */\n      swap1\n      pop\n        /* \"#utility.yul\":2562:2633   */\n      tag_188\n        /* \"#utility.yul\":2630:2631   */\n      0x00\n        /* \"#utility.yul\":2619:2628   */\n      dup4\n        /* \"#utility.yul\":2615:2632   */\n      add\n        /* \"#utility.yul\":2606:2612   */\n      dup5\n        /* \"#utility.yul\":2562:2633   */\n      tag_116\n      jump\t// in\n    tag_188:\n        /* \"#utility.yul\":2418:2640   */\n      swap3\n      swap2\n      pop\n      pop\n      jump\t// out\n        /* \"#utility.yul\":2646:2764   */\n    tag_117:\n        /* \"#utility.yul\":2733:2757   */\n      tag_190\n        /* \"#utility.yul\":2751:2756   */\n      dup2\n        /* \"#utility.yul\":2733:2757   */\n      tag_111\n      jump\t// in\n    tag_190:\n        /* \"#utility.yul\":2728:2731   */\n      dup3\n        /* \"#utility.yul\":2721:2758   */\n      mstore\n        /* \"#utility.yul\":2646:2764   */\n      pop\n      pop\n      jump\t// out\n        /* \"#utility.yul\":2770:3434   */\n    tag_34:\n        /* \"#utility.yul\":2975:2979   */\n      0x00\n        /* \"#utility.yul\":3013:3016   */\n      0xa0\n        /* \"#utility.yul\":3002:3011   */\n      dup3\n        /* \"#utility.yul\":2998:3017   */\n      add\n        /* \"#utility.yul\":2990:3017   */\n      swap1\n      pop\n        /* \"#utility.yul\":3027:3098   */\n      tag_192\n        /* \"#utility.yul\":3095:3096   */\n      0x00\n        /* \"#utility.yul\":3084:3093   */\n      dup4\n        /* \"#utility.yul\":3080:3097   */\n      add\n        /* \"#utility.yul\":3071:3077   */\n      dup9\n        /* \"#utility.yul\":3027:3098   */\n      tag_116\n      jump\t// in\n    tag_192:\n        /* \"#utility.yul\":3108:3180   */\n      tag_193\n        /* \"#utility.yul\":3176:3178   */\n      0x20\n        /* \"#utility.yul\":3165:3174   */\n      dup4\n        /* \"#utility.yul\":3161:3179   */\n      add\n        /* \"#utility.yul\":3152:3158   */\n      dup8\n        /* \"#utility.yul\":3108:3180   */\n      tag_116\n      jump\t// in\n    tag_193:\n        /* \"#utility.yul\":3190:3262   */\n      tag_194\n        /* \"#utility.yul\":3258:3260   */\n      0x40\n        /* \"#utility.yul\":3247:3256   */\n      dup4\n        /* \"#utility.yul\":3243:3261   */\n      add\n        /* \"#utility.yul\":3234:3240   */\n      dup7\n        /* \"#utility.yul\":3190:3262   */\n      tag_116\n      jump\t// in\n    tag_194:\n        /* \"#utility.yul\":3272:3344   */\n      tag_195\n        /* \"#utility.yul\":3340:3342   */\n      0x60\n        /* \"#utility.yul\":3329:3338   */\n      dup4\n        /* \"#utility.yul\":3325:3343   */\n      add\n        /* \"#utility.yul\":3316:3322   */\n      dup6\n        /* \"#utility.yul\":3272:3344   */\n      tag_116\n      jump\t// in\n    tag_195:\n        /* \"#utility.yul\":3354:3427   */\n      tag_196\n        /* \"#utility.yul\":3422:3425   */\n      0x80\n        /* \"#utility.yul\":3411:3420   */\n      dup4\n        /* \"#utility.yul\":3407:3426   */\n      add\n        /* \"#utility.yul\":3398:3404   */\n      dup5\n        /* \"#utility.yul\":3354:3427   */\n      tag_117\n      jump\t// in\n    tag_196:\n        /* \"#utility.yul\":2770:3434   */\n      swap7\n      swap6\n      pop\n      pop\n      pop\n      pop\n      pop\n      pop\n      jump\t// out\n        /* \"#utility.yul\":3440:3662   */\n    tag_39:\n        /* \"#utility.yul\":3533:3537   */\n      0x00\n        /* \"#utility.yul\":3571:3573   */\n      0x20\n        /* \"#utility.yul\":3560:3569   */\n      dup3\n        /* \"#utility.yul\":3556:3574   */\n      add\n        /* \"#utility.yul\":3548:3574   */\n      swap1\n      pop\n        /* \"#utility.yul\":3584:3655   */\n      tag_198\n        /* \"#utility.yul\":3652:3653   */\n      0x00\n        /* \"#utility.yul\":3641:3650   */\n      dup4\n        /* \"#utility.yul\":3637:3654   */\n      add\n        /* \"#utility.yul\":3628:3634   */\n      dup5\n        /* \"#utility.yul\":3584:3655   */\n      tag_117\n      jump\t// in\n    tag_198:\n        /* \"#utility.yul\":3440:3662   */\n      swap3\n      swap2\n      pop\n      pop\n      jump\t// out\n        /* \"#utility.yul\":3668:3767   */\n    tag_118:\n        /* \"#utility.yul\":3720:3726   */\n      0x00\n        /* \"#utility.yul\":3754:3759   */\n      dup2\n        /* \"#utility.yul\":3748:3760   */\n      mload\n        /* \"#utility.yul\":3738:3760   */\n      swap1\n      pop\n        /* \"#utility.yul\":3668:3767   */\n      swap2\n      swap1\n      pop\n      jump\t// out\n        /* \"#utility.yul\":3773:3942   */\n    tag_119:\n        /* \"#utility.yul\":3857:3868   */\n      0x00\n        /* \"#utility.yul\":3891:3897   */\n      dup3\n        /* \"#utility.yul\":3886:3889   */\n      dup3\n        /* \"#utility.yul\":3879:3898   */\n      mstore\n        /* \"#utility.yul\":3931:3935   */\n      0x20\n        /* \"#utility.yul\":3926:3929   */\n      dup3\n        /* \"#utility.yul\":3922:3936   */\n      add\n        /* \"#utility.yul\":3907:3936   */\n      swap1\n      pop\n        /* \"#utility.yul\":3773:3942   */\n      swap3\n      swap2\n      pop\n      pop\n      jump\t// out\n        /* \"#utility.yul\":3948:4194   */\n    tag_120:\n        /* \"#utility.yul\":4029:4030   */\n      0x00\n        /* \"#utility.yul\":4039:4152   */\n    tag_202:\n        /* \"#utility.yul\":4053:4059   */\n      dup4\n        /* \"#utility.yul\":4050:4051   */\n      dup2\n        /* \"#utility.yul\":4047:4060   */\n      lt\n        /* \"#utility.yul\":4039:4152   */\n      iszero\n      tag_204\n      jumpi\n        /* \"#utility.yul\":4138:4139   */\n      dup1\n        /* \"#utility.yul\":4133:4136   */\n      dup3\n        /* \"#utility.yul\":4129:4140   */\n      add\n        /* \"#utility.yul\":4123:4141   */\n      mload\n        /* \"#utility.yul\":4119:4120   */\n      dup2\n        /* \"#utility.yul\":4114:4117   */\n      dup5\n        /* \"#utility.yul\":4110:4121   */\n      add\n        /* \"#utility.yul\":4103:4142   */\n      mstore\n        /* \"#utility.yul\":4075:4077   */\n      0x20\n        /* \"#utility.yul\":4072:4073   */\n      dup2\n        /* \"#utility.yul\":4068:4078   */\n      add\n        /* \"#utility.yul\":4063:4078   */\n      swap1\n      pop\n        /* \"#utility.yul\":4039:4152   */\n      jump(tag_202)\n    tag_204:\n        /* \"#utility.yul\":4186:4187   */\n      0x00\n        /* \"#utility.yul\":4177:4183   */\n      dup5\n        /* \"#utility.yul\":4172:4175   */\n      dup5\n        /* \"#utility.yul\":4168:4184   */\n      add\n        /* \"#utility.yul\":4161:4188   */\n      mstore\n        /* \"#utility.yul\":4010:4194   */\n      pop\n        /* \"#utility.yul\":3948:4194   */\n      pop\n      pop\n      pop\n      jump\t// out\n        /* \"#utility.yul\":4200:4302   */\n    tag_121:\n        /* \"#utility.yul\":4241:4247   */\n      0x00\n        /* \"#utility.yul\":4292:4294   */\n      0x1f\n        /* \"#utility.yul\":4288:4295   */\n      not\n        /* \"#utility.yul\":4283:4285   */\n      0x1f\n        /* \"#utility.yul\":4276:4281   */\n      dup4\n        /* \"#utility.yul\":4272:4286   */\n      add\n        /* \"#utility.yul\":4268:4296   */\n      and\n        /* \"#utility.yul\":4258:4296   */\n      swap1\n      pop\n        /* \"#utility.yul\":4200:4302   */\n      swap2\n      swap1\n      pop\n      jump\t// out\n        /* \"#utility.yul\":4308:4685   */\n    tag_122:\n        /* \"#utility.yul\":4396:4399   */\n      0x00\n        /* \"#utility.yul\":4424:4463   */\n      tag_207\n        /* \"#utility.yul\":4457:4462   */\n      dup3\n        /* \"#utility.yul\":4424:4463   */\n      tag_118\n      jump\t// in\n    tag_207:\n        /* \"#utility.yul\":4479:4550   */\n      tag_208\n        /* \"#utility.yul\":4543:4549   */\n      dup2\n        /* \"#utility.yul\":4538:4541   */\n      dup6\n        /* \"#utility.yul\":4479:4550   */\n      tag_119\n      jump\t// in\n    tag_208:\n        /* \"#utility.yul\":4472:4550   */\n      swap4\n      pop\n        /* \"#utility.yul\":4559:4624   */\n      tag_209\n        /* \"#utility.yul\":4617:4623   */\n      dup2\n        /* \"#utility.yul\":4612:4615   */\n      dup6\n        /* \"#utility.yul\":4605:4609   */\n      0x20\n        /* \"#utility.yul\":4598:4603   */\n      dup7\n        /* \"#utility.yul\":4594:4610   */\n      add\n        /* \"#utility.yul\":4559:4624   */\n      tag_120\n      jump\t// in\n    tag_209:\n        /* \"#utility.yul\":4649:4678   */\n      tag_210\n        /* \"#utility.yul\":4671:4677   */\n      dup2\n        /* \"#utility.yul\":4649:4678   */\n      tag_121\n      jump\t// in\n    tag_210:\n        /* \"#utility.yul\":4644:4647   */\n      dup5\n        /* \"#utility.yul\":4640:4679   */\n      add\n        /* \"#utility.yul\":4633:4679   */\n      swap2\n      pop\n        /* \"#utility.yul\":4400:4685   */\n      pop\n        /* \"#utility.yul\":4308:4685   */\n      swap3\n      swap2\n      pop\n      pop\n      jump\t// out\n        /* \"#utility.yul\":4691:4795   */\n    tag_123:\n        /* \"#utility.yul\":4736:4743   */\n      0x00\n        /* \"#utility.yul\":4765:4789   */\n      tag_212\n        /* \"#utility.yul\":4783:4788   */\n      dup3\n        /* \"#utility.yul\":4765:4789   */\n      tag_110\n      jump\t// in\n    tag_212:\n        /* \"#utility.yul\":4754:4789   */\n      swap1\n      pop\n        /* \"#utility.yul\":4691:4795   */\n      swap2\n      swap1\n      pop\n      jump\t// out\n        /* \"#utility.yul\":4801:4943   */\n    tag_124:\n        /* \"#utility.yul\":4904:4936   */\n      tag_214\n        /* \"#utility.yul\":4930:4935   */\n      dup2\n        /* \"#utility.yul\":4904:4936   */\n      tag_123\n      jump\t// in\n    tag_214:\n        /* \"#utility.yul\":4899:4902   */\n      dup3\n        /* \"#utility.yul\":4892:4937   */\n      mstore\n        /* \"#utility.yul\":4801:4943   */\n      pop\n      pop\n      jump\t// out\n        /* \"#utility.yul\":4949:5724   */\n    tag_45:\n        /* \"#utility.yul\":5184:5188   */\n      0x00\n        /* \"#utility.yul\":5222:5225   */\n      0xa0\n        /* \"#utility.yul\":5211:5220   */\n      dup3\n        /* \"#utility.yul\":5207:5226   */\n      add\n        /* \"#utility.yul\":5199:5226   */\n      swap1\n      pop\n        /* \"#utility.yul\":5272:5281   */\n      dup2\n        /* \"#utility.yul\":5266:5270   */\n      dup2\n        /* \"#utility.yul\":5262:5282   */\n      sub\n        /* \"#utility.yul\":5258:5259   */\n      0x00\n        /* \"#utility.yul\":5247:5256   */\n      dup4\n        /* \"#utility.yul\":5243:5260   */\n      add\n        /* \"#utility.yul\":5236:5283   */\n      mstore\n        /* \"#utility.yul\":5300:5378   */\n      tag_216\n        /* \"#utility.yul\":5373:5377   */\n      dup2\n        /* \"#utility.yul\":5364:5370   */\n      dup9\n        /* \"#utility.yul\":5300:5378   */\n      tag_122\n      jump\t// in\n    tag_216:\n        /* \"#utility.yul\":5292:5378   */\n      swap1\n      pop\n        /* \"#utility.yul\":5388:5460   */\n      tag_217\n        /* \"#utility.yul\":5456:5458   */\n      0x20\n        /* \"#utility.yul\":5445:5454   */\n      dup4\n        /* \"#utility.yul\":5441:5459   */\n      add\n        /* \"#utility.yul\":5432:5438   */\n      dup8\n        /* \"#utility.yul\":5388:5460   */\n      tag_116\n      jump\t// in\n    tag_217:\n        /* \"#utility.yul\":5470:5558   */\n      tag_218\n        /* \"#utility.yul\":5554:5556   */\n      0x40\n        /* \"#utility.yul\":5543:5552   */\n      dup4\n        /* \"#utility.yul\":5539:5557   */\n      add\n        /* \"#utility.yul\":5530:5536   */\n      dup7\n        /* \"#utility.yul\":5470:5558   */\n      tag_124\n      jump\t// in\n    tag_218:\n        /* \"#utility.yul\":5568:5640   */\n      tag_219\n        /* \"#utility.yul\":5636:5638   */\n      0x60\n        /* \"#utility.yul\":5625:5634   */\n      dup4\n        /* \"#utility.yul\":5621:5639   */\n      add\n        /* \"#utility.yul\":5612:5618   */\n      dup6\n        /* \"#utility.yul\":5568:5640   */\n      tag_116\n      jump\t// in\n    tag_219:\n        /* \"#utility.yul\":5650:5717   */\n      tag_220\n        /* \"#utility.yul\":5712:5715   */\n      0x80\n        /* \"#utility.yul\":5701:5710   */\n      dup4\n        /* \"#utility.yul\":5697:5716   */\n      add\n        /* \"#utility.yul\":5688:5694   */\n      dup5\n        /* \"#utility.yul\":5650:5717   */\n      tag_115\n      jump\t// in\n    tag_220:\n        /* \"#utility.yul\":4949:5724   */\n      swap7\n      swap6\n      pop\n      pop\n      pop\n      pop\n      pop\n      pop\n      jump\t// out\n        /* \"#utility.yul\":5730:5847   */\n    tag_125:\n        /* \"#utility.yul\":5839:5840   */\n      0x00\n        /* \"#utility.yul\":5836:5837   */\n      dup1\n        /* \"#utility.yul\":5829:5841   */\n      revert\n        /* \"#utility.yul\":5853:5970   */\n    tag_126:\n        /* \"#utility.yul\":5962:5963   */\n      0x00\n        /* \"#utility.yul\":5959:5960   */\n      dup1\n        /* \"#utility.yul\":5952:5964   */\n      revert\n        /* \"#utility.yul\":5976:6156   */\n    tag_127:\n        /* \"#utility.yul\":6024:6101   */\n      0x4e487b7100000000000000000000000000000000000000000000000000000000\n        /* \"#utility.yul\":6021:6022   */\n      0x00\n        /* \"#utility.yul\":6014:6102   */\n      mstore\n        /* \"#utility.yul\":6121:6125   */\n      0x41\n        /* \"#utility.yul\":6118:6119   */\n      0x04\n        /* \"#utility.yul\":6111:6126   */\n      mstore\n        /* \"#utility.yul\":6145:6149   */\n      0x24\n        /* \"#utility.yul\":6142:6143   */\n      0x00\n        /* \"#utility.yul\":6135:6150   */\n      revert\n        /* \"#utility.yul\":6162:6443   */\n    tag_128:\n        /* \"#utility.yul\":6245:6272   */\n      tag_225\n        /* \"#utility.yul\":6267:6271   */\n      dup3\n        /* \"#utility.yul\":6245:6272   */\n      tag_121\n      jump\t// in\n    tag_225:\n        /* \"#utility.yul\":6237:6243   */\n      dup2\n        /* \"#utility.yul\":6233:6273   */\n      add\n        /* \"#utility.yul\":6375:6381   */\n      dup2\n        /* \"#utility.yul\":6363:6373   */\n      dup2\n        /* \"#utility.yul\":6360:6382   */\n      lt\n        /* \"#utility.yul\":6339:6357   */\n      0xffffffffffffffff\n        /* \"#utility.yul\":6327:6337   */\n      dup3\n        /* \"#utility.yul\":6324:6358   */\n      gt\n        /* \"#utility.yul\":6321:6383   */\n      or\n        /* \"#utility.yul\":6318:6406   */\n      iszero\n      tag_226\n      jumpi\n        /* \"#utility.yul\":6386:6404   */\n      tag_227\n      tag_127\n      jump\t// in\n    tag_227:\n        /* \"#utility.yul\":6318:6406   */\n    tag_226:\n        /* \"#utility.yul\":6426:6436   */\n      dup1\n        /* \"#utility.yul\":6422:6424   */\n      0x40\n        /* \"#utility.yul\":6415:6437   */\n      mstore\n        /* \"#utility.yul\":6205:6443   */\n      pop\n        /* \"#utility.yul\":6162:6443   */\n      pop\n      pop\n      jump\t// out\n        /* \"#utility.yul\":6449:6578   */\n    tag_129:\n        /* \"#utility.yul\":6483:6489   */\n      0x00\n        /* \"#utility.yul\":6510:6530   */\n      tag_229\n      tag_104\n      jump\t// in\n    tag_229:\n        /* \"#utility.yul\":6500:6530   */\n      swap1\n      pop\n        /* \"#utility.yul\":6539:6572   */\n      tag_230\n        /* \"#utility.yul\":6567:6571   */\n      dup3\n        /* \"#utility.yul\":6559:6565   */\n      dup3\n        /* \"#utility.yul\":6539:6572   */\n      tag_128\n      jump\t// in\n    tag_230:\n        /* \"#utility.yul\":6449:6578   */\n      swap2\n      swap1\n      pop\n      jump\t// out\n        /* \"#utility.yul\":6584:6892   */\n    tag_130:\n        /* \"#utility.yul\":6646:6650   */\n      0x00\n        /* \"#utility.yul\":6736:6754   */\n      0xffffffffffffffff\n        /* \"#utility.yul\":6728:6734   */\n      dup3\n        /* \"#utility.yul\":6725:6755   */\n      gt\n        /* \"#utility.yul\":6722:6778   */\n      iszero\n      tag_232\n      jumpi\n        /* \"#utility.yul\":6758:6776   */\n      tag_233\n      tag_127\n      jump\t// in\n    tag_233:\n        /* \"#utility.yul\":6722:6778   */\n    tag_232:\n        /* \"#utility.yul\":6796:6825   */\n      tag_234\n        /* \"#utility.yul\":6818:6824   */\n      dup3\n        /* \"#utility.yul\":6796:6825   */\n      tag_121\n      jump\t// in\n    tag_234:\n        /* \"#utility.yul\":6788:6825   */\n      swap1\n      pop\n        /* \"#utility.yul\":6880:6884   */\n      0x20\n        /* \"#utility.yul\":6874:6878   */\n      dup2\n        /* \"#utility.yul\":6870:6885   */\n      add\n        /* \"#utility.yul\":6862:6885   */\n      swap1\n      pop\n        /* \"#utility.yul\":6584:6892   */\n      swap2\n      swap1\n      pop\n      jump\t// out\n        /* \"#utility.yul\":6898:7044   */\n    tag_131:\n        /* \"#utility.yul\":6995:7001   */\n      dup3\n        /* \"#utility.yul\":6990:6993   */\n      dup2\n        /* \"#utility.yul\":6985:6988   */\n      dup4\n        /* \"#utility.yul\":6972:7002   */\n      calldatacopy\n        /* \"#utility.yul\":7036:7037   */\n      0x00\n        /* \"#utility.yul\":7027:7033   */\n      dup4\n        /* \"#utility.yul\":7022:7025   */\n      dup4\n        /* \"#utility.yul\":7018:7034   */\n      add\n        /* \"#utility.yul\":7011:7038   */\n      mstore\n        /* \"#utility.yul\":6898:7044   */\n      pop\n      pop\n      pop\n      jump\t// out\n        /* \"#utility.yul\":7050:7475   */\n    tag_132:\n        /* \"#utility.yul\":7128:7133   */\n      0x00\n        /* \"#utility.yul\":7153:7219   */\n      tag_237\n        /* \"#utility.yul\":7169:7218   */\n      tag_238\n        /* \"#utility.yul\":7211:7217   */\n      dup5\n        /* \"#utility.yul\":7169:7218   */\n      tag_130\n      jump\t// in\n    tag_238:\n        /* \"#utility.yul\":7153:7219   */\n      tag_129\n      jump\t// in\n    tag_237:\n        /* \"#utility.yul\":7144:7219   */\n      swap1\n      pop\n        /* \"#utility.yul\":7242:7248   */\n      dup3\n        /* \"#utility.yul\":7235:7240   */\n      dup2\n        /* \"#utility.yul\":7228:7249   */\n      mstore\n        /* \"#utility.yul\":7280:7284   */\n      0x20\n        /* \"#utility.yul\":7273:7278   */\n      dup2\n        /* \"#utility.yul\":7269:7285   */\n      add\n        /* \"#utility.yul\":7318:7321   */\n      dup5\n        /* \"#utility.yul\":7309:7315   */\n      dup5\n        /* \"#utility.yul\":7304:7307   */\n      dup5\n        /* \"#utility.yul\":7300:7316   */\n      add\n        /* \"#utility.yul\":7297:7322   */\n      gt\n        /* \"#utility.yul\":7294:7406   */\n      iszero\n      tag_239\n      jumpi\n        /* \"#utility.yul\":7325:7404   */\n      tag_240\n      tag_126\n      jump\t// in\n    tag_240:\n        /* \"#utility.yul\":7294:7406   */\n    tag_239:\n        /* \"#utility.yul\":7415:7469   */\n      tag_241\n        /* \"#utility.yul\":7462:7468   */\n      dup5\n        /* \"#utility.yul\":7457:7460   */\n      dup3\n        /* \"#utility.yul\":7452:7455   */\n      dup6\n        /* \"#utility.yul\":7415:7469   */\n      tag_131\n      jump\t// in\n    tag_241:\n        /* \"#utility.yul\":7134:7475   */\n      pop\n        /* \"#utility.yul\":7050:7475   */\n      swap4\n      swap3\n      pop\n      pop\n      pop\n      jump\t// out\n        /* \"#utility.yul\":7495:7835   */\n    tag_133:\n        /* \"#utility.yul\":7551:7556   */\n      0x00\n        /* \"#utility.yul\":7600:7603   */\n      dup3\n        /* \"#utility.yul\":7593:7597   */\n      0x1f\n        /* \"#utility.yul\":7585:7591   */\n      dup4\n        /* \"#utility.yul\":7581:7598   */\n      add\n        /* \"#utility.yul\":7577:7604   */\n      slt\n        /* \"#utility.yul\":7567:7689   */\n      tag_243\n      jumpi\n        /* \"#utility.yul\":7608:7687   */\n      tag_244\n      tag_125\n      jump\t// in\n    tag_244:\n        /* \"#utility.yul\":7567:7689   */\n    tag_243:\n        /* \"#utility.yul\":7725:7731   */\n      dup2\n        /* \"#utility.yul\":7712:7732   */\n      calldataload\n        /* \"#utility.yul\":7750:7829   */\n      tag_245\n        /* \"#utility.yul\":7825:7828   */\n      dup5\n        /* \"#utility.yul\":7817:7823   */\n      dup3\n        /* \"#utility.yul\":7810:7814   */\n      0x20\n        /* \"#utility.yul\":7802:7808   */\n      dup7\n        /* \"#utility.yul\":7798:7815   */\n      add\n        /* \"#utility.yul\":7750:7829   */\n      tag_132\n      jump\t// in\n    tag_245:\n        /* \"#utility.yul\":7741:7829   */\n      swap2\n      pop\n        /* \"#utility.yul\":7557:7835   */\n      pop\n        /* \"#utility.yul\":7495:7835   */\n      swap3\n      swap2\n      pop\n      pop\n      jump\t// out\n        /* \"#utility.yul\":7841:7979   */\n    tag_134:\n        /* \"#utility.yul\":7922:7954   */\n      tag_247\n        /* \"#utility.yul\":7948:7953   */\n      dup2\n        /* \"#utility.yul\":7922:7954   */\n      tag_123\n      jump\t// in\n    tag_247:\n        /* \"#utility.yul\":7915:7920   */\n      dup2\n        /* \"#utility.yul\":7912:7955   */\n      eq\n        /* \"#utility.yul\":7902:7973   */\n      tag_248\n      jumpi\n        /* \"#utility.yul\":7969:7970   */\n      0x00\n        /* \"#utility.yul\":7966:7967   */\n      dup1\n        /* \"#utility.yul\":7959:7971   */\n      revert\n        /* \"#utility.yul\":7902:7973   */\n    tag_248:\n        /* \"#utility.yul\":7841:7979   */\n      pop\n      jump\t// out\n        /* \"#utility.yul\":7985:8140   */\n    tag_135:\n        /* \"#utility.yul\":8039:8044   */\n      0x00\n        /* \"#utility.yul\":8077:8083   */\n      dup2\n        /* \"#utility.yul\":8064:8084   */\n      calldataload\n        /* \"#utility.yul\":8055:8084   */\n      swap1\n      pop\n        /* \"#utility.yul\":8093:8134   */\n      tag_250\n        /* \"#utility.yul\":8128:8133   */\n      dup2\n        /* \"#utility.yul\":8093:8134   */\n      tag_134\n      jump\t// in\n    tag_250:\n        /* \"#utility.yul\":7985:8140   */\n      swap3\n      swap2\n      pop\n      pop\n      jump\t// out\n        /* \"#utility.yul\":8146:8961   */\n    tag_49:\n        /* \"#utility.yul\":8241:8247   */\n      0x00\n        /* \"#utility.yul\":8249:8255   */\n      dup1\n        /* \"#utility.yul\":8257:8263   */\n      0x00\n        /* \"#utility.yul\":8306:8308   */\n      0x60\n        /* \"#utility.yul\":8294:8303   */\n      dup5\n        /* \"#utility.yul\":8285:8292   */\n      dup7\n        /* \"#utility.yul\":8281:8304   */\n      sub\n        /* \"#utility.yul\":8277:8309   */\n      slt\n        /* \"#utility.yul\":8274:8393   */\n      iszero\n      tag_252\n      jumpi\n        /* \"#utility.yul\":8312:8391   */\n      tag_253\n      tag_105\n      jump\t// in\n    tag_253:\n        /* \"#utility.yul\":8274:8393   */\n    tag_252:\n        /* \"#utility.yul\":8460:8461   */\n      0x00\n        /* \"#utility.yul\":8449:8458   */\n      dup5\n        /* \"#utility.yul\":8445:8462   */\n      add\n        /* \"#utility.yul\":8432:8463   */\n      calldataload\n        /* \"#utility.yul\":8490:8508   */\n      0xffffffffffffffff\n        /* \"#utility.yul\":8482:8488   */\n      dup2\n        /* \"#utility.yul\":8479:8509   */\n      gt\n        /* \"#utility.yul\":8476:8593   */\n      iszero\n      tag_254\n      jumpi\n        /* \"#utility.yul\":8512:8591   */\n      tag_255\n      tag_106\n      jump\t// in\n    tag_255:\n        /* \"#utility.yul\":8476:8593   */\n    tag_254:\n        /* \"#utility.yul\":8617:8680   */\n      tag_256\n        /* \"#utility.yul\":8672:8679   */\n      dup7\n        /* \"#utility.yul\":8663:8669   */\n      dup3\n        /* \"#utility.yul\":8652:8661   */\n      dup8\n        /* \"#utility.yul\":8648:8670   */\n      add\n        /* \"#utility.yul\":8617:8680   */\n      tag_133\n      jump\t// in\n    tag_256:\n        /* \"#utility.yul\":8607:8680   */\n      swap4\n      pop\n        /* \"#utility.yul\":8403:8690   */\n      pop\n        /* \"#utility.yul\":8729:8731   */\n      0x20\n        /* \"#utility.yul\":8755:8808   */\n      tag_257\n        /* \"#utility.yul\":8800:8807   */\n      dup7\n        /* \"#utility.yul\":8791:8797   */\n      dup3\n        /* \"#utility.yul\":8780:8789   */\n      dup8\n        /* \"#utility.yul\":8776:8798   */\n      add\n        /* \"#utility.yul\":8755:8808   */\n      tag_109\n      jump\t// in\n    tag_257:\n        /* \"#utility.yul\":8745:8808   */\n      swap3\n      pop\n        /* \"#utility.yul\":8700:8818   */\n      pop\n        /* \"#utility.yul\":8857:8859   */\n      0x40\n        /* \"#utility.yul\":8883:8944   */\n      tag_258\n        /* \"#utility.yul\":8936:8943   */\n      dup7\n        /* \"#utility.yul\":8927:8933   */\n      dup3\n        /* \"#utility.yul\":8916:8925   */\n      dup8\n        /* \"#utility.yul\":8912:8934   */\n      add\n        /* \"#utility.yul\":8883:8944   */\n      tag_135\n      jump\t// in\n    tag_258:\n        /* \"#utility.yul\":8873:8944   */\n      swap2\n      pop\n        /* \"#utility.yul\":8828:8954   */\n      pop\n        /* \"#utility.yul\":8146:8961   */\n      swap3\n      pop\n      swap3\n      pop\n      swap3\n      jump\t// out\n        /* \"#utility.yul\":8967:9147   */\n    tag_66:\n        /* \"#utility.yul\":9015:9092   */\n      0x4e487b7100000000000000000000000000000000000000000000000000000000\n        /* \"#utility.yul\":9012:9013   */\n      0x00\n        /* \"#utility.yul\":9005:9093   */\n      mstore\n        /* \"#utility.yul\":9112:9116   */\n      0x32\n        /* \"#utility.yul\":9109:9110   */\n      0x04\n        /* \"#utility.yul\":9102:9117   */\n      mstore\n        /* \"#utility.yul\":9136:9140   */\n      0x24\n        /* \"#utility.yul\":9133:9134   */\n      0x00\n        /* \"#utility.yul\":9126:9141   */\n      revert\n        /* \"#utility.yul\":9153:9333   */\n    tag_136:\n        /* \"#utility.yul\":9201:9278   */\n      0x4e487b7100000000000000000000000000000000000000000000000000000000\n        /* \"#utility.yul\":9198:9199   */\n      0x00\n        /* \"#utility.yul\":9191:9279   */\n      mstore\n        /* \"#utility.yul\":9298:9302   */\n      0x12\n        /* \"#utility.yul\":9295:9296   */\n      0x04\n        /* \"#utility.yul\":9288:9303   */\n      mstore\n        /* \"#utility.yul\":9322:9326   */\n      0x24\n        /* \"#utility.yul\":9319:9320   */\n      0x00\n        /* \"#utility.yul\":9312:9327   */\n      revert\n        /* \"#utility.yul\":9339:9519   */\n    tag_137:\n        /* \"#utility.yul\":9387:9464   */\n      0x4e487b7100000000000000000000000000000000000000000000000000000000\n        /* \"#utility.yul\":9384:9385   */\n      0x00\n        /* \"#utility.yul\":9377:9465   */\n      mstore\n        /* \"#utility.yul\":9484:9488   */\n      0x11\n        /* \"#utility.yul\":9481:9482   */\n      0x04\n        /* \"#utility.yul\":9474:9489   */\n      mstore\n        /* \"#utility.yul\":9508:9512   */\n      0x24\n        /* \"#utility.yul\":9505:9506   */\n      0x00\n        /* \"#utility.yul\":9498:9513   */\n      revert\n        /* \"#utility.yul\":9525:9710   */\n    tag_69:\n        /* \"#utility.yul\":9565:9566   */\n      0x00\n        /* \"#utility.yul\":9582:9602   */\n      tag_263\n        /* \"#utility.yul\":9600:9601   */\n      dup3\n        /* \"#utility.yul\":9582:9602   */\n      tag_107\n      jump\t// in\n    tag_263:\n        /* \"#utility.yul\":9577:9602   */\n      swap2\n      pop\n        /* \"#utility.yul\":9616:9636   */\n      tag_264\n        /* \"#utility.yul\":9634:9635   */\n      dup4\n        /* \"#utility.yul\":9616:9636   */\n      tag_107\n      jump\t// in\n    tag_264:\n        /* \"#utility.yul\":9611:9636   */\n      swap3\n      pop\n        /* \"#utility.yul\":9655:9656   */\n      dup3\n        /* \"#utility.yul\":9645:9680   */\n      tag_265\n      jumpi\n        /* \"#utility.yul\":9660:9678   */\n      tag_266\n      tag_136\n      jump\t// in\n    tag_266:\n        /* \"#utility.yul\":9645:9680   */\n    tag_265:\n        /* \"#utility.yul\":9702:9703   */\n      dup3\n        /* \"#utility.yul\":9699:9700   */\n      dup3\n        /* \"#utility.yul\":9695:9704   */\n      div\n        /* \"#utility.yul\":9690:9704   */\n      swap1\n      pop\n        /* \"#utility.yul\":9525:9710   */\n      swap3\n      swap2\n      pop\n      pop\n      jump\t// out\n        /* \"#utility.yul\":9716:9896   */\n    tag_138:\n        /* \"#utility.yul\":9764:9841   */\n      0x4e487b7100000000000000000000000000000000000000000000000000000000\n        /* \"#utility.yul\":9761:9762   */\n      0x00\n        /* \"#utility.yul\":9754:9842   */\n      mstore\n        /* \"#utility.yul\":9861:9865   */\n      0x22\n        /* \"#utility.yul\":9858:9859   */\n      0x04\n        /* \"#utility.yul\":9851:9866   */\n      mstore\n        /* \"#utility.yul\":9885:9889   */\n      0x24\n        /* \"#utility.yul\":9882:9883   */\n      0x00\n        /* \"#utility.yul\":9875:9890   */\n      revert\n        /* \"#utility.yul\":9902:10222   */\n    tag_79:\n        /* \"#utility.yul\":9946:9952   */\n      0x00\n        /* \"#utility.yul\":9983:9984   */\n      0x02\n        /* \"#utility.yul\":9977:9981   */\n      dup3\n        /* \"#utility.yul\":9973:9985   */\n      div\n        /* \"#utility.yul\":9963:9985   */\n      swap1\n      pop\n        /* \"#utility.yul\":10030:10031   */\n      0x01\n        /* \"#utility.yul\":10024:10028   */\n      dup3\n        /* \"#utility.yul\":10020:10032   */\n      and\n        /* \"#utility.yul\":10051:10069   */\n      dup1\n        /* \"#utility.yul\":10041:10122   */\n      tag_269\n      jumpi\n        /* \"#utility.yul\":10107:10111   */\n      0x7f\n        /* \"#utility.yul\":10099:10105   */\n      dup3\n        /* \"#utility.yul\":10095:10112   */\n      and\n        /* \"#utility.yul\":10085:10112   */\n      swap2\n      pop\n        /* \"#utility.yul\":10041:10122   */\n    tag_269:\n        /* \"#utility.yul\":10169:10171   */\n      0x20\n        /* \"#utility.yul\":10161:10167   */\n      dup3\n        /* \"#utility.yul\":10158:10172   */\n      lt\n        /* \"#utility.yul\":10138:10156   */\n      dup2\n        /* \"#utility.yul\":10135:10173   */\n      sub\n        /* \"#utility.yul\":10132:10216   */\n      tag_270\n      jumpi\n        /* \"#utility.yul\":10188:10206   */\n      tag_271\n      tag_138\n      jump\t// in\n    tag_271:\n        /* \"#utility.yul\":10132:10216   */\n    tag_270:\n        /* \"#utility.yul\":9953:10222   */\n      pop\n        /* \"#utility.yul\":9902:10222   */\n      swap2\n      swap1\n      pop\n      jump\t// out\n        /* \"#utility.yul\":10228:10369   */\n    tag_139:\n        /* \"#utility.yul\":10277:10281   */\n      0x00\n        /* \"#utility.yul\":10300:10303   */\n      dup2\n        /* \"#utility.yul\":10292:10303   */\n      swap1\n      pop\n        /* \"#utility.yul\":10323:10326   */\n      dup2\n        /* \"#utility.yul\":10320:10321   */\n      0x00\n        /* \"#utility.yul\":10313:10327   */\n      mstore\n        /* \"#utility.yul\":10357:10361   */\n      0x20\n        /* \"#utility.yul\":10354:10355   */\n      0x00\n        /* \"#utility.yul\":10344:10362   */\n      keccak256\n        /* \"#utility.yul\":10336:10362   */\n      swap1\n      pop\n        /* \"#utility.yul\":10228:10369   */\n      swap2\n      swap1\n      pop\n      jump\t// out\n        /* \"#utility.yul\":10375:10468   */\n    tag_140:\n        /* \"#utility.yul\":10412:10418   */\n      0x00\n        /* \"#utility.yul\":10459:10461   */\n      0x20\n        /* \"#utility.yul\":10454:10456   */\n      0x1f\n        /* \"#utility.yul\":10447:10452   */\n      dup4\n        /* \"#utility.yul\":10443:10457   */\n      add\n        /* \"#utility.yul\":10439:10462   */\n      div\n        /* \"#utility.yul\":10429:10462   */\n      swap1\n      pop\n        /* \"#utility.yul\":10375:10468   */\n      swap2\n      swap1\n      pop\n      jump\t// out\n        /* \"#utility.yul\":10474:10581   */\n    tag_141:\n        /* \"#utility.yul\":10518:10526   */\n      0x00\n        /* \"#utility.yul\":10568:10573   */\n      dup3\n        /* \"#utility.yul\":10562:10566   */\n      dup3\n        /* \"#utility.yul\":10558:10574   */\n      shl\n        /* \"#utility.yul\":10537:10574   */\n      swap1\n      pop\n        /* \"#utility.yul\":10474:10581   */\n      swap3\n      swap2\n      pop\n      pop\n      jump\t// out\n        /* \"#utility.yul\":10587:10980   */\n    tag_142:\n        /* \"#utility.yul\":10656:10662   */\n      0x00\n        /* \"#utility.yul\":10706:10707   */\n      0x08\n        /* \"#utility.yul\":10694:10704   */\n      dup4\n        /* \"#utility.yul\":10690:10708   */\n      mul\n        /* \"#utility.yul\":10729:10826   */\n      tag_276\n        /* \"#utility.yul\":10759:10825   */\n      0xffffffffffffffffffffffffffffffffffffffffffffffffffffffffffffffff\n        /* \"#utility.yul\":10748:10757   */\n      dup3\n        /* \"#utility.yul\":10729:10826   */\n      tag_141\n      jump\t// in\n    tag_276:\n        /* \"#utility.yul\":10847:10886   */\n      tag_277\n        /* \"#utility.yul\":10877:10885   */\n      dup7\n        /* \"#utility.yul\":10866:10875   */\n      dup4\n        /* \"#utility.yul\":10847:10886   */\n      tag_141\n      jump\t// in\n    tag_277:\n        /* \"#utility.yul\":10835:10886   */\n      swap6\n      pop\n        /* \"#utility.yul\":10919:10923   */\n      dup1\n        /* \"#utility.yul\":10915:10924   */\n      not\n        /* \"#utility.yul\":10908:10913   */\n      dup5\n        /* \"#utility.yul\":10904:10925   */\n      and\n        /* \"#utility.yul\":10895:10925   */\n      swap4\n      pop\n        /* \"#utility.yul\":10968:10972   */\n      dup1\n        /* \"#utility.yul\":10958:10966   */\n      dup7\n        /* \"#utility.yul\":10954:10973   */\n      and\n        /* \"#utility.yul\":10947:10952   */\n      dup5\n        /* \"#utility.yul\":10944:10974   */\n      or\n        /* \"#utility.yul\":10934:10974   */\n      swap3\n      pop\n        /* \"#utility.yul\":10663:10980   */\n      pop\n      pop\n        /* \"#utility.yul\":10587:10980   */\n      swap4\n      swap3\n      pop\n      pop\n      pop\n      jump\t// out\n        /* \"#utility.yul\":10986:11046   */\n    tag_143:\n        /* \"#utility.yul\":11014:11017   */\n      0x00\n        /* \"#utility.yul\":11035:11040   */\n      dup2\n        /* \"#utility.yul\":11028:11040   */\n      swap1\n      pop\n        /* \"#utility.yul\":10986:11046   */\n      swap2\n      swap1\n      pop\n      jump\t// out\n        /* \"#utility.yul\":11052:11194   */\n    tag_144:\n        /* \"#utility.yul\":11102:11111   */\n      0x00\n        /* \"#utility.yul\":11135:11188   */\n      tag_280\n        /* \"#utility.yul\":11153:11187   */\n      tag_281\n        /* \"#utility.yul\":11162:11186   */\n      tag_282\n        /* \"#utility.yul\":11180:11185   */\n      dup5\n        /* \"#utility.yul\":11162:11186   */\n      tag_107\n      jump\t// in\n    tag_282:\n        /* \"#utility.yul\":11153:11187   */\n      tag_143\n      jump\t// in\n    tag_281:\n        /* \"#utility.yul\":11135:11188   */\n      tag_107\n      jump\t// in\n    tag_280:\n        /* \"#utility.yul\":11122:11188   */\n      swap1\n      pop\n        /* \"#utility.yul\":11052:11194   */\n      swap2\n      swap1\n      pop\n      jump\t// out\n        /* \"#utility.yul\":11200:11275   */\n    tag_145:\n        /* \"#utility.yul\":11243:11246   */\n      0x00\n        /* \"#utility.yul\":11264:11269   */\n      dup2\n        /* \"#utility.yul\":11257:11269   */\n      swap1\n      pop\n        /* \"#utility.yul\":11200:11275   */\n      swap2\n      swap1\n      pop\n      jump\t// out\n        /* \"#utility.yul\":11281:11550   */\n    tag_146:\n        /* \"#utility.yul\":11391:11430   */\n      tag_285\n        /* \"#utility.yul\":11422:11429   */\n      dup4\n        /* \"#utility.yul\":11391:11430   */\n      tag_144\n      jump\t// in\n    tag_285:\n        /* \"#utility.yul\":11452:11543   */\n      tag_286\n        /* \"#utility.yul\":11501:11542   */\n      tag_287\n        /* \"#utility.yul\":11525:11541   */\n      dup3\n        /* \"#utility.yul\":11501:11542   */\n      tag_145\n      jump\t// in\n    tag_287:\n        /* \"#utility.yul\":11493:11499   */\n      dup5\n        /* \"#utility.yul\":11486:11490   */\n      dup5\n        /* \"#utility.yul\":11480:11491   */\n      sload\n        /* \"#utility.yul\":11452:11543   */\n      tag_142\n      jump\t// in\n    tag_286:\n        /* \"#utility.yul\":11446:11450   */\n      dup3\n        /* \"#utility.yul\":11439:11544   */\n      sstore\n        /* \"#utility.yul\":11357:11550   */\n      pop\n        /* \"#utility.yul\":11281:11550   */\n      pop\n      pop\n      pop\n      jump\t// out\n        /* \"#utility.yul\":11556:11629   */\n    tag_147:\n        /* \"#utility.yul\":11601:11604   */\n      0x00\n        /* \"#utility.yul\":11556:11629   */\n      swap1\n      jump\t// out\n        /* \"#utility.yul\":11635:11824   */\n    tag_148:\n        /* \"#utility.yul\":11712:11744   */\n      tag_290\n      tag_147\n      jump\t// in\n    tag_290:\n        /* \"#utility.yul\":11753:11818   */\n      tag_291\n        /* \"#utility.yul\":11811:11817   */\n      dup2\n        /* \"#utility.yul\":11803:11809   */\n      dup5\n        /* \"#utility.yul\":11797:11801   */\n      dup5\n        /* \"#utility.yul\":11753:11818   */\n      tag_146\n      jump\t// in\n    tag_291:\n        /* \"#utility.yul\":11688:11824   */\n      pop\n        /* \"#utility.yul\":11635:11824   */\n      pop\n      pop\n      jump\t// out\n        /* \"#utility.yul\":11830:12016   */\n    tag_149:\n        /* \"#utility.yul\":11890:12010   */\n    tag_293:\n        /* \"#utility.yul\":11907:11910   */\n      dup2\n        /* \"#utility.yul\":11900:11905   */\n      dup2\n        /* \"#utility.yul\":11897:11911   */\n      lt\n        /* \"#utility.yul\":11890:12010   */\n      iszero\n      tag_295\n      jumpi\n        /* \"#utility.yul\":11961:12000   */\n      tag_296\n        /* \"#utility.yul\":11998:11999   */\n      0x00\n        /* \"#utility.yul\":11991:11996   */\n      dup3\n        /* \"#utility.yul\":11961:12000   */\n      tag_148\n      jump\t// in\n    tag_296:\n        /* \"#utility.yul\":11934:11935   */\n      0x01\n        /* \"#utility.yul\":11927:11932   */\n      dup2\n        /* \"#utility.yul\":11923:11936   */\n      add\n        /* \"#utility.yul\":11914:11936   */\n      swap1\n      pop\n        /* \"#utility.yul\":11890:12010   */\n      jump(tag_293)\n    tag_295:\n        /* \"#utility.yul\":11830:12016   */\n      pop\n      pop\n      jump\t// out\n        /* \"#utility.yul\":12022:12565   */\n    tag_150:\n        /* \"#utility.yul\":12123:12125   */\n      0x1f\n        /* \"#utility.yul\":12118:12121   */\n      dup3\n        /* \"#utility.yul\":12115:12126   */\n      gt\n        /* \"#utility.yul\":12112:12558   */\n      iszero\n      tag_298\n      jumpi\n        /* \"#utility.yul\":12157:12195   */\n      tag_299\n        /* \"#utility.yul\":12189:12194   */\n      dup2\n        /* \"#utility.yul\":12157:12195   */\n      tag_139\n      jump\t// in\n    tag_299:\n        /* \"#utility.yul\":12241:12270   */\n      tag_300\n        /* \"#utility.yul\":12259:12269   */\n      dup5\n        /* \"#utility.yul\":12241:12270   */\n      tag_140\n      jump\t// in\n    tag_300:\n        /* \"#utility.yul\":12231:12239   */\n      dup2\n        /* \"#utility.yul\":12227:12271   */\n      add\n        /* \"#utility.yul\":12424:12426   */\n      0x20\n        /* \"#utility.yul\":12412:12422   */\n      dup6\n        /* \"#utility.yul\":12409:12427   */\n      lt\n        /* \"#utility.yul\":12406:12455   */\n      iszero\n      tag_301\n      jumpi\n        /* \"#utility.yul\":12445:12453   */\n      dup2\n        /* \"#utility.yul\":12430:12453   */\n      swap1\n      pop\n        /* \"#utility.yul\":12406:12455   */\n    tag_301:\n        /* \"#utility.yul\":12468:12548   */\n      tag_302\n        /* \"#utility.yul\":12524:12546   */\n      tag_303\n        /* \"#utility.yul\":12542:12545   */\n      dup6\n        /* \"#utility.yul\":12524:12546   */\n      tag_140\n      jump\t// in\n    tag_303:\n        /* \"#utility.yul\":12514:12522   */\n      dup4\n        /* \"#utility.yul\":12510:12547   */\n      add\n        /* \"#utility.yul\":12497:12508   */\n      dup3\n        /* \"#utility.yul\":12468:12548   */\n      tag_149\n      jump\t// in\n    tag_302:\n        /* \"#utility.yul\":12127:12558   */\n      pop\n      pop\n        /* \"#utility.yul\":12112:12558   */\n    tag_298:\n        /* \"#utility.yul\":12022:12565   */\n      pop\n      pop\n      pop\n      jump\t// out\n        /* \"#utility.yul\":12571:12688   */\n    tag_151:\n        /* \"#utility.yul\":12625:12633   */\n      0x00\n        /* \"#utility.yul\":12675:12680   */\n      dup3\n        /* \"#utility.yul\":12669:12673   */\n      dup3\n        /* \"#utility.yul\":12665:12681   */\n      shr\n        /* \"#utility.yul\":12644:12681   */\n      swap1\n      pop\n        /* \"#utility.yul\":12571:12688   */\n      swap3\n      swap2\n      pop\n      pop\n      jump\t// out\n        /* \"#utility.yul\":12694:12863   */\n    tag_152:\n        /* \"#utility.yul\":12738:12744   */\n      0x00\n        /* \"#utility.yul\":12771:12822   */\n      tag_306\n        /* \"#utility.yul\":12819:12820   */\n      0x00\n        /* \"#utility.yul\":12815:12821   */\n      not\n        /* \"#utility.yul\":12807:12812   */\n      dup5\n        /* \"#utility.yul\":12804:12805   */\n      0x08\n        /* \"#utility.yul\":12800:12813   */\n      mul\n        /* \"#utility.yul\":12771:12822   */\n      tag_151\n      jump\t// in\n    tag_306:\n        /* \"#utility.yul\":12767:12823   */\n      not\n        /* \"#utility.yul\":12852:12856   */\n      dup1\n        /* \"#utility.yul\":12846:12850   */\n      dup4\n        /* \"#utility.yul\":12842:12857   */\n      and\n        /* \"#utility.yul\":12832:12857   */\n      swap2\n      pop\n        /* \"#utility.yul\":12745:12863   */\n      pop\n        /* \"#utility.yul\":12694:12863   */\n      swap3\n      swap2\n      pop\n      pop\n      jump\t// out\n        /* \"#utility.yul\":12868:13163   */\n    tag_153:\n        /* \"#utility.yul\":12944:12948   */\n      0x00\n        /* \"#utility.yul\":13090:13119   */\n      tag_308\n        /* \"#utility.yul\":13115:13118   */\n      dup4\n        /* \"#utility.yul\":13109:13113   */\n      dup4\n        /* \"#utility.yul\":13090:13119   */\n      tag_152\n      jump\t// in\n    tag_308:\n        /* \"#utility.yul\":13082:13119   */\n      swap2\n      pop\n        /* \"#utility.yul\":13152:13155   */\n      dup3\n        /* \"#utility.yul\":13149:13150   */\n      0x02\n        /* \"#utility.yul\":13145:13156   */\n      mul\n        /* \"#utility.yul\":13139:13143   */\n      dup3\n        /* \"#utility.yul\":13136:13157   */\n      or\n        /* \"#utility.yul\":13128:13157   */\n      swap1\n      pop\n        /* \"#utility.yul\":12868:13163   */\n      swap3\n      swap2\n      pop\n      pop\n      jump\t// out\n        /* \"#utility.yul\":13168:14563   */\n    tag_89:\n        /* \"#utility.yul\":13285:13322   */\n      tag_310\n        /* \"#utility.yul\":13318:13321   */\n      dup3\n        /* \"#utility.yul\":13285:13322   */\n      tag_118\n      jump\t// in\n    tag_310:\n        /* \"#utility.yul\":13387:13405   */\n      0xffffffffffffffff\n        /* \"#utility.yul\":13379:13385   */\n      dup2\n        /* \"#utility.yul\":13376:13406   */\n      gt\n        /* \"#utility.yul\":13373:13429   */\n      iszero\n      tag_311\n      jumpi\n        /* \"#utility.yul\":13409:13427   */\n      tag_312\n      tag_127\n      jump\t// in\n    tag_312:\n        /* \"#utility.yul\":13373:13429   */\n    tag_311:\n        /* \"#utility.yul\":13453:13491   */\n      tag_313\n        /* \"#utility.yul\":13485:13489   */\n      dup3\n        /* \"#utility.yul\":13479:13490   */\n      sload\n        /* \"#utility.yul\":13453:13491   */\n      tag_79\n      jump\t// in\n    tag_313:\n        /* \"#utility.yul\":13538:13605   */\n      tag_314\n        /* \"#utility.yul\":13598:13604   */\n      dup3\n        /* \"#utility.yul\":13590:13596   */\n      dup3\n        /* \"#utility.yul\":13584:13588   */\n      dup6\n        /* \"#utility.yul\":13538:13605   */\n      tag_150\n      jump\t// in\n    tag_314:\n        /* \"#utility.yul\":13632:13633   */\n      0x00\n        /* \"#utility.yul\":13656:13660   */\n      0x20\n        /* \"#utility.yul\":13643:13660   */\n      swap1\n      pop\n        /* \"#utility.yul\":13688:13690   */\n      0x1f\n        /* \"#utility.yul\":13680:13686   */\n      dup4\n        /* \"#utility.yul\":13677:13691   */\n      gt\n        /* \"#utility.yul\":13705:13706   */\n      0x01\n        /* \"#utility.yul\":13700:14318   */\n      dup2\n      eq\n      tag_316\n      jumpi\n        /* \"#utility.yul\":14362:14363   */\n      0x00\n        /* \"#utility.yul\":14379:14385   */\n      dup5\n        /* \"#utility.yul\":14376:14453   */\n      iszero\n      tag_317\n      jumpi\n        /* \"#utility.yul\":14428:14437   */\n      dup3\n        /* \"#utility.yul\":14423:14426   */\n      dup8\n        /* \"#utility.yul\":14419:14438   */\n      add\n        /* \"#utility.yul\":14413:14439   */\n      mload\n        /* \"#utility.yul\":14404:14439   */\n      swap1\n      pop\n        /* \"#utility.yul\":14376:14453   */\n    tag_317:\n        /* \"#utility.yul\":14479:14546   */\n      tag_318\n        /* \"#utility.yul\":14539:14545   */\n      dup6\n        /* \"#utility.yul\":14532:14537   */\n      dup3\n        /* \"#utility.yul\":14479:14546   */\n      tag_153\n      jump\t// in\n    tag_318:\n        /* \"#utility.yul\":14473:14477   */\n      dup7\n        /* \"#utility.yul\":14466:14547   */\n      sstore\n        /* \"#utility.yul\":14335:14557   */\n      pop\n        /* \"#utility.yul\":13670:14557   */\n      jump(tag_315)\n        /* \"#utility.yul\":13700:14318   */\n    tag_316:\n        /* \"#utility.yul\":13752:13756   */\n      0x1f\n        /* \"#utility.yul\":13748:13757   */\n      not\n        /* \"#utility.yul\":13740:13746   */\n      dup5\n        /* \"#utility.yul\":13736:13758   */\n      and\n        /* \"#utility.yul\":13786:13823   */\n      tag_319\n        /* \"#utility.yul\":13818:13822   */\n      dup7\n        /* \"#utility.yul\":13786:13823   */\n      tag_139\n      jump\t// in\n    tag_319:\n        /* \"#utility.yul\":13845:13846   */\n      0x00\n        /* \"#utility.yul\":13859:14067   */\n    tag_320:\n        /* \"#utility.yul\":13873:13880   */\n      dup3\n        /* \"#utility.yul\":13870:13871   */\n      dup2\n        /* \"#utility.yul\":13867:13881   */\n      lt\n        /* \"#utility.yul\":13859:14067   */\n      iszero\n      tag_322\n      jumpi\n        /* \"#utility.yul\":13952:13961   */\n      dup5\n        /* \"#utility.yul\":13947:13950   */\n      dup10\n        /* \"#utility.yul\":13943:13962   */\n      add\n        /* \"#utility.yul\":13937:13963   */\n      mload\n        /* \"#utility.yul\":13929:13935   */\n      dup3\n        /* \"#utility.yul\":13922:13964   */\n      sstore\n        /* \"#utility.yul\":14003:14004   */\n      0x01\n        /* \"#utility.yul\":13995:14001   */\n      dup3\n        /* \"#utility.yul\":13991:14005   */\n      add\n        /* \"#utility.yul\":13981:14005   */\n      swap2\n      pop\n        /* \"#utility.yul\":14050:14052   */\n      0x20\n        /* \"#utility.yul\":14039:14048   */\n      dup6\n        /* \"#utility.yul\":14035:14053   */\n      add\n        /* \"#utility.yul\":14022:14053   */\n      swap5\n      pop\n        /* \"#utility.yul\":13896:13900   */\n      0x20\n        /* \"#utility.yul\":13893:13894   */\n      dup2\n        /* \"#utility.yul\":13889:13901   */\n      add\n        /* \"#utility.yul\":13884:13901   */\n      swap1\n      pop\n        /* \"#utility.yul\":13859:14067   */\n      jump(tag_320)\n    tag_322:\n        /* \"#utility.yul\":14095:14101   */\n      dup7\n        /* \"#utility.yul\":14086:14093   */\n      dup4\n        /* \"#utility.yul\":14083:14102   */\n      lt\n        /* \"#utility.yul\":14080:14259   */\n      iszero\n      tag_323\n      jumpi\n        /* \"#utility.yul\":14153:14162   */\n      dup5\n        /* \"#utility.yul\":14148:14151   */\n      dup10\n        /* \"#utility.yul\":14144:14163   */\n      add\n        /* \"#utility.yul\":14138:14164   */\n      mload\n        /* \"#utility.yul\":14196:14244   */\n      tag_324\n        /* \"#utility.yul\":14238:14242   */\n      0x1f\n        /* \"#utility.yul\":14230:14236   */\n      dup10\n        /* \"#utility.yul\":14226:14243   */\n      and\n        /* \"#utility.yul\":14215:14224   */\n      dup3\n        /* \"#utility.yul\":14196:14244   */\n      tag_152\n      jump\t// in\n    tag_324:\n        /* \"#utility.yul\":14188:14194   */\n      dup4\n        /* \"#utility.yul\":14181:14245   */\n      sstore\n        /* \"#utility.yul\":14103:14259   */\n      pop\n        /* \"#utility.yul\":14080:14259   */\n    tag_323:\n        /* \"#utility.yul\":14305:14306   */\n      0x01\n        /* \"#utility.yul\":14301:14302   */\n      0x02\n        /* \"#utility.yul\":14293:14299   */\n      dup9\n        /* \"#utility.yul\":14289:14303   */\n      mul\n        /* \"#utility.yul\":14285:14307   */\n      add\n        /* \"#utility.yul\":14279:14283   */\n      dup9\n        /* \"#utility.yul\":14272:14308   */\n      sstore\n        /* \"#utility.yul\":13707:14318   */\n      pop\n      pop\n      pop\n        /* \"#utility.yul\":13670:14557   */\n    tag_315:\n      pop\n        /* \"#utility.yul\":13260:14563   */\n      pop\n      pop\n      pop\n        /* \"#utility.yul\":13168:14563   */\n      pop\n      pop\n      jump\t// out\n        /* \"#utility.yul\":14569:14802   */\n    tag_93:\n        /* \"#utility.yul\":14608:14611   */\n      0x00\n        /* \"#utility.yul\":14631:14655   */\n      tag_326\n        /* \"#utility.yul\":14649:14654   */\n      dup3\n        /* \"#utility.yul\":14631:14655   */\n      tag_107\n      jump\t// in\n    tag_326:\n        /* \"#utility.yul\":14622:14655   */\n      swap2\n      pop\n        /* \"#utility.yul\":14677:14743   */\n      0xffffffffffffffffffffffffffffffffffffffffffffffffffffffffffffffff\n        /* \"#utility.yul\":14670:14675   */\n      dup3\n        /* \"#utility.yul\":14667:14744   */\n      sub\n        /* \"#utility.yul\":14664:14767   */\n      tag_327\n      jumpi\n        /* \"#utility.yul\":14747:14765   */\n      tag_328\n      tag_137\n      jump\t// in\n    tag_328:\n        /* \"#utility.yul\":14664:14767   */\n    tag_327:\n        /* \"#utility.yul\":14794:14795   */\n      0x01\n        /* \"#utility.yul\":14787:14792   */\n      dup3\n        /* \"#utility.yul\":14783:14796   */\n      add\n        /* \"#utility.yul\":14776:14796   */\n      swap1\n      pop\n        /* \"#utility.yul\":14569:14802   */\n      swap2\n      swap1\n      pop\n      jump\t// out\n\n    auxdata: 0xa26469706673582212201f62bf3ddd45fcf71b7da36a76241fc0062aed424080f57e0c28e25088904c9664736f6c63430008110033\n}\n","bytecode":{"linkReferences":{},"object":"60806040523480156200001157600080fd5b50604051620012753803806200127583398181016040528101906200003791906200012b565b806000806101000a81548173ffffffffffffffffffffffffffffffffffffffff021916908373ffffffffffffffffffffffffffffffffffffffff16021790555081600181905550505062000172565b600080fd5b6000819050919050565b620000a0816200008b565b8114620000ac57600080fd5b50565b600081519050620000c08162000095565b92915050565b600073ffffffffffffffffffffffffffffffffffffffff82169050919050565b6000620000f382620000c6565b9050919050565b6200010581620000e6565b81146200011157600080fd5b50565b6000815190506200012581620000fa565b92915050565b6000806040838503121562000145576200014462000086565b5b60006200015585828601620000af565b9250506020620001688582860162000114565b9150509250929050565b6110f380620001826000396000f3fe6080604052600436106100915760003560e01c806381d12c581161005957806381d12c58146101815780638a9cfd55146101c2578063937e09b1146101eb578063d7bb99ba14610216578063d7d1bbdb1461022057610091565b806303441006146100965780630a144391146100bf5780633410452a146100fc5780634051ddac14610127578063481c6a7514610156575b600080fd5b3480156100a257600080fd5b506100bd60048036038101906100b89190610869565b610249565b005b3480156100cb57600080fd5b506100e660048036038101906100e191906108f4565b610391565b6040516100f3919061093c565b60405180910390f35b34801561010857600080fd5b506101116103b1565b60405161011e9190610966565b60405180910390f35b34801561013357600080fd5b5061013c6103be565b60405161014d959493929190610990565b60405180910390f35b34801561016257600080fd5b5061016b610405565b60405161017891906109e3565b60405180910390f35b34801561018d57600080fd5b506101a860048036038101906101a39190610869565b610429565b6040516101b9959493929190610aaf565b60405180910390f35b3480156101ce57600080fd5b506101e960048036038101906101e49190610c6a565b610524565b005b3480156101f757600080fd5b5061020061062b565b60405161020d9190610966565b60405180910390f35b61021e610631565b005b34801561022c57600080fd5b5061024760048036038101906102429190610869565b6106b1565b005b60008054906101000a900473ffffffffffffffffffffffffffffffffffffffff1673ffffffffffffffffffffffffffffffffffffffff163373ffffffffffffffffffffffffffffffffffffffff16146102a157600080fd5b6000600282815481106102b7576102b6610cd9565b5b9060005260206000209060060201905060026004546102d69190610d66565b8160030154116102e557600080fd5b8060050160009054906101000a900460ff161561030157600080fd5b8060020160009054906101000a900473ffffffffffffffffffffffffffffffffffffffff1673ffffffffffffffffffffffffffffffffffffffff166108fc82600101549081150290604051600060405180830381858888f1935050505015801561036f573d6000803e3d6000fd5b5060018160050160006101000a81548160ff0219169083151502179055505050565b60036020528060005260406000206000915054906101000a900460ff1681565b6000600280549050905090565b60008060008060006001544760028054905060045460008054906101000a900473ffffffffffffffffffffffffffffffffffffffff16945094509450945094509091929394565b60008054906101000a900473ffffffffffffffffffffffffffffffffffffffff1681565b6002818154811061043957600080fd5b906000526020600020906006020160009150905080600001805461045c90610dc6565b80601f016020809104026020016040519081016040528092919081815260200182805461048890610dc6565b80156104d55780601f106104aa576101008083540402835291602001916104d5565b820191906000526020600020905b8154815290600101906020018083116104b857829003601f168201915b5050505050908060010154908060020160009054906101000a900473ffffffffffffffffffffffffffffffffffffffff16908060030154908060050160009054906101000a900460ff16905085565b60008054906101000a900473ffffffffffffffffffffffffffffffffffffffff1673ffffffffffffffffffffffffffffffffffffffff163373ffffffffffffffffffffffffffffffffffffffff161461057c57600080fd5b600060026001816001815401808255809150500390600052602060002090600602019050838160000190816105b19190610fa3565b50828160010181905550818160020160006101000a81548173ffffffffffffffffffffffffffffffffffffffff021916908373ffffffffffffffffffffffffffffffffffffffff16021790555060008160050160006101000a81548160ff0219169083151502179055506000816003018190555050505050565b60015481565b600154341161063f57600080fd5b6001600360003373ffffffffffffffffffffffffffffffffffffffff1673ffffffffffffffffffffffffffffffffffffffff16815260200190815260200160002060006101000a81548160ff021916908315150217905550600460008154809291906106aa90611075565b9190505550565b6000600282815481106106c7576106c6610cd9565b5b90600052602060002090600602019050600360003373ffffffffffffffffffffffffffffffffffffffff1673ffffffffffffffffffffffffffffffffffffffff16815260200190815260200160002060009054906101000a900460ff1661072d57600080fd5b6002828154811061074157610740610cd9565b5b906000526020600020906006020160040160003373ffffffffffffffffffffffffffffffffffffffff1673ffffffffffffffffffffffffffffffffffffffff16815260200190815260200160002060009054906101000a900460ff16156107a757600080fd5b60018160040160003373ffffffffffffffffffffffffffffffffffffffff1673ffffffffffffffffffffffffffffffffffffffff16815260200190815260200160002060006101000a81548160ff02191690831515021790555080600301600081548092919061081690611075565b91905055505050565b6000604051905090565b600080fd5b600080fd5b6000819050919050565b61084681610833565b811461085157600080fd5b50565b6000813590506108638161083d565b92915050565b60006020828403121561087f5761087e610829565b5b600061088d84828501610854565b91505092915050565b600073ffffffffffffffffffffffffffffffffffffffff82169050919050565b60006108c182610896565b9050919050565b6108d1816108b6565b81146108dc57600080fd5b50565b6000813590506108ee816108c8565b92915050565b60006020828403121561090a57610909610829565b5b6000610918848285016108df565b91505092915050565b60008115159050919050565b61093681610921565b82525050565b6000602082019050610951600083018461092d565b92915050565b61096081610833565b82525050565b600060208201905061097b6000830184610957565b92915050565b61098a816108b6565b82525050565b600060a0820190506109a56000830188610957565b6109b26020830187610957565b6109bf6040830186610957565b6109cc6060830185610957565b6109d96080830184610981565b9695505050505050565b60006020820190506109f86000830184610981565b92915050565b600081519050919050565b600082825260208201905092915050565b60005b83811015610a38578082015181840152602081019050610a1d565b60008484015250505050565b6000601f19601f8301169050919050565b6000610a60826109fe565b610a6a8185610a09565b9350610a7a818560208601610a1a565b610a8381610a44565b840191505092915050565b6000610a9982610896565b9050919050565b610aa981610a8e565b82525050565b600060a0820190508181036000830152610ac98188610a55565b9050610ad86020830187610957565b610ae56040830186610aa0565b610af26060830185610957565b610aff608083018461092d565b9695505050505050565b600080fd5b600080fd5b7f4e487b7100000000000000000000000000000000000000000000000000000000600052604160045260246000fd5b610b4b82610a44565b810181811067ffffffffffffffff82111715610b6a57610b69610b13565b5b80604052505050565b6000610b7d61081f565b9050610b898282610b42565b919050565b600067ffffffffffffffff821115610ba957610ba8610b13565b5b610bb282610a44565b9050602081019050919050565b82818337600083830152505050565b6000610be1610bdc84610b8e565b610b73565b905082815260208101848484011115610bfd57610bfc610b0e565b5b610c08848285610bbf565b509392505050565b600082601f830112610c2557610c24610b09565b5b8135610c35848260208601610bce565b91505092915050565b610c4781610a8e565b8114610c5257600080fd5b50565b600081359050610c6481610c3e565b92915050565b600080600060608486031215610c8357610c82610829565b5b600084013567ffffffffffffffff811115610ca157610ca061082e565b5b610cad86828701610c10565b9350506020610cbe86828701610854565b9250506040610ccf86828701610c55565b9150509250925092565b7f4e487b7100000000000000000000000000000000000000000000000000000000600052603260045260246000fd5b7f4e487b7100000000000000000000000000000000000000000000000000000000600052601260045260246000fd5b7f4e487b7100000000000000000000000000000000000000000000000000000000600052601160045260246000fd5b6000610d7182610833565b9150610d7c83610833565b925082610d8c57610d8b610d08565b5b828204905092915050565b7f4e487b7100000000000000000000000000000000000000000000000000000000600052602260045260246000fd5b60006002820490506001821680610dde57607f821691505b602082108103610df157610df0610d97565b5b50919050565b60008190508160005260206000209050919050565b60006020601f8301049050919050565b600082821b905092915050565b600060088302610e597fffffffffffffffffffffffffffffffffffffffffffffffffffffffffffffffff82610e1c565b610e638683610e1c565b95508019841693508086168417925050509392505050565b6000819050919050565b6000610ea0610e9b610e9684610833565b610e7b565b610833565b9050919050565b6000819050919050565b610eba83610e85565b610ece610ec682610ea7565b848454610e29565b825550505050565b600090565b610ee3610ed6565b610eee818484610eb1565b505050565b5b81811015610f1257610f07600082610edb565b600181019050610ef4565b5050565b601f821115610f5757610f2881610df7565b610f3184610e0c565b81016020851015610f40578190505b610f54610f4c85610e0c565b830182610ef3565b50505b505050565b600082821c905092915050565b6000610f7a60001984600802610f5c565b1980831691505092915050565b6000610f938383610f69565b9150826002028217905092915050565b610fac826109fe565b67ffffffffffffffff811115610fc557610fc4610b13565b5b610fcf8254610dc6565b610fda828285610f16565b600060209050601f83116001811461100d5760008415610ffb578287015190505b6110058582610f87565b86555061106d565b601f19841661101b86610df7565b60005b828110156110435784890151825560018201915060208501945060208101905061101e565b86831015611060578489015161105c601f891682610f69565b8355505b6001600288020188555050505b505050505050565b600061108082610833565b91507fffffffffffffffffffffffffffffffffffffffffffffffffffffffffffffffff82036110b2576110b1610d37565b5b60018201905091905056fea26469706673582212201f62bf3ddd45fcf71b7da36a76241fc0062aed424080f57e0c28e25088904c9664736f6c63430008110033","opcodes":"PUSH1 0x80 PUSH1 0x40 MSTORE CALLVALUE DUP1 ISZERO PUSH3 0x11 JUMPI PUSH1 0x0 DUP1 REVERT JUMPDEST POP PUSH1 0x40 MLOAD PUSH3 0x1275 CODESIZE SUB DUP1 PUSH3 0x1275 DUP4 CODECOPY DUP2 DUP2 ADD PUSH1 0x40 MSTORE DUP2 ADD SWAP1 PUSH3 0x37 SWAP2 SWAP1 PUSH3 0x12B JUMP JUMPDEST DUP1 PUSH1 0x0 DUP1 PUSH2 0x100 EXP DUP2 SLOAD DUP2 PUSH20 0xFFFFFFFFFFFFFFFFFFFFFFFFFFFFFFFFFFFFFFFF MUL NOT AND SWAP1 DUP4 PUSH20 0xFFFFFFFFFFFFFFFFFFFFFFFFFFFFFFFFFFFFFFFF AND MUL OR SWAP1 SSTORE POP DUP2 PUSH1 0x1 DUP2 SWAP1 SSTORE POP POP POP PUSH3 0x172 JUMP JUMPDEST PUSH1 0x0 DUP1 REVERT JUMPDEST PUSH1 0x0 DUP2 SWAP1 POP SWAP2 SWAP1 POP JUMP JUMPDEST PUSH3 0xA0 DUP2 PUSH3 0x8B JUMP JUMPDEST DUP2 EQ PUSH3 0xAC JUMPI PUSH1 0x0 DUP1 REVERT JUMPDEST POP JUMP JUMPDEST PUSH1 0x0 DUP2 MLOAD SWAP1 POP PUSH3 0xC0 DUP2 PUSH3 0x95 JUMP JUMPDEST SWAP3 SWAP2 POP POP JUMP JUMPDEST PUSH1 0x0 PUSH20 0xFFFFFFFFFFFFFFFFFFFFFFFFFFFFFFFFFFFFFFFF DUP3 AND SWAP1 POP SWAP2 SWAP1 POP JUMP JUMPDEST PUSH1 0x0 PUSH3 0xF3 DUP3 PUSH3 0xC6 JUMP JUMPDEST SWAP1 POP SWAP2 SWAP1 POP JUMP JUMPDEST PUSH3 0x105 DUP2 PUSH3 0xE6 JUMP JUMPDEST DUP2 EQ PUSH3 0x111 JUMPI PUSH1 0x0 DUP1 REVERT JUMPDEST POP JUMP JUMPDEST PUSH1 0x0 DUP2 MLOAD SWAP1 POP PUSH3 0x125 DUP2 PUSH3 0xFA JUMP JUMPDEST SWAP3 SWAP2 POP POP JUMP JUMPDEST PUSH1 0x0 DUP1 PUSH1 0x40 DUP4 DUP6 SUB SLT ISZERO PUSH3 0x145 JUMPI PUSH3 0x144 PUSH3 0x86 JUMP JUMPDEST JUMPDEST PUSH1 0x0 PUSH3 0x155 DUP6 DUP3 DUP7 ADD PUSH3 0xAF JUMP JUMPDEST SWAP3 POP POP PUSH1 0x20 PUSH3 0x168 DUP6 DUP3 DUP7 ADD PUSH3 0x114 JUMP JUMPDEST SWAP2 POP POP SWAP3 POP SWAP3 SWAP1 POP JUMP JUMPDEST PUSH2 0x10F3 DUP1 PUSH3 0x182 PUSH1 0x0 CODECOPY PUSH1 0x0 RETURN INVALID PUSH1 0x80 PUSH1 0x40 MSTORE PUSH1 0x4 CALLDATASIZE LT PUSH2 0x91 JUMPI PUSH1 0x0 CALLDATALOAD PUSH1 0xE0 SHR DUP1 PUSH4 0x81D12C58 GT PUSH2 0x59 JUMPI DUP1 PUSH4 0x81D12C58 EQ PUSH2 0x181 JUMPI DUP1 PUSH4 0x8A9CFD55 EQ PUSH2 0x1C2 JUMPI DUP1 PUSH4 0x937E09B1 EQ PUSH2 0x1EB JUMPI DUP1 PUSH4 0xD7BB99BA EQ PUSH2 0x216 JUMPI DUP1 PUSH4 0xD7D1BBDB EQ PUSH2 0x220 JUMPI PUSH2 0x91 JUMP JUMPDEST DUP1 PUSH4 0x3441006 EQ PUSH2 0x96 JUMPI DUP1 PUSH4 0xA144391 EQ PUSH2 0xBF JUMPI DUP1 PUSH4 0x3410452A EQ PUSH2 0xFC JUMPI DUP1 PUSH4 0x4051DDAC EQ PUSH2 0x127 JUMPI DUP1 PUSH4 0x481C6A75 EQ PUSH2 0x156 JUMPI JUMPDEST PUSH1 0x0 DUP1 REVERT JUMPDEST CALLVALUE DUP1 ISZERO PUSH2 0xA2 JUMPI PUSH1 0x0 DUP1 REVERT JUMPDEST POP PUSH2 0xBD PUSH1 0x4 DUP1 CALLDATASIZE SUB DUP2 ADD SWAP1 PUSH2 0xB8 SWAP2 SWAP1 PUSH2 0x869 JUMP JUMPDEST PUSH2 0x249 JUMP JUMPDEST STOP JUMPDEST CALLVALUE DUP1 ISZERO PUSH2 0xCB JUMPI PUSH1 0x0 DUP1 REVERT JUMPDEST POP PUSH2 0xE6 PUSH1 0x4 DUP1 CALLDATASIZE SUB DUP2 ADD SWAP1 PUSH2 0xE1 SWAP2 SWAP1 PUSH2 0x8F4 JUMP JUMPDEST PUSH2 0x391 JUMP JUMPDEST PUSH1 0x40 MLOAD PUSH2 0xF3 SWAP2 SWAP1 PUSH2 0x93C JUMP JUMPDEST PUSH1 0x40 MLOAD DUP1 SWAP2 SUB SWAP1 RETURN JUMPDEST CALLVALUE DUP1 ISZERO PUSH2 0x108 JUMPI PUSH1 0x0 DUP1 REVERT JUMPDEST POP PUSH2 0x111 PUSH2 0x3B1 JUMP JUMPDEST PUSH1 0x40 MLOAD PUSH2 0x11E SWAP2 SWAP1 PUSH2 0x966 JUMP JUMPDEST PUSH1 0x40 MLOAD DUP1 SWAP2 SUB SWAP1 RETURN JUMPDEST CALLVALUE DUP1 ISZERO PUSH2 0x133 JUMPI PUSH1 0x0 DUP1 REVERT JUMPDEST POP PUSH2 0x13C PUSH2 0x3BE JUMP JUMPDEST PUSH1 0x40 MLOAD PUSH2 0x14D SWAP6 SWAP5 SWAP4 SWAP3 SWAP2 SWAP1 PUSH2 0x990 JUMP JUMPDEST PUSH1 0x40 MLOAD DUP1 SWAP2 SUB SWAP1 RETURN JUMPDEST CALLVALUE DUP1 ISZERO PUSH2 0x162 JUMPI PUSH1 0x0 DUP1 REVERT JUMPDEST POP PUSH2 0x16B PUSH2 0x405 JUMP JUMPDEST PUSH1 0x40 MLOAD PUSH2 0x178 SWAP2 SWAP1 PUSH2 0x9E3 JUMP JUMPDEST PUSH1 0x40 MLOAD DUP1 SWAP2 SUB SWAP1 RETURN JUMPDEST CALLVALUE DUP1 ISZERO PUSH2 0x18D JUMPI PUSH1 0x0 DUP1 REVERT JUMPDEST POP PUSH2 0x1A8 PUSH1 0x4 DUP1 CALLDATASIZE SUB DUP2 ADD SWAP1 PUSH2 0x1A3 SWAP2 SWAP1 PUSH2 0x869 JUMP JUMPDEST PUSH2 0x429 JUMP JUMPDEST PUSH1 0x40 MLOAD PUSH2 0x1B9 SWAP6 SWAP5 SWAP4 SWAP3 SWAP2 SWAP1 PUSH2 0xAAF JUMP JUMPDEST PUSH1 0x40 MLOAD DUP1 SWAP2 SUB SWAP1 RETURN JUMPDEST CALLVALUE DUP1 ISZERO PUSH2 0x1CE JUMPI PUSH1 0x0 DUP1 REVERT JUMPDEST POP PUSH2 0x1E9 PUSH1 0x4 DUP1 CALLDATASIZE SUB DUP2 ADD SWAP1 PUSH2 0x1E4 SWAP2 SWAP1 PUSH2 0xC6A JUMP JUMPDEST PUSH2 0x524 JUMP JUMPDEST STOP JUMPDEST CALLVALUE DUP1 ISZERO PUSH2 0x1F7 JUMPI PUSH1 0x0 DUP1 REVERT JUMPDEST POP PUSH2 0x200 PUSH2 0x62B JUMP JUMPDEST PUSH1 0x40 MLOAD PUSH2 0x20D SWAP2 SWAP1 PUSH2 0x966 JUMP JUMPDEST PUSH1 0x40 MLOAD DUP1 SWAP2 SUB SWAP1 RETURN JUMPDEST PUSH2 0x21E PUSH2 0x631 JUMP JUMPDEST STOP JUMPDEST CALLVALUE DUP1 ISZERO PUSH2 0x22C JUMPI PUSH1 0x0 DUP1 REVERT JUMPDEST POP PUSH2 0x247 PUSH1 0x4 DUP1 CALLDATASIZE SUB DUP2 ADD SWAP1 PUSH2 0x242 SWAP2 SWAP1 PUSH2 0x869 JUMP JUMPDEST PUSH2 0x6B1 JUMP JUMPDEST STOP JUMPDEST PUSH1 0x0 DUP1 SLOAD SWAP1 PUSH2 0x100 EXP SWAP1 DIV PUSH20 0xFFFFFFFFFFFFFFFFFFFFFFFFFFFFFFFFFFFFFFFF AND PUSH20 0xFFFFFFFFFFFFFFFFFFFFFFFFFFFFFFFFFFFFFFFF AND CALLER PUSH20 0xFFFFFFFFFFFFFFFFFFFFFFFFFFFFFFFFFFFFFFFF AND EQ PUSH2 0x2A1 JUMPI PUSH1 0x0 DUP1 REVERT JUMPDEST PUSH1 0x0 PUSH1 0x2 DUP3 DUP2 SLOAD DUP2 LT PUSH2 0x2B7 JUMPI PUSH2 0x2B6 PUSH2 0xCD9 JUMP JUMPDEST JUMPDEST SWAP1 PUSH1 0x0 MSTORE PUSH1 0x20 PUSH1 0x0 KECCAK256 SWAP1 PUSH1 0x6 MUL ADD SWAP1 POP PUSH1 0x2 PUSH1 0x4 SLOAD PUSH2 0x2D6 SWAP2 SWAP1 PUSH2 0xD66 JUMP JUMPDEST DUP2 PUSH1 0x3 ADD SLOAD GT PUSH2 0x2E5 JUMPI PUSH1 0x0 DUP1 REVERT JUMPDEST DUP1 PUSH1 0x5 ADD PUSH1 0x0 SWAP1 SLOAD SWAP1 PUSH2 0x100 EXP SWAP1 DIV PUSH1 0xFF AND ISZERO PUSH2 0x301 JUMPI PUSH1 0x0 DUP1 REVERT JUMPDEST DUP1 PUSH1 0x2 ADD PUSH1 0x0 SWAP1 SLOAD SWAP1 PUSH2 0x100 EXP SWAP1 DIV PUSH20 0xFFFFFFFFFFFFFFFFFFFFFFFFFFFFFFFFFFFFFFFF AND PUSH20 0xFFFFFFFFFFFFFFFFFFFFFFFFFFFFFFFFFFFFFFFF AND PUSH2 0x8FC DUP3 PUSH1 0x1 ADD SLOAD SWAP1 DUP2 ISZERO MUL SWAP1 PUSH1 0x40 MLOAD PUSH1 0x0 PUSH1 0x40 MLOAD DUP1 DUP4 SUB DUP2 DUP6 DUP9 DUP9 CALL SWAP4 POP POP POP POP ISZERO DUP1 ISZERO PUSH2 0x36F JUMPI RETURNDATASIZE PUSH1 0x0 DUP1 RETURNDATACOPY RETURNDATASIZE PUSH1 0x0 REVERT JUMPDEST POP PUSH1 0x1 DUP2 PUSH1 0x5 ADD PUSH1 0x0 PUSH2 0x100 EXP DUP2 SLOAD DUP2 PUSH1 0xFF MUL NOT AND SWAP1 DUP4 ISZERO ISZERO MUL OR SWAP1 SSTORE POP POP POP JUMP JUMPDEST PUSH1 0x3 PUSH1 0x20 MSTORE DUP1 PUSH1 0x0 MSTORE PUSH1 0x40 PUSH1 0x0 KECCAK256 PUSH1 0x0 SWAP2 POP SLOAD SWAP1 PUSH2 0x100 EXP SWAP1 DIV PUSH1 0xFF AND DUP2 JUMP JUMPDEST PUSH1 0x0 PUSH1 0x2 DUP1 SLOAD SWAP1 POP SWAP1 POP SWAP1 JUMP JUMPDEST PUSH1 0x0 DUP1 PUSH1 0x0 DUP1 PUSH1 0x0 PUSH1 0x1 SLOAD SELFBALANCE PUSH1 0x2 DUP1 SLOAD SWAP1 POP PUSH1 0x4 SLOAD PUSH1 0x0 DUP1 SLOAD SWAP1 PUSH2 0x100 EXP SWAP1 DIV PUSH20 0xFFFFFFFFFFFFFFFFFFFFFFFFFFFFFFFFFFFFFFFF AND SWAP5 POP SWAP5 POP SWAP5 POP SWAP5 POP SWAP5 POP SWAP1 SWAP2 SWAP3 SWAP4 SWAP5 JUMP JUMPDEST PUSH1 0x0 DUP1 SLOAD SWAP1 PUSH2 0x100 EXP SWAP1 DIV PUSH20 0xFFFFFFFFFFFFFFFFFFFFFFFFFFFFFFFFFFFFFFFF AND DUP2 JUMP JUMPDEST PUSH1 0x2 DUP2 DUP2 SLOAD DUP2 LT PUSH2 0x439 JUMPI PUSH1 0x0 DUP1 REVERT JUMPDEST SWAP1 PUSH1 0x0 MSTORE PUSH1 0x20 PUSH1 0x0 KECCAK256 SWAP1 PUSH1 0x6 MUL ADD PUSH1 0x0 SWAP2 POP SWAP1 POP DUP1 PUSH1 0x0 ADD DUP1 SLOAD PUSH2 0x45C SWAP1 PUSH2 0xDC6 JUMP JUMPDEST DUP1 PUSH1 0x1F ADD PUSH1 0x20 DUP1 SWAP2 DIV MUL PUSH1 0x20 ADD PUSH1 0x40 MLOAD SWAP1 DUP2 ADD PUSH1 0x40 MSTORE DUP1 SWAP3 SWAP2 SWAP1 DUP2 DUP2 MSTORE PUSH1 0x20 ADD DUP3 DUP1 SLOAD PUSH2 0x488 SWAP1 PUSH2 0xDC6 JUMP JUMPDEST DUP1 ISZERO PUSH2 0x4D5 JUMPI DUP1 PUSH1 0x1F LT PUSH2 0x4AA JUMPI PUSH2 0x100 DUP1 DUP4 SLOAD DIV MUL DUP4 MSTORE SWAP2 PUSH1 0x20 ADD SWAP2 PUSH2 0x4D5 JUMP JUMPDEST DUP3 ADD SWAP2 SWAP1 PUSH1 0x0 MSTORE PUSH1 0x20 PUSH1 0x0 KECCAK256 SWAP1 JUMPDEST DUP2 SLOAD DUP2 MSTORE SWAP1 PUSH1 0x1 ADD SWAP1 PUSH1 0x20 ADD DUP1 DUP4 GT PUSH2 0x4B8 JUMPI DUP3 SWAP1 SUB PUSH1 0x1F AND DUP3 ADD SWAP2 JUMPDEST POP POP POP POP POP SWAP1 DUP1 PUSH1 0x1 ADD SLOAD SWAP1 DUP1 PUSH1 0x2 ADD PUSH1 0x0 SWAP1 SLOAD SWAP1 PUSH2 0x100 EXP SWAP1 DIV PUSH20 0xFFFFFFFFFFFFFFFFFFFFFFFFFFFFFFFFFFFFFFFF AND SWAP1 DUP1 PUSH1 0x3 ADD SLOAD SWAP1 DUP1 PUSH1 0x5 ADD PUSH1 0x0 SWAP1 SLOAD SWAP1 PUSH2 0x100 EXP SWAP1 DIV PUSH1 0xFF AND SWAP1 POP DUP6 JUMP JUMPDEST PUSH1 0x0 DUP1 SLOAD SWAP1 PUSH2 0x100 EXP SWAP1 DIV PUSH20 0xFFFFFFFFFFFFFFFFFFFFFFFFFFFFFFFFFFFFFFFF AND PUSH20 0xFFFFFFFFFFFFFFFFFFFFFFFFFFFFFFFFFFFFFFFF AND CALLER PUSH20 0xFFFFFFFFFFFFFFFFFFFFFFFFFFFFFFFFFFFFFFFF AND EQ PUSH2 0x57C JUMPI PUSH1 0x0 DUP1 REVERT JUMPDEST PUSH1 0x0 PUSH1 0x2 PUSH1 0x1 DUP2 PUSH1 0x1 DUP2 SLOAD ADD DUP1 DUP3 SSTORE DUP1 SWAP2 POP POP SUB SWAP1 PUSH1 0x0 MSTORE PUSH1 0x20 PUSH1 0x0 KECCAK256 SWAP1 PUSH1 0x6 MUL ADD SWAP1 POP DUP4 DUP2 PUSH1 0x0 ADD SWAP1 DUP2 PUSH2 0x5B1 SWAP2 SWAP1 PUSH2 0xFA3 JUMP JUMPDEST POP DUP3 DUP2 PUSH1 0x1 ADD DUP2 SWAP1 SSTORE POP DUP2 DUP2 PUSH1 0x2 ADD PUSH1 0x0 PUSH2 0x100 EXP DUP2 SLOAD DUP2 PUSH20 0xFFFFFFFFFFFFFFFFFFFFFFFFFFFFFFFFFFFFFFFF MUL NOT AND SWAP1 DUP4 PUSH20 0xFFFFFFFFFFFFFFFFFFFFFFFFFFFFFFFFFFFFFFFF AND MUL OR SWAP1 SSTORE POP PUSH1 0x0 DUP2 PUSH1 0x5 ADD PUSH1 0x0 PUSH2 0x100 EXP DUP2 SLOAD DUP2 PUSH1 0xFF MUL NOT AND SWAP1 DUP4 ISZERO ISZERO MUL OR SWAP1 SSTORE POP PUSH1 0x0 DUP2 PUSH1 0x3 ADD DUP2 SWAP1 SSTORE POP POP POP POP POP JUMP JUMPDEST PUSH1 0x1 SLOAD DUP2 JUMP JUMPDEST PUSH1 0x1 SLOAD CALLVALUE GT PUSH2 0x63F JUMPI PUSH1 0x0 DUP1 REVERT JUMPDEST PUSH1 0x1 PUSH1 0x3 PUSH1 0x0 CALLER PUSH20 0xFFFFFFFFFFFFFFFFFFFFFFFFFFFFFFFFFFFFFFFF AND PUSH20 0xFFFFFFFFFFFFFFFFFFFFFFFFFFFFFFFFFFFFFFFF AND DUP2 MSTORE PUSH1 0x20 ADD SWAP1 DUP2 MSTORE PUSH1 0x20 ADD PUSH1 0x0 KECCAK256 PUSH1 0x0 PUSH2 0x100 EXP DUP2 SLOAD DUP2 PUSH1 0xFF MUL NOT AND SWAP1 DUP4 ISZERO ISZERO MUL OR SWAP1 SSTORE POP PUSH1 0x4 PUSH1 0x0 DUP2 SLOAD DUP1 SWAP3 SWAP2 SWAP1 PUSH2 0x6AA SWAP1 PUSH2 0x1075 JUMP JUMPDEST SWAP2 SWAP1 POP SSTORE POP JUMP JUMPDEST PUSH1 0x0 PUSH1 0x2 DUP3 DUP2 SLOAD DUP2 LT PUSH2 0x6C7 JUMPI PUSH2 0x6C6 PUSH2 0xCD9 JUMP JUMPDEST JUMPDEST SWAP1 PUSH1 0x0 MSTORE PUSH1 0x20 PUSH1 0x0 KECCAK256 SWAP1 PUSH1 0x6 MUL ADD SWAP1 POP PUSH1 0x3 PUSH1 0x0 CALLER PUSH20 0xFFFFFFFFFFFFFFFFFFFFFFFFFFFFFFFFFFFFFFFF AND PUSH20 0xFFFFFFFFFFFFFFFFFFFFFFFFFFFFFFFFFFFFFFFF AND DUP2 MSTORE PUSH1 0x20 ADD SWAP1 DUP2 MSTORE PUSH1 0x20 ADD PUSH1 0x0 KECCAK256 PUSH1 0x0 SWAP1 SLOAD SWAP1 PUSH2 0x100 EXP SWAP1 DIV PUSH1 0xFF AND PUSH2 0x72D JUMPI PUSH1 0x0 DUP1 REVERT JUMPDEST PUSH1 0x2 DUP3 DUP2 SLOAD DUP2 LT PUSH2 0x741 JUMPI PUSH2 0x740 PUSH2 0xCD9 JUMP JUMPDEST JUMPDEST SWAP1 PUSH1 0x0 MSTORE PUSH1 0x20 PUSH1 0x0 KECCAK256 SWAP1 PUSH1 0x6 MUL ADD PUSH1 0x4 ADD PUSH1 0x0 CALLER PUSH20 0xFFFFFFFFFFFFFFFFFFFFFFFFFFFFFFFFFFFFFFFF AND PUSH20 0xFFFFFFFFFFFFFFFFFFFFFFFFFFFFFFFFFFFFFFFF AND DUP2 MSTORE PUSH1 0x20 ADD SWAP1 DUP2 MSTORE PUSH1 0x20 ADD PUSH1 0x0 KECCAK256 PUSH1 0x0 SWAP1 SLOAD SWAP1 PUSH2 0x100 EXP SWAP1 DIV PUSH1 0xFF AND ISZERO PUSH2 0x7A7 JUMPI PUSH1 0x0 DUP1 REVERT JUMPDEST PUSH1 0x1 DUP2 PUSH1 0x4 ADD PUSH1 0x0 CALLER PUSH20 0xFFFFFFFFFFFFFFFFFFFFFFFFFFFFFFFFFFFFFFFF AND PUSH20 0xFFFFFFFFFFFFFFFFFFFFFFFFFFFFFFFFFFFFFFFF AND DUP2 MSTORE PUSH1 0x20 ADD SWAP1 DUP2 MSTORE PUSH1 0x20 ADD PUSH1 0x0 KECCAK256 PUSH1 0x0 PUSH2 0x100 EXP DUP2 SLOAD DUP2 PUSH1 0xFF MUL NOT AND SWAP1 DUP4 ISZERO ISZERO MUL OR SWAP1 SSTORE POP DUP1 PUSH1 0x3 ADD PUSH1 0x0 DUP2 SLOAD DUP1 SWAP3 SWAP2 SWAP1 PUSH2 0x816 SWAP1 PUSH2 0x1075 JUMP JUMPDEST SWAP2 SWAP1 POP SSTORE POP POP POP JUMP JUMPDEST PUSH1 0x0 PUSH1 0x40 MLOAD SWAP1 POP SWAP1 JUMP JUMPDEST PUSH1 0x0 DUP1 REVERT JUMPDEST PUSH1 0x0 DUP1 REVERT JUMPDEST PUSH1 0x0 DUP2 SWAP1 POP SWAP2 SWAP1 POP JUMP JUMPDEST PUSH2 0x846 DUP2 PUSH2 0x833 JUMP JUMPDEST DUP2 EQ PUSH2 0x851 JUMPI PUSH1 0x0 DUP1 REVERT JUMPDEST POP JUMP JUMPDEST PUSH1 0x0 DUP2 CALLDATALOAD SWAP1 POP PUSH2 0x863 DUP2 PUSH2 0x83D JUMP JUMPDEST SWAP3 SWAP2 POP POP JUMP JUMPDEST PUSH1 0x0 PUSH1 0x20 DUP3 DUP5 SUB SLT ISZERO PUSH2 0x87F JUMPI PUSH2 0x87E PUSH2 0x829 JUMP JUMPDEST JUMPDEST PUSH1 0x0 PUSH2 0x88D DUP5 DUP3 DUP6 ADD PUSH2 0x854 JUMP JUMPDEST SWAP2 POP POP SWAP3 SWAP2 POP POP JUMP JUMPDEST PUSH1 0x0 PUSH20 0xFFFFFFFFFFFFFFFFFFFFFFFFFFFFFFFFFFFFFFFF DUP3 AND SWAP1 POP SWAP2 SWAP1 POP JUMP JUMPDEST PUSH1 0x0 PUSH2 0x8C1 DUP3 PUSH2 0x896 JUMP JUMPDEST SWAP1 POP SWAP2 SWAP1 POP JUMP JUMPDEST PUSH2 0x8D1 DUP2 PUSH2 0x8B6 JUMP JUMPDEST DUP2 EQ PUSH2 0x8DC JUMPI PUSH1 0x0 DUP1 REVERT JUMPDEST POP JUMP JUMPDEST PUSH1 0x0 DUP2 CALLDATALOAD SWAP1 POP PUSH2 0x8EE DUP2 PUSH2 0x8C8 JUMP JUMPDEST SWAP3 SWAP2 POP POP JUMP JUMPDEST PUSH1 0x0 PUSH1 0x20 DUP3 DUP5 SUB SLT ISZERO PUSH2 0x90A JUMPI PUSH2 0x909 PUSH2 0x829 JUMP JUMPDEST JUMPDEST PUSH1 0x0 PUSH2 0x918 DUP5 DUP3 DUP6 ADD PUSH2 0x8DF JUMP JUMPDEST SWAP2 POP POP SWAP3 SWAP2 POP POP JUMP JUMPDEST PUSH1 0x0 DUP2 ISZERO ISZERO SWAP1 POP SWAP2 SWAP1 POP JUMP JUMPDEST PUSH2 0x936 DUP2 PUSH2 0x921 JUMP JUMPDEST DUP3 MSTORE POP POP JUMP JUMPDEST PUSH1 0x0 PUSH1 0x20 DUP3 ADD SWAP1 POP PUSH2 0x951 PUSH1 0x0 DUP4 ADD DUP5 PUSH2 0x92D JUMP JUMPDEST SWAP3 SWAP2 POP POP JUMP JUMPDEST PUSH2 0x960 DUP2 PUSH2 0x833 JUMP JUMPDEST DUP3 MSTORE POP POP JUMP JUMPDEST PUSH1 0x0 PUSH1 0x20 DUP3 ADD SWAP1 POP PUSH2 0x97B PUSH1 0x0 DUP4 ADD DUP5 PUSH2 0x957 JUMP JUMPDEST SWAP3 SWAP2 POP POP JUMP JUMPDEST PUSH2 0x98A DUP2 PUSH2 0x8B6 JUMP JUMPDEST DUP3 MSTORE POP POP JUMP JUMPDEST PUSH1 0x0 PUSH1 0xA0 DUP3 ADD SWAP1 POP PUSH2 0x9A5 PUSH1 0x0 DUP4 ADD DUP9 PUSH2 0x957 JUMP JUMPDEST PUSH2 0x9B2 PUSH1 0x20 DUP4 ADD DUP8 PUSH2 0x957 JUMP JUMPDEST PUSH2 0x9BF PUSH1 0x40 DUP4 ADD DUP7 PUSH2 0x957 JUMP JUMPDEST PUSH2 0x9CC PUSH1 0x60 DUP4 ADD DUP6 PUSH2 0x957 JUMP JUMPDEST PUSH2 0x9D9 PUSH1 0x80 DUP4 ADD DUP5 PUSH2 0x981 JUMP JUMPDEST SWAP7 SWAP6 POP POP POP POP POP POP JUMP JUMPDEST PUSH1 0x0 PUSH1 0x20 DUP3 ADD SWAP1 POP PUSH2 0x9F8 PUSH1 0x0 DUP4 ADD DUP5 PUSH2 0x981 JUMP JUMPDEST SWAP3 SWAP2 POP POP JUMP JUMPDEST PUSH1 0x0 DUP2 MLOAD SWAP1 POP SWAP2 SWAP1 POP JUMP JUMPDEST PUSH1 0x0 DUP3 DUP3 MSTORE PUSH1 0x20 DUP3 ADD SWAP1 POP SWAP3 SWAP2 POP POP JUMP JUMPDEST PUSH1 0x0 JUMPDEST DUP4 DUP2 LT ISZERO PUSH2 0xA38 JUMPI DUP1 DUP3 ADD MLOAD DUP2 DUP5 ADD MSTORE PUSH1 0x20 DUP2 ADD SWAP1 POP PUSH2 0xA1D JUMP JUMPDEST PUSH1 0x0 DUP5 DUP5 ADD MSTORE POP POP POP POP JUMP JUMPDEST PUSH1 0x0 PUSH1 0x1F NOT PUSH1 0x1F DUP4 ADD AND SWAP1 POP SWAP2 SWAP1 POP JUMP JUMPDEST PUSH1 0x0 PUSH2 0xA60 DUP3 PUSH2 0x9FE JUMP JUMPDEST PUSH2 0xA6A DUP2 DUP6 PUSH2 0xA09 JUMP JUMPDEST SWAP4 POP PUSH2 0xA7A DUP2 DUP6 PUSH1 0x20 DUP7 ADD PUSH2 0xA1A JUMP JUMPDEST PUSH2 0xA83 DUP2 PUSH2 0xA44 JUMP JUMPDEST DUP5 ADD SWAP2 POP POP SWAP3 SWAP2 POP POP JUMP JUMPDEST PUSH1 0x0 PUSH2 0xA99 DUP3 PUSH2 0x896 JUMP JUMPDEST SWAP1 POP SWAP2 SWAP1 POP JUMP JUMPDEST PUSH2 0xAA9 DUP2 PUSH2 0xA8E JUMP JUMPDEST DUP3 MSTORE POP POP JUMP JUMPDEST PUSH1 0x0 PUSH1 0xA0 DUP3 ADD SWAP1 POP DUP2 DUP2 SUB PUSH1 0x0 DUP4 ADD MSTORE PUSH2 0xAC9 DUP2 DUP9 PUSH2 0xA55 JUMP JUMPDEST SWAP1 POP PUSH2 0xAD8 PUSH1 0x20 DUP4 ADD DUP8 PUSH2 0x957 JUMP JUMPDEST PUSH2 0xAE5 PUSH1 0x40 DUP4 ADD DUP7 PUSH2 0xAA0 JUMP JUMPDEST PUSH2 0xAF2 PUSH1 0x60 DUP4 ADD DUP6 PUSH2 0x957 JUMP JUMPDEST PUSH2 0xAFF PUSH1 0x80 DUP4 ADD DUP5 PUSH2 0x92D JUMP JUMPDEST SWAP7 SWAP6 POP POP POP POP POP POP JUMP JUMPDEST PUSH1 0x0 DUP1 REVERT JUMPDEST PUSH1 0x0 DUP1 REVERT JUMPDEST PUSH32 0x4E487B7100000000000000000000000000000000000000000000000000000000 PUSH1 0x0 MSTORE PUSH1 0x41 PUSH1 0x4 MSTORE PUSH1 0x24 PUSH1 0x0 REVERT JUMPDEST PUSH2 0xB4B DUP3 PUSH2 0xA44 JUMP JUMPDEST DUP2 ADD DUP2 DUP2 LT PUSH8 0xFFFFFFFFFFFFFFFF DUP3 GT OR ISZERO PUSH2 0xB6A JUMPI PUSH2 0xB69 PUSH2 0xB13 JUMP JUMPDEST JUMPDEST DUP1 PUSH1 0x40 MSTORE POP POP POP JUMP JUMPDEST PUSH1 0x0 PUSH2 0xB7D PUSH2 0x81F JUMP JUMPDEST SWAP1 POP PUSH2 0xB89 DUP3 DUP3 PUSH2 0xB42 JUMP JUMPDEST SWAP2 SWAP1 POP JUMP JUMPDEST PUSH1 0x0 PUSH8 0xFFFFFFFFFFFFFFFF DUP3 GT ISZERO PUSH2 0xBA9 JUMPI PUSH2 0xBA8 PUSH2 0xB13 JUMP JUMPDEST JUMPDEST PUSH2 0xBB2 DUP3 PUSH2 0xA44 JUMP JUMPDEST SWAP1 POP PUSH1 0x20 DUP2 ADD SWAP1 POP SWAP2 SWAP1 POP JUMP JUMPDEST DUP3 DUP2 DUP4 CALLDATACOPY PUSH1 0x0 DUP4 DUP4 ADD MSTORE POP POP POP JUMP JUMPDEST PUSH1 0x0 PUSH2 0xBE1 PUSH2 0xBDC DUP5 PUSH2 0xB8E JUMP JUMPDEST PUSH2 0xB73 JUMP JUMPDEST SWAP1 POP DUP3 DUP2 MSTORE PUSH1 0x20 DUP2 ADD DUP5 DUP5 DUP5 ADD GT ISZERO PUSH2 0xBFD JUMPI PUSH2 0xBFC PUSH2 0xB0E JUMP JUMPDEST JUMPDEST PUSH2 0xC08 DUP5 DUP3 DUP6 PUSH2 0xBBF JUMP JUMPDEST POP SWAP4 SWAP3 POP POP POP JUMP JUMPDEST PUSH1 0x0 DUP3 PUSH1 0x1F DUP4 ADD SLT PUSH2 0xC25 JUMPI PUSH2 0xC24 PUSH2 0xB09 JUMP JUMPDEST JUMPDEST DUP2 CALLDATALOAD PUSH2 0xC35 DUP5 DUP3 PUSH1 0x20 DUP7 ADD PUSH2 0xBCE JUMP JUMPDEST SWAP2 POP POP SWAP3 SWAP2 POP POP JUMP JUMPDEST PUSH2 0xC47 DUP2 PUSH2 0xA8E JUMP JUMPDEST DUP2 EQ PUSH2 0xC52 JUMPI PUSH1 0x0 DUP1 REVERT JUMPDEST POP JUMP JUMPDEST PUSH1 0x0 DUP2 CALLDATALOAD SWAP1 POP PUSH2 0xC64 DUP2 PUSH2 0xC3E JUMP JUMPDEST SWAP3 SWAP2 POP POP JUMP JUMPDEST PUSH1 0x0 DUP1 PUSH1 0x0 PUSH1 0x60 DUP5 DUP7 SUB SLT ISZERO PUSH2 0xC83 JUMPI PUSH2 0xC82 PUSH2 0x829 JUMP JUMPDEST JUMPDEST PUSH1 0x0 DUP5 ADD CALLDATALOAD PUSH8 0xFFFFFFFFFFFFFFFF DUP2 GT ISZERO PUSH2 0xCA1 JUMPI PUSH2 0xCA0 PUSH2 0x82E JUMP JUMPDEST JUMPDEST PUSH2 0xCAD DUP7 DUP3 DUP8 ADD PUSH2 0xC10 JUMP JUMPDEST SWAP4 POP POP PUSH1 0x20 PUSH2 0xCBE DUP7 DUP3 DUP8 ADD PUSH2 0x854 JUMP JUMPDEST SWAP3 POP POP PUSH1 0x40 PUSH2 0xCCF DUP7 DUP3 DUP8 ADD PUSH2 0xC55 JUMP JUMPDEST SWAP2 POP POP SWAP3 POP SWAP3 POP SWAP3 JUMP JUMPDEST PUSH32 0x4E487B7100000000000000000000000000000000000000000000000000000000 PUSH1 0x0 MSTORE PUSH1 0x32 PUSH1 0x4 MSTORE PUSH1 0x24 PUSH1 0x0 REVERT JUMPDEST PUSH32 0x4E487B7100000000000000000000000000000000000000000000000000000000 PUSH1 0x0 MSTORE PUSH1 0x12 PUSH1 0x4 MSTORE PUSH1 0x24 PUSH1 0x0 REVERT JUMPDEST PUSH32 0x4E487B7100000000000000000000000000000000000000000000000000000000 PUSH1 0x0 MSTORE PUSH1 0x11 PUSH1 0x4 MSTORE PUSH1 0x24 PUSH1 0x0 REVERT JUMPDEST PUSH1 0x0 PUSH2 0xD71 DUP3 PUSH2 0x833 JUMP JUMPDEST SWAP2 POP PUSH2 0xD7C DUP4 PUSH2 0x833 JUMP JUMPDEST SWAP3 POP DUP3 PUSH2 0xD8C JUMPI PUSH2 0xD8B PUSH2 0xD08 JUMP JUMPDEST JUMPDEST DUP3 DUP3 DIV SWAP1 POP SWAP3 SWAP2 POP POP JUMP JUMPDEST PUSH32 0x4E487B7100000000000000000000000000000000000000000000000000000000 PUSH1 0x0 MSTORE PUSH1 0x22 PUSH1 0x4 MSTORE PUSH1 0x24 PUSH1 0x0 REVERT JUMPDEST PUSH1 0x0 PUSH1 0x2 DUP3 DIV SWAP1 POP PUSH1 0x1 DUP3 AND DUP1 PUSH2 0xDDE JUMPI PUSH1 0x7F DUP3 AND SWAP2 POP JUMPDEST PUSH1 0x20 DUP3 LT DUP2 SUB PUSH2 0xDF1 JUMPI PUSH2 0xDF0 PUSH2 0xD97 JUMP JUMPDEST JUMPDEST POP SWAP2 SWAP1 POP JUMP JUMPDEST PUSH1 0x0 DUP2 SWAP1 POP DUP2 PUSH1 0x0 MSTORE PUSH1 0x20 PUSH1 0x0 KECCAK256 SWAP1 POP SWAP2 SWAP1 POP JUMP JUMPDEST PUSH1 0x0 PUSH1 0x20 PUSH1 0x1F DUP4 ADD DIV SWAP1 POP SWAP2 SWAP1 POP JUMP JUMPDEST PUSH1 0x0 DUP3 DUP3 SHL SWAP1 POP SWAP3 SWAP2 POP POP JUMP JUMPDEST PUSH1 0x0 PUSH1 0x8 DUP4 MUL PUSH2 0xE59 PUSH32 0xFFFFFFFFFFFFFFFFFFFFFFFFFFFFFFFFFFFFFFFFFFFFFFFFFFFFFFFFFFFFFFFF DUP3 PUSH2 0xE1C JUMP JUMPDEST PUSH2 0xE63 DUP7 DUP4 PUSH2 0xE1C JUMP JUMPDEST SWAP6 POP DUP1 NOT DUP5 AND SWAP4 POP DUP1 DUP7 AND DUP5 OR SWAP3 POP POP POP SWAP4 SWAP3 POP POP POP JUMP JUMPDEST PUSH1 0x0 DUP2 SWAP1 POP SWAP2 SWAP1 POP JUMP JUMPDEST PUSH1 0x0 PUSH2 0xEA0 PUSH2 0xE9B PUSH2 0xE96 DUP5 PUSH2 0x833 JUMP JUMPDEST PUSH2 0xE7B JUMP JUMPDEST PUSH2 0x833 JUMP JUMPDEST SWAP1 POP SWAP2 SWAP1 POP JUMP JUMPDEST PUSH1 0x0 DUP2 SWAP1 POP SWAP2 SWAP1 POP JUMP JUMPDEST PUSH2 0xEBA DUP4 PUSH2 0xE85 JUMP JUMPDEST PUSH2 0xECE PUSH2 0xEC6 DUP3 PUSH2 0xEA7 JUMP JUMPDEST DUP5 DUP5 SLOAD PUSH2 0xE29 JUMP JUMPDEST DUP3 SSTORE POP POP POP POP JUMP JUMPDEST PUSH1 0x0 SWAP1 JUMP JUMPDEST PUSH2 0xEE3 PUSH2 0xED6 JUMP JUMPDEST PUSH2 0xEEE DUP2 DUP5 DUP5 PUSH2 0xEB1 JUMP JUMPDEST POP POP POP JUMP JUMPDEST JUMPDEST DUP2 DUP2 LT ISZERO PUSH2 0xF12 JUMPI PUSH2 0xF07 PUSH1 0x0 DUP3 PUSH2 0xEDB JUMP JUMPDEST PUSH1 0x1 DUP2 ADD SWAP1 POP PUSH2 0xEF4 JUMP JUMPDEST POP POP JUMP JUMPDEST PUSH1 0x1F DUP3 GT ISZERO PUSH2 0xF57 JUMPI PUSH2 0xF28 DUP2 PUSH2 0xDF7 JUMP JUMPDEST PUSH2 0xF31 DUP5 PUSH2 0xE0C JUMP JUMPDEST DUP2 ADD PUSH1 0x20 DUP6 LT ISZERO PUSH2 0xF40 JUMPI DUP2 SWAP1 POP JUMPDEST PUSH2 0xF54 PUSH2 0xF4C DUP6 PUSH2 0xE0C JUMP JUMPDEST DUP4 ADD DUP3 PUSH2 0xEF3 JUMP JUMPDEST POP POP JUMPDEST POP POP POP JUMP JUMPDEST PUSH1 0x0 DUP3 DUP3 SHR SWAP1 POP SWAP3 SWAP2 POP POP JUMP JUMPDEST PUSH1 0x0 PUSH2 0xF7A PUSH1 0x0 NOT DUP5 PUSH1 0x8 MUL PUSH2 0xF5C JUMP JUMPDEST NOT DUP1 DUP4 AND SWAP2 POP POP SWAP3 SWAP2 POP POP JUMP JUMPDEST PUSH1 0x0 PUSH2 0xF93 DUP4 DUP4 PUSH2 0xF69 JUMP JUMPDEST SWAP2 POP DUP3 PUSH1 0x2 MUL DUP3 OR SWAP1 POP SWAP3 SWAP2 POP POP JUMP JUMPDEST PUSH2 0xFAC DUP3 PUSH2 0x9FE JUMP JUMPDEST PUSH8 0xFFFFFFFFFFFFFFFF DUP2 GT ISZERO PUSH2 0xFC5 JUMPI PUSH2 0xFC4 PUSH2 0xB13 JUMP JUMPDEST JUMPDEST PUSH2 0xFCF DUP3 SLOAD PUSH2 0xDC6 JUMP JUMPDEST PUSH2 0xFDA DUP3 DUP3 DUP6 PUSH2 0xF16 JUMP JUMPDEST PUSH1 0x0 PUSH1 0x20 SWAP1 POP PUSH1 0x1F DUP4 GT PUSH1 0x1 DUP2 EQ PUSH2 0x100D JUMPI PUSH1 0x0 DUP5 ISZERO PUSH2 0xFFB JUMPI DUP3 DUP8 ADD MLOAD SWAP1 POP JUMPDEST PUSH2 0x1005 DUP6 DUP3 PUSH2 0xF87 JUMP JUMPDEST DUP7 SSTORE POP PUSH2 0x106D JUMP JUMPDEST PUSH1 0x1F NOT DUP5 AND PUSH2 0x101B DUP7 PUSH2 0xDF7 JUMP JUMPDEST PUSH1 0x0 JUMPDEST DUP3 DUP2 LT ISZERO PUSH2 0x1043 JUMPI DUP5 DUP10 ADD MLOAD DUP3 SSTORE PUSH1 0x1 DUP3 ADD SWAP2 POP PUSH1 0x20 DUP6 ADD SWAP5 POP PUSH1 0x20 DUP2 ADD SWAP1 POP PUSH2 0x101E JUMP JUMPDEST DUP7 DUP4 LT ISZERO PUSH2 0x1060 JUMPI DUP5 DUP10 ADD MLOAD PUSH2 0x105C PUSH1 0x1F DUP10 AND DUP3 PUSH2 0xF69 JUMP JUMPDEST DUP4 SSTORE POP JUMPDEST PUSH1 0x1 PUSH1 0x2 DUP9 MUL ADD DUP9 SSTORE POP POP POP JUMPDEST POP POP POP POP POP POP JUMP JUMPDEST PUSH1 0x0 PUSH2 0x1080 DUP3 PUSH2 0x833 JUMP JUMPDEST SWAP2 POP PUSH32 0xFFFFFFFFFFFFFFFFFFFFFFFFFFFFFFFFFFFFFFFFFFFFFFFFFFFFFFFFFFFFFFFF DUP3 SUB PUSH2 0x10B2 JUMPI PUSH2 0x10B1 PUSH2 0xD37 JUMP JUMPDEST JUMPDEST PUSH1 0x1 DUP3 ADD SWAP1 POP SWAP2 SWAP1 POP JUMP INVALID LOG2 PUSH5 0x6970667358 0x22 SLT KECCAK256 0x1F PUSH3 0xBF3DDD GASLIMIT 0xFC 0xF7 SHL PUSH30 0xA36A76241FC0062AED424080F57E0C28E25088904C9664736F6C63430008 GT STOP CALLER "},"gasEstimates":{"creation":{"codeDepositCost":"867800","executionCost":"infinite","totalCost":"infinite"},"external":{"approveRequest(uint256)":"infinite","approvers(address)":"2868","contribute()":"51021","createRequest(string,uint256,address)":"infinite","finalizeRequest(uint256)":"infinite","getRequestsCount()":"2490","getSummary()":"infinite","manager()":"2600","minimumContribution()":"2473","requests(uint256)":"infinite"}},"methodIdentifiers":{"approveRequest(uint256)":"d7d1bbdb","approvers(address)":"0a144391","contribute()":"d7bb99ba","createRequest(string,uint256,address)":"8a9cfd55","finalizeRequest(uint256)":"03441006","getRequestsCount()":"3410452a","getSummary()":"4051ddac","manager()":"481c6a75","minimumContribution()":"937e09b1","requests(uint256)":"81d12c58"}},"storageLayout":{"storage":[{"astId":56,"contract":"Campaign.sol:Campaign","label":"manager","offset":0,"slot":"0","type":"t_address"},{"astId":58,"contract":"Campaign.sol:Campaign","label":"minimumContribution","offset":0,"slot":"1","type":"t_uint256"},{"astId":62,"contract":"Campaign.sol:Campaign","label":"requests","offset":0,"slot":"2","type":"t_array(t_struct(Request)54_storage)dyn_storage"},{"astId":66,"contract":"Campaign.sol:Campaign","label":"approvers","offset":0,"slot":"3","type":"t_mapping(t_address,t_bool)"},{"astId":68,"contract":"Campaign.sol:Campaign","label":"approversCount","offset":0,"slot":"4","type":"t_uint256"}],"types":{"t_address":{"encoding":"inplace","label":"address","numberOfBytes":"20"},"t_address_payable":{"encoding":"inplace","label":"address payable","numberOfBytes":"20"},"t_array(t_struct(Request)54_storage)dyn_storage":{"base":"t_struct(Request)54_storage","encoding":"dynamic_array","label":"struct Campaign.Request[]","numberOfBytes":"32"},"t_bool":{"encoding":"inplace","label":"bool","numberOfBytes":"1"},"t_mapping(t_address,t_bool)":{"encoding":"mapping","key":"t_address","label":"mapping(address => bool)","numberOfBytes":"32","value":"t_bool"},"t_string_storage":{"encoding":"bytes","label":"string","numberOfBytes":"32"},"t_struct(Request)54_storage":{"encoding":"inplace","label":"struct Campaign.Request","members":[{"astId":41,"contract":"Campaign.sol:Campaign","label":"description","offset":0,"slot":"0","type":"t_string_storage"},{"astId":43,"contract":"Campaign.sol:Campaign","label":"value","offset":0,"slot":"1","type":"t_uint256"},{"astId":45,"contract":"Campaign.sol:Campaign","label":"recipient","offset":0,"slot":"2","type":"t_address_payable"},{"astId":47,"contract":"Campaign.sol:Campaign","label":"approvalCount","offset":0,"slot":"3","type":"t_uint256"},{"astId":51,"contract":"Campaign.sol:Campaign","label":"approvals","offset":0,"slot":"4","type":"t_mapping(t_address,t_bool)"},{"astId":53,"contract":"Campaign.sol:Campaign","label":"complete","offset":0,"slot":"5","type":"t_bool"}],"numberOfBytes":"192"},"t_uint256":{"encoding":"inplace","label":"uint256","numberOfBytes":"32"}}},"userdoc":{"kind":"user","methods":{},"version":1}}