{"abi":[{"inputs":[{"internalType":"uint256","name":"minimum","type":"uint256"},{"internalType":"address","name":"creator","type":"address"}],"stateMutability":"nonpayable","type":"constructor"},{"inputs":[{"internalType":"uint256","name":"index","type":"uint256"}],"name":"approveRequest","outputs":[],"stateMutability":"nonpayable","type":"function"},{"inputs":[{"internalType":"address","name":"","type":"address"}],"name":"approvers","outputs":[{"internalType":"bool","name":"","type":"bool"}],"stateMutability":"view","type":"function"},{"inputs":[],"name":"contribute","outputs":[],"stateMutability":"payable","type":"function"},{"inputs":[{"internalType":"string","name":"description","type":"string"},{"internalType":"uint256","name":"value","type":"uint256"},{"internalType":"address payable","name":"recipient","type":"address"}],"name":"createRequest","outputs":[],"stateMutability":"nonpayable","type":"function"},{"inputs":[{"internalType":"uint256","name":"index","type":"uint256"}],"name":"finalizeRequest","outputs":[],"stateMutability":"nonpayable","type":"function"},{"inputs":[],"name":"manager","outputs":[{"internalType":"address","name":"","type":"address"}],"stateMutability":"view","type":"function"},{"inputs":[],"name":"minimumContribution","outputs":[{"internalType":"uint256","name":"","type":"uint256"}],"stateMutability":"view","type":"function"},{"inputs":[{"internalType":"uint256","name":"","type":"uint256"}],"name":"requests","outputs":[{"internalType":"string","name":"description","type":"string"},{"internalType":"uint256","name":"value","type":"uint256"},{"internalType":"address payable","name":"recipient","type":"address"},{"internalType":"uint256","name":"approvalCount","type":"uint256"},{"internalType":"bool","name":"complete","type":"bool"}],"stateMutability":"view","type":"function"}],"devdoc":{"kind":"dev","methods":{},"version":1},"evm":{"assembly":"    /* \"Campaign.sol\":389:2146  contract Campaign {... */\n  mstore(0x40, 0x80)\n    /* \"Campaign.sol\":902:1018  constructor(uint minimum, address creator) {... */\n  callvalue\n  dup1\n  iszero\n  tag_1\n  jumpi\n  0x00\n  dup1\n  revert\ntag_1:\n  pop\n  mload(0x40)\n  sub(codesize, bytecodeSize)\n  dup1\n  bytecodeSize\n  dup4\n  codecopy\n  dup2\n  dup2\n  add\n  0x40\n  mstore\n  dup2\n  add\n  swap1\n  tag_2\n  swap2\n  swap1\n  tag_3\n  jump\t// in\ntag_2:\n    /* \"Campaign.sol\":965:972  creator */\n  dup1\n    /* \"Campaign.sol\":955:962  manager */\n  0x00\n  dup1\n    /* \"Campaign.sol\":955:972  manager = creator */\n  0x0100\n  exp\n  dup2\n  sload\n  dup2\n  0xffffffffffffffffffffffffffffffffffffffff\n  mul\n  not\n  and\n  swap1\n  dup4\n  0xffffffffffffffffffffffffffffffffffffffff\n  and\n  mul\n  or\n  swap1\n  sstore\n  pop\n    /* \"Campaign.sol\":1004:1011  minimum */\n  dup2\n    /* \"Campaign.sol\":982:1001  minimumContribution */\n  0x01\n    /* \"Campaign.sol\":982:1011  minimumContribution = minimum */\n  dup2\n  swap1\n  sstore\n  pop\n    /* \"Campaign.sol\":902:1018  constructor(uint minimum, address creator) {... */\n  pop\n  pop\n    /* \"Campaign.sol\":389:2146  contract Campaign {... */\n  jump(tag_6)\n    /* \"#utility.yul\":88:205   */\ntag_8:\n    /* \"#utility.yul\":197:198   */\n  0x00\n    /* \"#utility.yul\":194:195   */\n  dup1\n    /* \"#utility.yul\":187:199   */\n  revert\n    /* \"#utility.yul\":334:411   */\ntag_10:\n    /* \"#utility.yul\":371:378   */\n  0x00\n    /* \"#utility.yul\":400:405   */\n  dup2\n    /* \"#utility.yul\":389:405   */\n  swap1\n  pop\n    /* \"#utility.yul\":334:411   */\n  swap2\n  swap1\n  pop\n  jump\t// out\n    /* \"#utility.yul\":417:539   */\ntag_11:\n    /* \"#utility.yul\":490:514   */\n  tag_23\n    /* \"#utility.yul\":508:513   */\n  dup2\n    /* \"#utility.yul\":490:514   */\n  tag_10\n  jump\t// in\ntag_23:\n    /* \"#utility.yul\":483:488   */\n  dup2\n    /* \"#utility.yul\":480:515   */\n  eq\n    /* \"#utility.yul\":470:533   */\n  tag_24\n  jumpi\n    /* \"#utility.yul\":529:530   */\n  0x00\n    /* \"#utility.yul\":526:527   */\n  dup1\n    /* \"#utility.yul\":519:531   */\n  revert\n    /* \"#utility.yul\":470:533   */\ntag_24:\n    /* \"#utility.yul\":417:539   */\n  pop\n  jump\t// out\n    /* \"#utility.yul\":545:688   */\ntag_12:\n    /* \"#utility.yul\":602:607   */\n  0x00\n    /* \"#utility.yul\":633:639   */\n  dup2\n    /* \"#utility.yul\":627:640   */\n  mload\n    /* \"#utility.yul\":618:640   */\n  swap1\n  pop\n    /* \"#utility.yul\":649:682   */\n  tag_26\n    /* \"#utility.yul\":676:681   */\n  dup2\n    /* \"#utility.yul\":649:682   */\n  tag_11\n  jump\t// in\ntag_26:\n    /* \"#utility.yul\":545:688   */\n  swap3\n  swap2\n  pop\n  pop\n  jump\t// out\n    /* \"#utility.yul\":694:820   */\ntag_13:\n    /* \"#utility.yul\":731:738   */\n  0x00\n    /* \"#utility.yul\":771:813   */\n  0xffffffffffffffffffffffffffffffffffffffff\n    /* \"#utility.yul\":764:769   */\n  dup3\n    /* \"#utility.yul\":760:814   */\n  and\n    /* \"#utility.yul\":749:814   */\n  swap1\n  pop\n    /* \"#utility.yul\":694:820   */\n  swap2\n  swap1\n  pop\n  jump\t// out\n    /* \"#utility.yul\":826:922   */\ntag_14:\n    /* \"#utility.yul\":863:870   */\n  0x00\n    /* \"#utility.yul\":892:916   */\n  tag_29\n    /* \"#utility.yul\":910:915   */\n  dup3\n    /* \"#utility.yul\":892:916   */\n  tag_13\n  jump\t// in\ntag_29:\n    /* \"#utility.yul\":881:916   */\n  swap1\n  pop\n    /* \"#utility.yul\":826:922   */\n  swap2\n  swap1\n  pop\n  jump\t// out\n    /* \"#utility.yul\":928:1050   */\ntag_15:\n    /* \"#utility.yul\":1001:1025   */\n  tag_31\n    /* \"#utility.yul\":1019:1024   */\n  dup2\n    /* \"#utility.yul\":1001:1025   */\n  tag_14\n  jump\t// in\ntag_31:\n    /* \"#utility.yul\":994:999   */\n  dup2\n    /* \"#utility.yul\":991:1026   */\n  eq\n    /* \"#utility.yul\":981:1044   */\n  tag_32\n  jumpi\n    /* \"#utility.yul\":1040:1041   */\n  0x00\n    /* \"#utility.yul\":1037:1038   */\n  dup1\n    /* \"#utility.yul\":1030:1042   */\n  revert\n    /* \"#utility.yul\":981:1044   */\ntag_32:\n    /* \"#utility.yul\":928:1050   */\n  pop\n  jump\t// out\n    /* \"#utility.yul\":1056:1199   */\ntag_16:\n    /* \"#utility.yul\":1113:1118   */\n  0x00\n    /* \"#utility.yul\":1144:1150   */\n  dup2\n    /* \"#utility.yul\":1138:1151   */\n  mload\n    /* \"#utility.yul\":1129:1151   */\n  swap1\n  pop\n    /* \"#utility.yul\":1160:1193   */\n  tag_34\n    /* \"#utility.yul\":1187:1192   */\n  dup2\n    /* \"#utility.yul\":1160:1193   */\n  tag_15\n  jump\t// in\ntag_34:\n    /* \"#utility.yul\":1056:1199   */\n  swap3\n  swap2\n  pop\n  pop\n  jump\t// out\n    /* \"#utility.yul\":1205:1712   */\ntag_3:\n    /* \"#utility.yul\":1284:1290   */\n  0x00\n    /* \"#utility.yul\":1292:1298   */\n  dup1\n    /* \"#utility.yul\":1341:1343   */\n  0x40\n    /* \"#utility.yul\":1329:1338   */\n  dup4\n    /* \"#utility.yul\":1320:1327   */\n  dup6\n    /* \"#utility.yul\":1316:1339   */\n  sub\n    /* \"#utility.yul\":1312:1344   */\n  slt\n    /* \"#utility.yul\":1309:1428   */\n  iszero\n  tag_36\n  jumpi\n    /* \"#utility.yul\":1347:1426   */\n  tag_37\n  tag_8\n  jump\t// in\ntag_37:\n    /* \"#utility.yul\":1309:1428   */\ntag_36:\n    /* \"#utility.yul\":1467:1468   */\n  0x00\n    /* \"#utility.yul\":1492:1556   */\n  tag_38\n    /* \"#utility.yul\":1548:1555   */\n  dup6\n    /* \"#utility.yul\":1539:1545   */\n  dup3\n    /* \"#utility.yul\":1528:1537   */\n  dup7\n    /* \"#utility.yul\":1524:1546   */\n  add\n    /* \"#utility.yul\":1492:1556   */\n  tag_12\n  jump\t// in\ntag_38:\n    /* \"#utility.yul\":1482:1556   */\n  swap3\n  pop\n    /* \"#utility.yul\":1438:1566   */\n  pop\n    /* \"#utility.yul\":1605:1607   */\n  0x20\n    /* \"#utility.yul\":1631:1695   */\n  tag_39\n    /* \"#utility.yul\":1687:1694   */\n  dup6\n    /* \"#utility.yul\":1678:1684   */\n  dup3\n    /* \"#utility.yul\":1667:1676   */\n  dup7\n    /* \"#utility.yul\":1663:1685   */\n  add\n    /* \"#utility.yul\":1631:1695   */\n  tag_16\n  jump\t// in\ntag_39:\n    /* \"#utility.yul\":1621:1695   */\n  swap2\n  pop\n    /* \"#utility.yul\":1576:1705   */\n  pop\n    /* \"#utility.yul\":1205:1712   */\n  swap3\n  pop\n  swap3\n  swap1\n  pop\n  jump\t// out\n    /* \"Campaign.sol\":389:2146  contract Campaign {... */\ntag_6:\n  dataSize(sub_0)\n  dup1\n  dataOffset(sub_0)\n  0x00\n  codecopy\n  0x00\n  return\nstop\n\nsub_0: assembly {\n        /* \"Campaign.sol\":389:2146  contract Campaign {... */\n      mstore(0x40, 0x80)\n      jumpi(tag_1, lt(calldatasize, 0x04))\n      shr(0xe0, calldataload(0x00))\n      dup1\n      0x8a9cfd55\n      gt\n      tag_10\n      jumpi\n      dup1\n      0x8a9cfd55\n      eq\n      tag_6\n      jumpi\n      dup1\n      0x937e09b1\n      eq\n      tag_7\n      jumpi\n      dup1\n      0xd7bb99ba\n      eq\n      tag_8\n      jumpi\n      dup1\n      0xd7d1bbdb\n      eq\n      tag_9\n      jumpi\n      jump(tag_1)\n    tag_10:\n      dup1\n      0x03441006\n      eq\n      tag_2\n      jumpi\n      dup1\n      0x0a144391\n      eq\n      tag_3\n      jumpi\n      dup1\n      0x481c6a75\n      eq\n      tag_4\n      jumpi\n      dup1\n      0x81d12c58\n      eq\n      tag_5\n      jumpi\n    tag_1:\n      0x00\n      dup1\n      revert\n        /* \"Campaign.sol\":1846:2144  function finalizeRequest(uint index) public restricted {... */\n    tag_2:\n      callvalue\n      dup1\n      iszero\n      tag_11\n      jumpi\n      0x00\n      dup1\n      revert\n    tag_11:\n      pop\n      tag_12\n      0x04\n      dup1\n      calldatasize\n      sub\n      dup2\n      add\n      swap1\n      tag_13\n      swap2\n      swap1\n      tag_14\n      jump\t// in\n    tag_13:\n      tag_15\n      jump\t// in\n    tag_12:\n      stop\n        /* \"Campaign.sol\":743:784  mapping(address => bool) public approvers */\n    tag_3:\n      callvalue\n      dup1\n      iszero\n      tag_16\n      jumpi\n      0x00\n      dup1\n      revert\n    tag_16:\n      pop\n      tag_17\n      0x04\n      dup1\n      calldatasize\n      sub\n      dup2\n      add\n      swap1\n      tag_18\n      swap2\n      swap1\n      tag_19\n      jump\t// in\n    tag_18:\n      tag_20\n      jump\t// in\n    tag_17:\n      mload(0x40)\n      tag_21\n      swap2\n      swap1\n      tag_22\n      jump\t// in\n    tag_21:\n      mload(0x40)\n      dup1\n      swap2\n      sub\n      swap1\n      return\n        /* \"Campaign.sol\":647:669  address public manager */\n    tag_4:\n      callvalue\n      dup1\n      iszero\n      tag_23\n      jumpi\n      0x00\n      dup1\n      revert\n    tag_23:\n      pop\n      tag_24\n      tag_25\n      jump\t// in\n    tag_24:\n      mload(0x40)\n      tag_26\n      swap2\n      swap1\n      tag_27\n      jump\t// in\n    tag_26:\n      mload(0x40)\n      dup1\n      swap2\n      sub\n      swap1\n      return\n        /* \"Campaign.sol\":712:737  Request[] public requests */\n    tag_5:\n      callvalue\n      dup1\n      iszero\n      tag_28\n      jumpi\n      0x00\n      dup1\n      revert\n    tag_28:\n      pop\n      tag_29\n      0x04\n      dup1\n      calldatasize\n      sub\n      dup2\n      add\n      swap1\n      tag_30\n      swap2\n      swap1\n      tag_14\n      jump\t// in\n    tag_30:\n      tag_31\n      jump\t// in\n    tag_29:\n      mload(0x40)\n      tag_32\n      swap6\n      swap5\n      swap4\n      swap3\n      swap2\n      swap1\n      tag_33\n      jump\t// in\n    tag_32:\n      mload(0x40)\n      dup1\n      swap2\n      sub\n      swap1\n      return\n        /* \"Campaign.sol\":1189:1555  function createRequest(string memory description, uint value, address payable recipient) public restricted {... */\n    tag_6:\n      callvalue\n      dup1\n      iszero\n      tag_34\n      jumpi\n      0x00\n      dup1\n      revert\n    tag_34:\n      pop\n      tag_35\n      0x04\n      dup1\n      calldatasize\n      sub\n      dup2\n      add\n      swap1\n      tag_36\n      swap2\n      swap1\n      tag_37\n      jump\t// in\n    tag_36:\n      tag_38\n      jump\t// in\n    tag_35:\n      stop\n        /* \"Campaign.sol\":675:706  uint public minimumContribution */\n    tag_7:\n      callvalue\n      dup1\n      iszero\n      tag_39\n      jumpi\n      0x00\n      dup1\n      revert\n    tag_39:\n      pop\n      tag_40\n      tag_41\n      jump\t// in\n    tag_40:\n      mload(0x40)\n      tag_42\n      swap2\n      swap1\n      tag_43\n      jump\t// in\n    tag_42:\n      mload(0x40)\n      dup1\n      swap2\n      sub\n      swap1\n      return\n        /* \"Campaign.sol\":1024:1183  function contribute() public payable {... */\n    tag_8:\n      tag_44\n      tag_45\n      jump\t// in\n    tag_44:\n      stop\n        /* \"Campaign.sol\":1561:1840  function approveRequest(uint index) public {... */\n    tag_9:\n      callvalue\n      dup1\n      iszero\n      tag_46\n      jumpi\n      0x00\n      dup1\n      revert\n    tag_46:\n      pop\n      tag_47\n      0x04\n      dup1\n      calldatasize\n      sub\n      dup2\n      add\n      swap1\n      tag_48\n      swap2\n      swap1\n      tag_14\n      jump\t// in\n    tag_48:\n      tag_49\n      jump\t// in\n    tag_47:\n      stop\n        /* \"Campaign.sol\":1846:2144  function finalizeRequest(uint index) public restricted {... */\n    tag_15:\n        /* \"Campaign.sol\":870:877  manager */\n      0x00\n      dup1\n      sload\n      swap1\n      0x0100\n      exp\n      swap1\n      div\n      0xffffffffffffffffffffffffffffffffffffffff\n      and\n        /* \"Campaign.sol\":856:877  msg.sender == manager */\n      0xffffffffffffffffffffffffffffffffffffffff\n      and\n        /* \"Campaign.sol\":856:866  msg.sender */\n      caller\n        /* \"Campaign.sol\":856:877  msg.sender == manager */\n      0xffffffffffffffffffffffffffffffffffffffff\n      and\n      eq\n        /* \"Campaign.sol\":848:878  require(msg.sender == manager) */\n      tag_51\n      jumpi\n      0x00\n      dup1\n      revert\n    tag_51:\n        /* \"Campaign.sol\":1911:1934  Request storage request */\n      0x00\n        /* \"Campaign.sol\":1937:1945  requests */\n      0x02\n        /* \"Campaign.sol\":1946:1951  index */\n      dup3\n        /* \"Campaign.sol\":1937:1952  requests[index] */\n      dup2\n      sload\n      dup2\n      lt\n      tag_53\n      jumpi\n      tag_54\n      tag_55\n      jump\t// in\n    tag_54:\n    tag_53:\n      swap1\n      0x00\n      mstore\n      keccak256(0x00, 0x20)\n      swap1\n      0x06\n      mul\n      add\n        /* \"Campaign.sol\":1911:1952  Request storage request = requests[index] */\n      swap1\n      pop\n        /* \"Campaign.sol\":2013:2014  2 */\n      0x02\n        /* \"Campaign.sol\":1996:2010  approversCount */\n      sload(0x04)\n        /* \"Campaign.sol\":1996:2014  approversCount / 2 */\n      tag_57\n      swap2\n      swap1\n      tag_58\n      jump\t// in\n    tag_57:\n        /* \"Campaign.sol\":1971:1978  request */\n      dup2\n        /* \"Campaign.sol\":1971:1992  request.approvalCount */\n      0x03\n      add\n      sload\n        /* \"Campaign.sol\":1971:2015  request.approvalCount > (approversCount / 2) */\n      gt\n        /* \"Campaign.sol\":1963:2016  require(request.approvalCount > (approversCount / 2)) */\n      tag_59\n      jumpi\n      0x00\n      dup1\n      revert\n    tag_59:\n        /* \"Campaign.sol\":2035:2042  request */\n      dup1\n        /* \"Campaign.sol\":2035:2051  request.complete */\n      0x05\n      add\n      0x00\n      swap1\n      sload\n      swap1\n      0x0100\n      exp\n      swap1\n      div\n      0xff\n      and\n        /* \"Campaign.sol\":2034:2051  !request.complete */\n      iszero\n        /* \"Campaign.sol\":2026:2052  require(!request.complete) */\n      tag_60\n      jumpi\n      0x00\n      dup1\n      revert\n    tag_60:\n        /* \"Campaign.sol\":2063:2070  request */\n      dup1\n        /* \"Campaign.sol\":2063:2080  request.recipient */\n      0x02\n      add\n      0x00\n      swap1\n      sload\n      swap1\n      0x0100\n      exp\n      swap1\n      div\n      0xffffffffffffffffffffffffffffffffffffffff\n      and\n        /* \"Campaign.sol\":2063:2089  request.recipient.transfer */\n      0xffffffffffffffffffffffffffffffffffffffff\n      and\n        /* \"Campaign.sol\":2063:2104  request.recipient.transfer(request.value) */\n      0x08fc\n        /* \"Campaign.sol\":2090:2097  request */\n      dup3\n        /* \"Campaign.sol\":2090:2103  request.value */\n      0x01\n      add\n      sload\n        /* \"Campaign.sol\":2063:2104  request.recipient.transfer(request.value) */\n      swap1\n      dup2\n      iszero\n      mul\n      swap1\n      mload(0x40)\n      0x00\n      mload(0x40)\n      dup1\n      dup4\n      sub\n      dup2\n      dup6\n      dup9\n      dup9\n      call\n      swap4\n      pop\n      pop\n      pop\n      pop\n      iszero\n      dup1\n      iszero\n      tag_62\n      jumpi\n      returndatasize\n      0x00\n      dup1\n      returndatacopy\n      revert(0x00, returndatasize)\n    tag_62:\n      pop\n        /* \"Campaign.sol\":2133:2137  true */\n      0x01\n        /* \"Campaign.sol\":2114:2121  request */\n      dup2\n        /* \"Campaign.sol\":2114:2130  request.complete */\n      0x05\n      add\n      0x00\n        /* \"Campaign.sol\":2114:2137  request.complete = true */\n      0x0100\n      exp\n      dup2\n      sload\n      dup2\n      0xff\n      mul\n      not\n      and\n      swap1\n      dup4\n      iszero\n      iszero\n      mul\n      or\n      swap1\n      sstore\n      pop\n        /* \"Campaign.sol\":1901:2144  {... */\n      pop\n        /* \"Campaign.sol\":1846:2144  function finalizeRequest(uint index) public restricted {... */\n      pop\n      jump\t// out\n        /* \"Campaign.sol\":743:784  mapping(address => bool) public approvers */\n    tag_20:\n      mstore(0x20, 0x03)\n      dup1\n      0x00\n      mstore\n      keccak256(0x00, 0x40)\n      0x00\n      swap2\n      pop\n      sload\n      swap1\n      0x0100\n      exp\n      swap1\n      div\n      0xff\n      and\n      dup2\n      jump\t// out\n        /* \"Campaign.sol\":647:669  address public manager */\n    tag_25:\n      0x00\n      dup1\n      sload\n      swap1\n      0x0100\n      exp\n      swap1\n      div\n      0xffffffffffffffffffffffffffffffffffffffff\n      and\n      dup2\n      jump\t// out\n        /* \"Campaign.sol\":712:737  Request[] public requests */\n    tag_31:\n      0x02\n      dup2\n      dup2\n      sload\n      dup2\n      lt\n      tag_63\n      jumpi\n      0x00\n      dup1\n      revert\n    tag_63:\n      swap1\n      0x00\n      mstore\n      keccak256(0x00, 0x20)\n      swap1\n      0x06\n      mul\n      add\n      0x00\n      swap2\n      pop\n      swap1\n      pop\n      dup1\n      0x00\n      add\n      dup1\n      sload\n      tag_65\n      swap1\n      tag_66\n      jump\t// in\n    tag_65:\n      dup1\n      0x1f\n      add\n      0x20\n      dup1\n      swap2\n      div\n      mul\n      0x20\n      add\n      mload(0x40)\n      swap1\n      dup2\n      add\n      0x40\n      mstore\n      dup1\n      swap3\n      swap2\n      swap1\n      dup2\n      dup2\n      mstore\n      0x20\n      add\n      dup3\n      dup1\n      sload\n      tag_67\n      swap1\n      tag_66\n      jump\t// in\n    tag_67:\n      dup1\n      iszero\n      tag_68\n      jumpi\n      dup1\n      0x1f\n      lt\n      tag_69\n      jumpi\n      0x0100\n      dup1\n      dup4\n      sload\n      div\n      mul\n      dup4\n      mstore\n      swap2\n      0x20\n      add\n      swap2\n      jump(tag_68)\n    tag_69:\n      dup3\n      add\n      swap2\n      swap1\n      0x00\n      mstore\n      keccak256(0x00, 0x20)\n      swap1\n    tag_70:\n      dup2\n      sload\n      dup2\n      mstore\n      swap1\n      0x01\n      add\n      swap1\n      0x20\n      add\n      dup1\n      dup4\n      gt\n      tag_70\n      jumpi\n      dup3\n      swap1\n      sub\n      0x1f\n      and\n      dup3\n      add\n      swap2\n    tag_68:\n      pop\n      pop\n      pop\n      pop\n      pop\n      swap1\n      dup1\n      0x01\n      add\n      sload\n      swap1\n      dup1\n      0x02\n      add\n      0x00\n      swap1\n      sload\n      swap1\n      0x0100\n      exp\n      swap1\n      div\n      0xffffffffffffffffffffffffffffffffffffffff\n      and\n      swap1\n      dup1\n      0x03\n      add\n      sload\n      swap1\n      dup1\n      0x05\n      add\n      0x00\n      swap1\n      sload\n      swap1\n      0x0100\n      exp\n      swap1\n      div\n      0xff\n      and\n      swap1\n      pop\n      dup6\n      jump\t// out\n        /* \"Campaign.sol\":1189:1555  function createRequest(string memory description, uint value, address payable recipient) public restricted {... */\n    tag_38:\n        /* \"Campaign.sol\":870:877  manager */\n      0x00\n      dup1\n      sload\n      swap1\n      0x0100\n      exp\n      swap1\n      div\n      0xffffffffffffffffffffffffffffffffffffffff\n      and\n        /* \"Campaign.sol\":856:877  msg.sender == manager */\n      0xffffffffffffffffffffffffffffffffffffffff\n      and\n        /* \"Campaign.sol\":856:866  msg.sender */\n      caller\n        /* \"Campaign.sol\":856:877  msg.sender == manager */\n      0xffffffffffffffffffffffffffffffffffffffff\n      and\n      eq\n        /* \"Campaign.sol\":848:878  require(msg.sender == manager) */\n      tag_72\n      jumpi\n      0x00\n      dup1\n      revert\n    tag_72:\n        /* \"Campaign.sol\":1307:1333  Request storage newRequest */\n      0x00\n        /* \"Campaign.sol\":1336:1344  requests */\n      0x02\n        /* \"Campaign.sol\":1336:1351  requests.push() */\n      0x01\n      dup2\n      0x01\n      dup2\n      sload\n      add\n      dup1\n      dup3\n      sstore\n      dup1\n      swap2\n      pop\n      pop\n      sub\n      swap1\n      0x00\n      mstore\n      keccak256(0x00, 0x20)\n      swap1\n      0x06\n      mul\n      add\n        /* \"Campaign.sol\":1307:1351  Request storage newRequest = requests.push() */\n      swap1\n      pop\n        /* \"Campaign.sol\":1386:1397  description */\n      dup4\n        /* \"Campaign.sol\":1361:1371  newRequest */\n      dup2\n        /* \"Campaign.sol\":1361:1383  newRequest.description */\n      0x00\n      add\n        /* \"Campaign.sol\":1361:1397  newRequest.description = description */\n      swap1\n      dup2\n      tag_75\n      swap2\n      swap1\n      tag_76\n      jump\t// in\n    tag_75:\n      pop\n        /* \"Campaign.sol\":1426:1431  value */\n      dup3\n        /* \"Campaign.sol\":1407:1417  newRequest */\n      dup2\n        /* \"Campaign.sol\":1407:1423  newRequest.value */\n      0x01\n      add\n        /* \"Campaign.sol\":1407:1431  newRequest.value = value */\n      dup2\n      swap1\n      sstore\n      pop\n        /* \"Campaign.sol\":1464:1473  recipient */\n      dup2\n        /* \"Campaign.sol\":1441:1451  newRequest */\n      dup2\n        /* \"Campaign.sol\":1441:1461  newRequest.recipient */\n      0x02\n      add\n      0x00\n        /* \"Campaign.sol\":1441:1473  newRequest.recipient = recipient */\n      0x0100\n      exp\n      dup2\n      sload\n      dup2\n      0xffffffffffffffffffffffffffffffffffffffff\n      mul\n      not\n      and\n      swap1\n      dup4\n      0xffffffffffffffffffffffffffffffffffffffff\n      and\n      mul\n      or\n      swap1\n      sstore\n      pop\n        /* \"Campaign.sol\":1505:1510  false */\n      0x00\n        /* \"Campaign.sol\":1483:1493  newRequest */\n      dup2\n        /* \"Campaign.sol\":1483:1502  newRequest.complete */\n      0x05\n      add\n      0x00\n        /* \"Campaign.sol\":1483:1510  newRequest.complete = false */\n      0x0100\n      exp\n      dup2\n      sload\n      dup2\n      0xff\n      mul\n      not\n      and\n      swap1\n      dup4\n      iszero\n      iszero\n      mul\n      or\n      swap1\n      sstore\n      pop\n        /* \"Campaign.sol\":1547:1548  0 */\n      0x00\n        /* \"Campaign.sol\":1520:1530  newRequest */\n      dup2\n        /* \"Campaign.sol\":1520:1544  newRequest.approvalCount */\n      0x03\n      add\n        /* \"Campaign.sol\":1520:1548  newRequest.approvalCount = 0 */\n      dup2\n      swap1\n      sstore\n      pop\n        /* \"Campaign.sol\":1296:1555  {... */\n      pop\n        /* \"Campaign.sol\":1189:1555  function createRequest(string memory description, uint value, address payable recipient) public restricted {... */\n      pop\n      pop\n      pop\n      jump\t// out\n        /* \"Campaign.sol\":675:706  uint public minimumContribution */\n    tag_41:\n      sload(0x01)\n      dup2\n      jump\t// out\n        /* \"Campaign.sol\":1024:1183  function contribute() public payable {... */\n    tag_45:\n        /* \"Campaign.sol\":1091:1110  minimumContribution */\n      sload(0x01)\n        /* \"Campaign.sol\":1079:1088  msg.value */\n      callvalue\n        /* \"Campaign.sol\":1079:1110  msg.value > minimumContribution */\n      gt\n        /* \"Campaign.sol\":1071:1111  require(msg.value > minimumContribution) */\n      tag_78\n      jumpi\n      0x00\n      dup1\n      revert\n    tag_78:\n        /* \"Campaign.sol\":1146:1150  true */\n      0x01\n        /* \"Campaign.sol\":1122:1131  approvers */\n      0x03\n        /* \"Campaign.sol\":1122:1143  approvers[msg.sender] */\n      0x00\n        /* \"Campaign.sol\":1132:1142  msg.sender */\n      caller\n        /* \"Campaign.sol\":1122:1143  approvers[msg.sender] */\n      0xffffffffffffffffffffffffffffffffffffffff\n      and\n      0xffffffffffffffffffffffffffffffffffffffff\n      and\n      dup2\n      mstore\n      0x20\n      add\n      swap1\n      dup2\n      mstore\n      0x20\n      add\n      0x00\n      keccak256\n      0x00\n        /* \"Campaign.sol\":1122:1150  approvers[msg.sender] = true */\n      0x0100\n      exp\n      dup2\n      sload\n      dup2\n      0xff\n      mul\n      not\n      and\n      swap1\n      dup4\n      iszero\n      iszero\n      mul\n      or\n      swap1\n      sstore\n      pop\n        /* \"Campaign.sol\":1160:1174  approversCount */\n      0x04\n      0x00\n        /* \"Campaign.sol\":1160:1176  approversCount++ */\n      dup2\n      sload\n      dup1\n      swap3\n      swap2\n      swap1\n      tag_79\n      swap1\n      tag_80\n      jump\t// in\n    tag_79:\n      swap2\n      swap1\n      pop\n      sstore\n      pop\n        /* \"Campaign.sol\":1024:1183  function contribute() public payable {... */\n      jump\t// out\n        /* \"Campaign.sol\":1561:1840  function approveRequest(uint index) public {... */\n    tag_49:\n        /* \"Campaign.sol\":1614:1637  Request storage request */\n      0x00\n        /* \"Campaign.sol\":1640:1648  requests */\n      0x02\n        /* \"Campaign.sol\":1649:1654  index */\n      dup3\n        /* \"Campaign.sol\":1640:1655  requests[index] */\n      dup2\n      sload\n      dup2\n      lt\n      tag_82\n      jumpi\n      tag_83\n      tag_55\n      jump\t// in\n    tag_83:\n    tag_82:\n      swap1\n      0x00\n      mstore\n      keccak256(0x00, 0x20)\n      swap1\n      0x06\n      mul\n      add\n        /* \"Campaign.sol\":1614:1655  Request storage request = requests[index] */\n      swap1\n      pop\n        /* \"Campaign.sol\":1674:1683  approvers */\n      0x03\n        /* \"Campaign.sol\":1674:1695  approvers[msg.sender] */\n      0x00\n        /* \"Campaign.sol\":1684:1694  msg.sender */\n      caller\n        /* \"Campaign.sol\":1674:1695  approvers[msg.sender] */\n      0xffffffffffffffffffffffffffffffffffffffff\n      and\n      0xffffffffffffffffffffffffffffffffffffffff\n      and\n      dup2\n      mstore\n      0x20\n      add\n      swap1\n      dup2\n      mstore\n      0x20\n      add\n      0x00\n      keccak256\n      0x00\n      swap1\n      sload\n      swap1\n      0x0100\n      exp\n      swap1\n      div\n      0xff\n      and\n        /* \"Campaign.sol\":1666:1696  require(approvers[msg.sender]) */\n      tag_85\n      jumpi\n      0x00\n      dup1\n      revert\n    tag_85:\n        /* \"Campaign.sol\":1715:1723  requests */\n      0x02\n        /* \"Campaign.sol\":1724:1729  index */\n      dup3\n        /* \"Campaign.sol\":1715:1730  requests[index] */\n      dup2\n      sload\n      dup2\n      lt\n      tag_86\n      jumpi\n      tag_87\n      tag_55\n      jump\t// in\n    tag_87:\n    tag_86:\n      swap1\n      0x00\n      mstore\n      keccak256(0x00, 0x20)\n      swap1\n      0x06\n      mul\n      add\n        /* \"Campaign.sol\":1715:1740  requests[index].approvals */\n      0x04\n      add\n        /* \"Campaign.sol\":1715:1752  requests[index].approvals[msg.sender] */\n      0x00\n        /* \"Campaign.sol\":1741:1751  msg.sender */\n      caller\n        /* \"Campaign.sol\":1715:1752  requests[index].approvals[msg.sender] */\n      0xffffffffffffffffffffffffffffffffffffffff\n      and\n      0xffffffffffffffffffffffffffffffffffffffff\n      and\n      dup2\n      mstore\n      0x20\n      add\n      swap1\n      dup2\n      mstore\n      0x20\n      add\n      0x00\n      keccak256\n      0x00\n      swap1\n      sload\n      swap1\n      0x0100\n      exp\n      swap1\n      div\n      0xff\n      and\n        /* \"Campaign.sol\":1714:1752  !requests[index].approvals[msg.sender] */\n      iszero\n        /* \"Campaign.sol\":1706:1753  require(!requests[index].approvals[msg.sender]) */\n      tag_89\n      jumpi\n      0x00\n      dup1\n      revert\n    tag_89:\n        /* \"Campaign.sol\":1796:1800  true */\n      0x01\n        /* \"Campaign.sol\":1764:1771  request */\n      dup2\n        /* \"Campaign.sol\":1764:1781  request.approvals */\n      0x04\n      add\n        /* \"Campaign.sol\":1764:1793  request.approvals[msg.sender] */\n      0x00\n        /* \"Campaign.sol\":1782:1792  msg.sender */\n      caller\n        /* \"Campaign.sol\":1764:1793  request.approvals[msg.sender] */\n      0xffffffffffffffffffffffffffffffffffffffff\n      and\n      0xffffffffffffffffffffffffffffffffffffffff\n      and\n      dup2\n      mstore\n      0x20\n      add\n      swap1\n      dup2\n      mstore\n      0x20\n      add\n      0x00\n      keccak256\n      0x00\n        /* \"Campaign.sol\":1764:1800  request.approvals[msg.sender] = true */\n      0x0100\n      exp\n      dup2\n      sload\n      dup2\n      0xff\n      mul\n      not\n      and\n      swap1\n      dup4\n      iszero\n      iszero\n      mul\n      or\n      swap1\n      sstore\n      pop\n        /* \"Campaign.sol\":1810:1817  request */\n      dup1\n        /* \"Campaign.sol\":1810:1831  request.approvalCount */\n      0x03\n      add\n      0x00\n        /* \"Campaign.sol\":1810:1833  request.approvalCount++ */\n      dup2\n      sload\n      dup1\n      swap3\n      swap2\n      swap1\n      tag_90\n      swap1\n      tag_80\n      jump\t// in\n    tag_90:\n      swap2\n      swap1\n      pop\n      sstore\n      pop\n        /* \"Campaign.sol\":1604:1840  {... */\n      pop\n        /* \"Campaign.sol\":1561:1840  function approveRequest(uint index) public {... */\n      pop\n      jump\t// out\n        /* \"#utility.yul\":7:82   */\n    tag_91:\n        /* \"#utility.yul\":40:46   */\n      0x00\n        /* \"#utility.yul\":73:75   */\n      0x40\n        /* \"#utility.yul\":67:76   */\n      mload\n        /* \"#utility.yul\":57:76   */\n      swap1\n      pop\n        /* \"#utility.yul\":7:82   */\n      swap1\n      jump\t// out\n        /* \"#utility.yul\":88:205   */\n    tag_92:\n        /* \"#utility.yul\":197:198   */\n      0x00\n        /* \"#utility.yul\":194:195   */\n      dup1\n        /* \"#utility.yul\":187:199   */\n      revert\n        /* \"#utility.yul\":211:328   */\n    tag_93:\n        /* \"#utility.yul\":320:321   */\n      0x00\n        /* \"#utility.yul\":317:318   */\n      dup1\n        /* \"#utility.yul\":310:322   */\n      revert\n        /* \"#utility.yul\":334:411   */\n    tag_94:\n        /* \"#utility.yul\":371:378   */\n      0x00\n        /* \"#utility.yul\":400:405   */\n      dup2\n        /* \"#utility.yul\":389:405   */\n      swap1\n      pop\n        /* \"#utility.yul\":334:411   */\n      swap2\n      swap1\n      pop\n      jump\t// out\n        /* \"#utility.yul\":417:539   */\n    tag_95:\n        /* \"#utility.yul\":490:514   */\n      tag_147\n        /* \"#utility.yul\":508:513   */\n      dup2\n        /* \"#utility.yul\":490:514   */\n      tag_94\n      jump\t// in\n    tag_147:\n        /* \"#utility.yul\":483:488   */\n      dup2\n        /* \"#utility.yul\":480:515   */\n      eq\n        /* \"#utility.yul\":470:533   */\n      tag_148\n      jumpi\n        /* \"#utility.yul\":529:530   */\n      0x00\n        /* \"#utility.yul\":526:527   */\n      dup1\n        /* \"#utility.yul\":519:531   */\n      revert\n        /* \"#utility.yul\":470:533   */\n    tag_148:\n        /* \"#utility.yul\":417:539   */\n      pop\n      jump\t// out\n        /* \"#utility.yul\":545:684   */\n    tag_96:\n        /* \"#utility.yul\":591:596   */\n      0x00\n        /* \"#utility.yul\":629:635   */\n      dup2\n        /* \"#utility.yul\":616:636   */\n      calldataload\n        /* \"#utility.yul\":607:636   */\n      swap1\n      pop\n        /* \"#utility.yul\":645:678   */\n      tag_150\n        /* \"#utility.yul\":672:677   */\n      dup2\n        /* \"#utility.yul\":645:678   */\n      tag_95\n      jump\t// in\n    tag_150:\n        /* \"#utility.yul\":545:684   */\n      swap3\n      swap2\n      pop\n      pop\n      jump\t// out\n        /* \"#utility.yul\":690:1019   */\n    tag_14:\n        /* \"#utility.yul\":749:755   */\n      0x00\n        /* \"#utility.yul\":798:800   */\n      0x20\n        /* \"#utility.yul\":786:795   */\n      dup3\n        /* \"#utility.yul\":777:784   */\n      dup5\n        /* \"#utility.yul\":773:796   */\n      sub\n        /* \"#utility.yul\":769:801   */\n      slt\n        /* \"#utility.yul\":766:885   */\n      iszero\n      tag_152\n      jumpi\n        /* \"#utility.yul\":804:883   */\n      tag_153\n      tag_92\n      jump\t// in\n    tag_153:\n        /* \"#utility.yul\":766:885   */\n    tag_152:\n        /* \"#utility.yul\":924:925   */\n      0x00\n        /* \"#utility.yul\":949:1002   */\n      tag_154\n        /* \"#utility.yul\":994:1001   */\n      dup5\n        /* \"#utility.yul\":985:991   */\n      dup3\n        /* \"#utility.yul\":974:983   */\n      dup6\n        /* \"#utility.yul\":970:992   */\n      add\n        /* \"#utility.yul\":949:1002   */\n      tag_96\n      jump\t// in\n    tag_154:\n        /* \"#utility.yul\":939:1002   */\n      swap2\n      pop\n        /* \"#utility.yul\":895:1012   */\n      pop\n        /* \"#utility.yul\":690:1019   */\n      swap3\n      swap2\n      pop\n      pop\n      jump\t// out\n        /* \"#utility.yul\":1025:1151   */\n    tag_97:\n        /* \"#utility.yul\":1062:1069   */\n      0x00\n        /* \"#utility.yul\":1102:1144   */\n      0xffffffffffffffffffffffffffffffffffffffff\n        /* \"#utility.yul\":1095:1100   */\n      dup3\n        /* \"#utility.yul\":1091:1145   */\n      and\n        /* \"#utility.yul\":1080:1145   */\n      swap1\n      pop\n        /* \"#utility.yul\":1025:1151   */\n      swap2\n      swap1\n      pop\n      jump\t// out\n        /* \"#utility.yul\":1157:1253   */\n    tag_98:\n        /* \"#utility.yul\":1194:1201   */\n      0x00\n        /* \"#utility.yul\":1223:1247   */\n      tag_157\n        /* \"#utility.yul\":1241:1246   */\n      dup3\n        /* \"#utility.yul\":1223:1247   */\n      tag_97\n      jump\t// in\n    tag_157:\n        /* \"#utility.yul\":1212:1247   */\n      swap1\n      pop\n        /* \"#utility.yul\":1157:1253   */\n      swap2\n      swap1\n      pop\n      jump\t// out\n        /* \"#utility.yul\":1259:1381   */\n    tag_99:\n        /* \"#utility.yul\":1332:1356   */\n      tag_159\n        /* \"#utility.yul\":1350:1355   */\n      dup2\n        /* \"#utility.yul\":1332:1356   */\n      tag_98\n      jump\t// in\n    tag_159:\n        /* \"#utility.yul\":1325:1330   */\n      dup2\n        /* \"#utility.yul\":1322:1357   */\n      eq\n        /* \"#utility.yul\":1312:1375   */\n      tag_160\n      jumpi\n        /* \"#utility.yul\":1371:1372   */\n      0x00\n        /* \"#utility.yul\":1368:1369   */\n      dup1\n        /* \"#utility.yul\":1361:1373   */\n      revert\n        /* \"#utility.yul\":1312:1375   */\n    tag_160:\n        /* \"#utility.yul\":1259:1381   */\n      pop\n      jump\t// out\n        /* \"#utility.yul\":1387:1526   */\n    tag_100:\n        /* \"#utility.yul\":1433:1438   */\n      0x00\n        /* \"#utility.yul\":1471:1477   */\n      dup2\n        /* \"#utility.yul\":1458:1478   */\n      calldataload\n        /* \"#utility.yul\":1449:1478   */\n      swap1\n      pop\n        /* \"#utility.yul\":1487:1520   */\n      tag_162\n        /* \"#utility.yul\":1514:1519   */\n      dup2\n        /* \"#utility.yul\":1487:1520   */\n      tag_99\n      jump\t// in\n    tag_162:\n        /* \"#utility.yul\":1387:1526   */\n      swap3\n      swap2\n      pop\n      pop\n      jump\t// out\n        /* \"#utility.yul\":1532:1861   */\n    tag_19:\n        /* \"#utility.yul\":1591:1597   */\n      0x00\n        /* \"#utility.yul\":1640:1642   */\n      0x20\n        /* \"#utility.yul\":1628:1637   */\n      dup3\n        /* \"#utility.yul\":1619:1626   */\n      dup5\n        /* \"#utility.yul\":1615:1638   */\n      sub\n        /* \"#utility.yul\":1611:1643   */\n      slt\n        /* \"#utility.yul\":1608:1727   */\n      iszero\n      tag_164\n      jumpi\n        /* \"#utility.yul\":1646:1725   */\n      tag_165\n      tag_92\n      jump\t// in\n    tag_165:\n        /* \"#utility.yul\":1608:1727   */\n    tag_164:\n        /* \"#utility.yul\":1766:1767   */\n      0x00\n        /* \"#utility.yul\":1791:1844   */\n      tag_166\n        /* \"#utility.yul\":1836:1843   */\n      dup5\n        /* \"#utility.yul\":1827:1833   */\n      dup3\n        /* \"#utility.yul\":1816:1825   */\n      dup6\n        /* \"#utility.yul\":1812:1834   */\n      add\n        /* \"#utility.yul\":1791:1844   */\n      tag_100\n      jump\t// in\n    tag_166:\n        /* \"#utility.yul\":1781:1844   */\n      swap2\n      pop\n        /* \"#utility.yul\":1737:1854   */\n      pop\n        /* \"#utility.yul\":1532:1861   */\n      swap3\n      swap2\n      pop\n      pop\n      jump\t// out\n        /* \"#utility.yul\":1867:1957   */\n    tag_101:\n        /* \"#utility.yul\":1901:1908   */\n      0x00\n        /* \"#utility.yul\":1944:1949   */\n      dup2\n        /* \"#utility.yul\":1937:1950   */\n      iszero\n        /* \"#utility.yul\":1930:1951   */\n      iszero\n        /* \"#utility.yul\":1919:1951   */\n      swap1\n      pop\n        /* \"#utility.yul\":1867:1957   */\n      swap2\n      swap1\n      pop\n      jump\t// out\n        /* \"#utility.yul\":1963:2072   */\n    tag_102:\n        /* \"#utility.yul\":2044:2065   */\n      tag_169\n        /* \"#utility.yul\":2059:2064   */\n      dup2\n        /* \"#utility.yul\":2044:2065   */\n      tag_101\n      jump\t// in\n    tag_169:\n        /* \"#utility.yul\":2039:2042   */\n      dup3\n        /* \"#utility.yul\":2032:2066   */\n      mstore\n        /* \"#utility.yul\":1963:2072   */\n      pop\n      pop\n      jump\t// out\n        /* \"#utility.yul\":2078:2288   */\n    tag_22:\n        /* \"#utility.yul\":2165:2169   */\n      0x00\n        /* \"#utility.yul\":2203:2205   */\n      0x20\n        /* \"#utility.yul\":2192:2201   */\n      dup3\n        /* \"#utility.yul\":2188:2206   */\n      add\n        /* \"#utility.yul\":2180:2206   */\n      swap1\n      pop\n        /* \"#utility.yul\":2216:2281   */\n      tag_171\n        /* \"#utility.yul\":2278:2279   */\n      0x00\n        /* \"#utility.yul\":2267:2276   */\n      dup4\n        /* \"#utility.yul\":2263:2280   */\n      add\n        /* \"#utility.yul\":2254:2260   */\n      dup5\n        /* \"#utility.yul\":2216:2281   */\n      tag_102\n      jump\t// in\n    tag_171:\n        /* \"#utility.yul\":2078:2288   */\n      swap3\n      swap2\n      pop\n      pop\n      jump\t// out\n        /* \"#utility.yul\":2294:2412   */\n    tag_103:\n        /* \"#utility.yul\":2381:2405   */\n      tag_173\n        /* \"#utility.yul\":2399:2404   */\n      dup2\n        /* \"#utility.yul\":2381:2405   */\n      tag_98\n      jump\t// in\n    tag_173:\n        /* \"#utility.yul\":2376:2379   */\n      dup3\n        /* \"#utility.yul\":2369:2406   */\n      mstore\n        /* \"#utility.yul\":2294:2412   */\n      pop\n      pop\n      jump\t// out\n        /* \"#utility.yul\":2418:2640   */\n    tag_27:\n        /* \"#utility.yul\":2511:2515   */\n      0x00\n        /* \"#utility.yul\":2549:2551   */\n      0x20\n        /* \"#utility.yul\":2538:2547   */\n      dup3\n        /* \"#utility.yul\":2534:2552   */\n      add\n        /* \"#utility.yul\":2526:2552   */\n      swap1\n      pop\n        /* \"#utility.yul\":2562:2633   */\n      tag_175\n        /* \"#utility.yul\":2630:2631   */\n      0x00\n        /* \"#utility.yul\":2619:2628   */\n      dup4\n        /* \"#utility.yul\":2615:2632   */\n      add\n        /* \"#utility.yul\":2606:2612   */\n      dup5\n        /* \"#utility.yul\":2562:2633   */\n      tag_103\n      jump\t// in\n    tag_175:\n        /* \"#utility.yul\":2418:2640   */\n      swap3\n      swap2\n      pop\n      pop\n      jump\t// out\n        /* \"#utility.yul\":2646:2745   */\n    tag_104:\n        /* \"#utility.yul\":2698:2704   */\n      0x00\n        /* \"#utility.yul\":2732:2737   */\n      dup2\n        /* \"#utility.yul\":2726:2738   */\n      mload\n        /* \"#utility.yul\":2716:2738   */\n      swap1\n      pop\n        /* \"#utility.yul\":2646:2745   */\n      swap2\n      swap1\n      pop\n      jump\t// out\n        /* \"#utility.yul\":2751:2920   */\n    tag_105:\n        /* \"#utility.yul\":2835:2846   */\n      0x00\n        /* \"#utility.yul\":2869:2875   */\n      dup3\n        /* \"#utility.yul\":2864:2867   */\n      dup3\n        /* \"#utility.yul\":2857:2876   */\n      mstore\n        /* \"#utility.yul\":2909:2913   */\n      0x20\n        /* \"#utility.yul\":2904:2907   */\n      dup3\n        /* \"#utility.yul\":2900:2914   */\n      add\n        /* \"#utility.yul\":2885:2914   */\n      swap1\n      pop\n        /* \"#utility.yul\":2751:2920   */\n      swap3\n      swap2\n      pop\n      pop\n      jump\t// out\n        /* \"#utility.yul\":2926:3172   */\n    tag_106:\n        /* \"#utility.yul\":3007:3008   */\n      0x00\n        /* \"#utility.yul\":3017:3130   */\n    tag_179:\n        /* \"#utility.yul\":3031:3037   */\n      dup4\n        /* \"#utility.yul\":3028:3029   */\n      dup2\n        /* \"#utility.yul\":3025:3038   */\n      lt\n        /* \"#utility.yul\":3017:3130   */\n      iszero\n      tag_181\n      jumpi\n        /* \"#utility.yul\":3116:3117   */\n      dup1\n        /* \"#utility.yul\":3111:3114   */\n      dup3\n        /* \"#utility.yul\":3107:3118   */\n      add\n        /* \"#utility.yul\":3101:3119   */\n      mload\n        /* \"#utility.yul\":3097:3098   */\n      dup2\n        /* \"#utility.yul\":3092:3095   */\n      dup5\n        /* \"#utility.yul\":3088:3099   */\n      add\n        /* \"#utility.yul\":3081:3120   */\n      mstore\n        /* \"#utility.yul\":3053:3055   */\n      0x20\n        /* \"#utility.yul\":3050:3051   */\n      dup2\n        /* \"#utility.yul\":3046:3056   */\n      add\n        /* \"#utility.yul\":3041:3056   */\n      swap1\n      pop\n        /* \"#utility.yul\":3017:3130   */\n      jump(tag_179)\n    tag_181:\n        /* \"#utility.yul\":3164:3165   */\n      0x00\n        /* \"#utility.yul\":3155:3161   */\n      dup5\n        /* \"#utility.yul\":3150:3153   */\n      dup5\n        /* \"#utility.yul\":3146:3162   */\n      add\n        /* \"#utility.yul\":3139:3166   */\n      mstore\n        /* \"#utility.yul\":2988:3172   */\n      pop\n        /* \"#utility.yul\":2926:3172   */\n      pop\n      pop\n      pop\n      jump\t// out\n        /* \"#utility.yul\":3178:3280   */\n    tag_107:\n        /* \"#utility.yul\":3219:3225   */\n      0x00\n        /* \"#utility.yul\":3270:3272   */\n      0x1f\n        /* \"#utility.yul\":3266:3273   */\n      not\n        /* \"#utility.yul\":3261:3263   */\n      0x1f\n        /* \"#utility.yul\":3254:3259   */\n      dup4\n        /* \"#utility.yul\":3250:3264   */\n      add\n        /* \"#utility.yul\":3246:3274   */\n      and\n        /* \"#utility.yul\":3236:3274   */\n      swap1\n      pop\n        /* \"#utility.yul\":3178:3280   */\n      swap2\n      swap1\n      pop\n      jump\t// out\n        /* \"#utility.yul\":3286:3663   */\n    tag_108:\n        /* \"#utility.yul\":3374:3377   */\n      0x00\n        /* \"#utility.yul\":3402:3441   */\n      tag_184\n        /* \"#utility.yul\":3435:3440   */\n      dup3\n        /* \"#utility.yul\":3402:3441   */\n      tag_104\n      jump\t// in\n    tag_184:\n        /* \"#utility.yul\":3457:3528   */\n      tag_185\n        /* \"#utility.yul\":3521:3527   */\n      dup2\n        /* \"#utility.yul\":3516:3519   */\n      dup6\n        /* \"#utility.yul\":3457:3528   */\n      tag_105\n      jump\t// in\n    tag_185:\n        /* \"#utility.yul\":3450:3528   */\n      swap4\n      pop\n        /* \"#utility.yul\":3537:3602   */\n      tag_186\n        /* \"#utility.yul\":3595:3601   */\n      dup2\n        /* \"#utility.yul\":3590:3593   */\n      dup6\n        /* \"#utility.yul\":3583:3587   */\n      0x20\n        /* \"#utility.yul\":3576:3581   */\n      dup7\n        /* \"#utility.yul\":3572:3588   */\n      add\n        /* \"#utility.yul\":3537:3602   */\n      tag_106\n      jump\t// in\n    tag_186:\n        /* \"#utility.yul\":3627:3656   */\n      tag_187\n        /* \"#utility.yul\":3649:3655   */\n      dup2\n        /* \"#utility.yul\":3627:3656   */\n      tag_107\n      jump\t// in\n    tag_187:\n        /* \"#utility.yul\":3622:3625   */\n      dup5\n        /* \"#utility.yul\":3618:3657   */\n      add\n        /* \"#utility.yul\":3611:3657   */\n      swap2\n      pop\n        /* \"#utility.yul\":3378:3663   */\n      pop\n        /* \"#utility.yul\":3286:3663   */\n      swap3\n      swap2\n      pop\n      pop\n      jump\t// out\n        /* \"#utility.yul\":3669:3787   */\n    tag_109:\n        /* \"#utility.yul\":3756:3780   */\n      tag_189\n        /* \"#utility.yul\":3774:3779   */\n      dup2\n        /* \"#utility.yul\":3756:3780   */\n      tag_94\n      jump\t// in\n    tag_189:\n        /* \"#utility.yul\":3751:3754   */\n      dup3\n        /* \"#utility.yul\":3744:3781   */\n      mstore\n        /* \"#utility.yul\":3669:3787   */\n      pop\n      pop\n      jump\t// out\n        /* \"#utility.yul\":3793:3897   */\n    tag_110:\n        /* \"#utility.yul\":3838:3845   */\n      0x00\n        /* \"#utility.yul\":3867:3891   */\n      tag_191\n        /* \"#utility.yul\":3885:3890   */\n      dup3\n        /* \"#utility.yul\":3867:3891   */\n      tag_97\n      jump\t// in\n    tag_191:\n        /* \"#utility.yul\":3856:3891   */\n      swap1\n      pop\n        /* \"#utility.yul\":3793:3897   */\n      swap2\n      swap1\n      pop\n      jump\t// out\n        /* \"#utility.yul\":3903:4045   */\n    tag_111:\n        /* \"#utility.yul\":4006:4038   */\n      tag_193\n        /* \"#utility.yul\":4032:4037   */\n      dup2\n        /* \"#utility.yul\":4006:4038   */\n      tag_110\n      jump\t// in\n    tag_193:\n        /* \"#utility.yul\":4001:4004   */\n      dup3\n        /* \"#utility.yul\":3994:4039   */\n      mstore\n        /* \"#utility.yul\":3903:4045   */\n      pop\n      pop\n      jump\t// out\n        /* \"#utility.yul\":4051:4826   */\n    tag_33:\n        /* \"#utility.yul\":4286:4290   */\n      0x00\n        /* \"#utility.yul\":4324:4327   */\n      0xa0\n        /* \"#utility.yul\":4313:4322   */\n      dup3\n        /* \"#utility.yul\":4309:4328   */\n      add\n        /* \"#utility.yul\":4301:4328   */\n      swap1\n      pop\n        /* \"#utility.yul\":4374:4383   */\n      dup2\n        /* \"#utility.yul\":4368:4372   */\n      dup2\n        /* \"#utility.yul\":4364:4384   */\n      sub\n        /* \"#utility.yul\":4360:4361   */\n      0x00\n        /* \"#utility.yul\":4349:4358   */\n      dup4\n        /* \"#utility.yul\":4345:4362   */\n      add\n        /* \"#utility.yul\":4338:4385   */\n      mstore\n        /* \"#utility.yul\":4402:4480   */\n      tag_195\n        /* \"#utility.yul\":4475:4479   */\n      dup2\n        /* \"#utility.yul\":4466:4472   */\n      dup9\n        /* \"#utility.yul\":4402:4480   */\n      tag_108\n      jump\t// in\n    tag_195:\n        /* \"#utility.yul\":4394:4480   */\n      swap1\n      pop\n        /* \"#utility.yul\":4490:4562   */\n      tag_196\n        /* \"#utility.yul\":4558:4560   */\n      0x20\n        /* \"#utility.yul\":4547:4556   */\n      dup4\n        /* \"#utility.yul\":4543:4561   */\n      add\n        /* \"#utility.yul\":4534:4540   */\n      dup8\n        /* \"#utility.yul\":4490:4562   */\n      tag_109\n      jump\t// in\n    tag_196:\n        /* \"#utility.yul\":4572:4660   */\n      tag_197\n        /* \"#utility.yul\":4656:4658   */\n      0x40\n        /* \"#utility.yul\":4645:4654   */\n      dup4\n        /* \"#utility.yul\":4641:4659   */\n      add\n        /* \"#utility.yul\":4632:4638   */\n      dup7\n        /* \"#utility.yul\":4572:4660   */\n      tag_111\n      jump\t// in\n    tag_197:\n        /* \"#utility.yul\":4670:4742   */\n      tag_198\n        /* \"#utility.yul\":4738:4740   */\n      0x60\n        /* \"#utility.yul\":4727:4736   */\n      dup4\n        /* \"#utility.yul\":4723:4741   */\n      add\n        /* \"#utility.yul\":4714:4720   */\n      dup6\n        /* \"#utility.yul\":4670:4742   */\n      tag_109\n      jump\t// in\n    tag_198:\n        /* \"#utility.yul\":4752:4819   */\n      tag_199\n        /* \"#utility.yul\":4814:4817   */\n      0x80\n        /* \"#utility.yul\":4803:4812   */\n      dup4\n        /* \"#utility.yul\":4799:4818   */\n      add\n        /* \"#utility.yul\":4790:4796   */\n      dup5\n        /* \"#utility.yul\":4752:4819   */\n      tag_102\n      jump\t// in\n    tag_199:\n        /* \"#utility.yul\":4051:4826   */\n      swap7\n      swap6\n      pop\n      pop\n      pop\n      pop\n      pop\n      pop\n      jump\t// out\n        /* \"#utility.yul\":4832:4949   */\n    tag_112:\n        /* \"#utility.yul\":4941:4942   */\n      0x00\n        /* \"#utility.yul\":4938:4939   */\n      dup1\n        /* \"#utility.yul\":4931:4943   */\n      revert\n        /* \"#utility.yul\":4955:5072   */\n    tag_113:\n        /* \"#utility.yul\":5064:5065   */\n      0x00\n        /* \"#utility.yul\":5061:5062   */\n      dup1\n        /* \"#utility.yul\":5054:5066   */\n      revert\n        /* \"#utility.yul\":5078:5258   */\n    tag_114:\n        /* \"#utility.yul\":5126:5203   */\n      0x4e487b7100000000000000000000000000000000000000000000000000000000\n        /* \"#utility.yul\":5123:5124   */\n      0x00\n        /* \"#utility.yul\":5116:5204   */\n      mstore\n        /* \"#utility.yul\":5223:5227   */\n      0x41\n        /* \"#utility.yul\":5220:5221   */\n      0x04\n        /* \"#utility.yul\":5213:5228   */\n      mstore\n        /* \"#utility.yul\":5247:5251   */\n      0x24\n        /* \"#utility.yul\":5244:5245   */\n      0x00\n        /* \"#utility.yul\":5237:5252   */\n      revert\n        /* \"#utility.yul\":5264:5545   */\n    tag_115:\n        /* \"#utility.yul\":5347:5374   */\n      tag_204\n        /* \"#utility.yul\":5369:5373   */\n      dup3\n        /* \"#utility.yul\":5347:5374   */\n      tag_107\n      jump\t// in\n    tag_204:\n        /* \"#utility.yul\":5339:5345   */\n      dup2\n        /* \"#utility.yul\":5335:5375   */\n      add\n        /* \"#utility.yul\":5477:5483   */\n      dup2\n        /* \"#utility.yul\":5465:5475   */\n      dup2\n        /* \"#utility.yul\":5462:5484   */\n      lt\n        /* \"#utility.yul\":5441:5459   */\n      0xffffffffffffffff\n        /* \"#utility.yul\":5429:5439   */\n      dup3\n        /* \"#utility.yul\":5426:5460   */\n      gt\n        /* \"#utility.yul\":5423:5485   */\n      or\n        /* \"#utility.yul\":5420:5508   */\n      iszero\n      tag_205\n      jumpi\n        /* \"#utility.yul\":5488:5506   */\n      tag_206\n      tag_114\n      jump\t// in\n    tag_206:\n        /* \"#utility.yul\":5420:5508   */\n    tag_205:\n        /* \"#utility.yul\":5528:5538   */\n      dup1\n        /* \"#utility.yul\":5524:5526   */\n      0x40\n        /* \"#utility.yul\":5517:5539   */\n      mstore\n        /* \"#utility.yul\":5307:5545   */\n      pop\n        /* \"#utility.yul\":5264:5545   */\n      pop\n      pop\n      jump\t// out\n        /* \"#utility.yul\":5551:5680   */\n    tag_116:\n        /* \"#utility.yul\":5585:5591   */\n      0x00\n        /* \"#utility.yul\":5612:5632   */\n      tag_208\n      tag_91\n      jump\t// in\n    tag_208:\n        /* \"#utility.yul\":5602:5632   */\n      swap1\n      pop\n        /* \"#utility.yul\":5641:5674   */\n      tag_209\n        /* \"#utility.yul\":5669:5673   */\n      dup3\n        /* \"#utility.yul\":5661:5667   */\n      dup3\n        /* \"#utility.yul\":5641:5674   */\n      tag_115\n      jump\t// in\n    tag_209:\n        /* \"#utility.yul\":5551:5680   */\n      swap2\n      swap1\n      pop\n      jump\t// out\n        /* \"#utility.yul\":5686:5994   */\n    tag_117:\n        /* \"#utility.yul\":5748:5752   */\n      0x00\n        /* \"#utility.yul\":5838:5856   */\n      0xffffffffffffffff\n        /* \"#utility.yul\":5830:5836   */\n      dup3\n        /* \"#utility.yul\":5827:5857   */\n      gt\n        /* \"#utility.yul\":5824:5880   */\n      iszero\n      tag_211\n      jumpi\n        /* \"#utility.yul\":5860:5878   */\n      tag_212\n      tag_114\n      jump\t// in\n    tag_212:\n        /* \"#utility.yul\":5824:5880   */\n    tag_211:\n        /* \"#utility.yul\":5898:5927   */\n      tag_213\n        /* \"#utility.yul\":5920:5926   */\n      dup3\n        /* \"#utility.yul\":5898:5927   */\n      tag_107\n      jump\t// in\n    tag_213:\n        /* \"#utility.yul\":5890:5927   */\n      swap1\n      pop\n        /* \"#utility.yul\":5982:5986   */\n      0x20\n        /* \"#utility.yul\":5976:5980   */\n      dup2\n        /* \"#utility.yul\":5972:5987   */\n      add\n        /* \"#utility.yul\":5964:5987   */\n      swap1\n      pop\n        /* \"#utility.yul\":5686:5994   */\n      swap2\n      swap1\n      pop\n      jump\t// out\n        /* \"#utility.yul\":6000:6146   */\n    tag_118:\n        /* \"#utility.yul\":6097:6103   */\n      dup3\n        /* \"#utility.yul\":6092:6095   */\n      dup2\n        /* \"#utility.yul\":6087:6090   */\n      dup4\n        /* \"#utility.yul\":6074:6104   */\n      calldatacopy\n        /* \"#utility.yul\":6138:6139   */\n      0x00\n        /* \"#utility.yul\":6129:6135   */\n      dup4\n        /* \"#utility.yul\":6124:6127   */\n      dup4\n        /* \"#utility.yul\":6120:6136   */\n      add\n        /* \"#utility.yul\":6113:6140   */\n      mstore\n        /* \"#utility.yul\":6000:6146   */\n      pop\n      pop\n      pop\n      jump\t// out\n        /* \"#utility.yul\":6152:6577   */\n    tag_119:\n        /* \"#utility.yul\":6230:6235   */\n      0x00\n        /* \"#utility.yul\":6255:6321   */\n      tag_216\n        /* \"#utility.yul\":6271:6320   */\n      tag_217\n        /* \"#utility.yul\":6313:6319   */\n      dup5\n        /* \"#utility.yul\":6271:6320   */\n      tag_117\n      jump\t// in\n    tag_217:\n        /* \"#utility.yul\":6255:6321   */\n      tag_116\n      jump\t// in\n    tag_216:\n        /* \"#utility.yul\":6246:6321   */\n      swap1\n      pop\n        /* \"#utility.yul\":6344:6350   */\n      dup3\n        /* \"#utility.yul\":6337:6342   */\n      dup2\n        /* \"#utility.yul\":6330:6351   */\n      mstore\n        /* \"#utility.yul\":6382:6386   */\n      0x20\n        /* \"#utility.yul\":6375:6380   */\n      dup2\n        /* \"#utility.yul\":6371:6387   */\n      add\n        /* \"#utility.yul\":6420:6423   */\n      dup5\n        /* \"#utility.yul\":6411:6417   */\n      dup5\n        /* \"#utility.yul\":6406:6409   */\n      dup5\n        /* \"#utility.yul\":6402:6418   */\n      add\n        /* \"#utility.yul\":6399:6424   */\n      gt\n        /* \"#utility.yul\":6396:6508   */\n      iszero\n      tag_218\n      jumpi\n        /* \"#utility.yul\":6427:6506   */\n      tag_219\n      tag_113\n      jump\t// in\n    tag_219:\n        /* \"#utility.yul\":6396:6508   */\n    tag_218:\n        /* \"#utility.yul\":6517:6571   */\n      tag_220\n        /* \"#utility.yul\":6564:6570   */\n      dup5\n        /* \"#utility.yul\":6559:6562   */\n      dup3\n        /* \"#utility.yul\":6554:6557   */\n      dup6\n        /* \"#utility.yul\":6517:6571   */\n      tag_118\n      jump\t// in\n    tag_220:\n        /* \"#utility.yul\":6236:6577   */\n      pop\n        /* \"#utility.yul\":6152:6577   */\n      swap4\n      swap3\n      pop\n      pop\n      pop\n      jump\t// out\n        /* \"#utility.yul\":6597:6937   */\n    tag_120:\n        /* \"#utility.yul\":6653:6658   */\n      0x00\n        /* \"#utility.yul\":6702:6705   */\n      dup3\n        /* \"#utility.yul\":6695:6699   */\n      0x1f\n        /* \"#utility.yul\":6687:6693   */\n      dup4\n        /* \"#utility.yul\":6683:6700   */\n      add\n        /* \"#utility.yul\":6679:6706   */\n      slt\n        /* \"#utility.yul\":6669:6791   */\n      tag_222\n      jumpi\n        /* \"#utility.yul\":6710:6789   */\n      tag_223\n      tag_112\n      jump\t// in\n    tag_223:\n        /* \"#utility.yul\":6669:6791   */\n    tag_222:\n        /* \"#utility.yul\":6827:6833   */\n      dup2\n        /* \"#utility.yul\":6814:6834   */\n      calldataload\n        /* \"#utility.yul\":6852:6931   */\n      tag_224\n        /* \"#utility.yul\":6927:6930   */\n      dup5\n        /* \"#utility.yul\":6919:6925   */\n      dup3\n        /* \"#utility.yul\":6912:6916   */\n      0x20\n        /* \"#utility.yul\":6904:6910   */\n      dup7\n        /* \"#utility.yul\":6900:6917   */\n      add\n        /* \"#utility.yul\":6852:6931   */\n      tag_119\n      jump\t// in\n    tag_224:\n        /* \"#utility.yul\":6843:6931   */\n      swap2\n      pop\n        /* \"#utility.yul\":6659:6937   */\n      pop\n        /* \"#utility.yul\":6597:6937   */\n      swap3\n      swap2\n      pop\n      pop\n      jump\t// out\n        /* \"#utility.yul\":6943:7081   */\n    tag_121:\n        /* \"#utility.yul\":7024:7056   */\n      tag_226\n        /* \"#utility.yul\":7050:7055   */\n      dup2\n        /* \"#utility.yul\":7024:7056   */\n      tag_110\n      jump\t// in\n    tag_226:\n        /* \"#utility.yul\":7017:7022   */\n      dup2\n        /* \"#utility.yul\":7014:7057   */\n      eq\n        /* \"#utility.yul\":7004:7075   */\n      tag_227\n      jumpi\n        /* \"#utility.yul\":7071:7072   */\n      0x00\n        /* \"#utility.yul\":7068:7069   */\n      dup1\n        /* \"#utility.yul\":7061:7073   */\n      revert\n        /* \"#utility.yul\":7004:7075   */\n    tag_227:\n        /* \"#utility.yul\":6943:7081   */\n      pop\n      jump\t// out\n        /* \"#utility.yul\":7087:7242   */\n    tag_122:\n        /* \"#utility.yul\":7141:7146   */\n      0x00\n        /* \"#utility.yul\":7179:7185   */\n      dup2\n        /* \"#utility.yul\":7166:7186   */\n      calldataload\n        /* \"#utility.yul\":7157:7186   */\n      swap1\n      pop\n        /* \"#utility.yul\":7195:7236   */\n      tag_229\n        /* \"#utility.yul\":7230:7235   */\n      dup2\n        /* \"#utility.yul\":7195:7236   */\n      tag_121\n      jump\t// in\n    tag_229:\n        /* \"#utility.yul\":7087:7242   */\n      swap3\n      swap2\n      pop\n      pop\n      jump\t// out\n        /* \"#utility.yul\":7248:8063   */\n    tag_37:\n        /* \"#utility.yul\":7343:7349   */\n      0x00\n        /* \"#utility.yul\":7351:7357   */\n      dup1\n        /* \"#utility.yul\":7359:7365   */\n      0x00\n        /* \"#utility.yul\":7408:7410   */\n      0x60\n        /* \"#utility.yul\":7396:7405   */\n      dup5\n        /* \"#utility.yul\":7387:7394   */\n      dup7\n        /* \"#utility.yul\":7383:7406   */\n      sub\n        /* \"#utility.yul\":7379:7411   */\n      slt\n        /* \"#utility.yul\":7376:7495   */\n      iszero\n      tag_231\n      jumpi\n        /* \"#utility.yul\":7414:7493   */\n      tag_232\n      tag_92\n      jump\t// in\n    tag_232:\n        /* \"#utility.yul\":7376:7495   */\n    tag_231:\n        /* \"#utility.yul\":7562:7563   */\n      0x00\n        /* \"#utility.yul\":7551:7560   */\n      dup5\n        /* \"#utility.yul\":7547:7564   */\n      add\n        /* \"#utility.yul\":7534:7565   */\n      calldataload\n        /* \"#utility.yul\":7592:7610   */\n      0xffffffffffffffff\n        /* \"#utility.yul\":7584:7590   */\n      dup2\n        /* \"#utility.yul\":7581:7611   */\n      gt\n        /* \"#utility.yul\":7578:7695   */\n      iszero\n      tag_233\n      jumpi\n        /* \"#utility.yul\":7614:7693   */\n      tag_234\n      tag_93\n      jump\t// in\n    tag_234:\n        /* \"#utility.yul\":7578:7695   */\n    tag_233:\n        /* \"#utility.yul\":7719:7782   */\n      tag_235\n        /* \"#utility.yul\":7774:7781   */\n      dup7\n        /* \"#utility.yul\":7765:7771   */\n      dup3\n        /* \"#utility.yul\":7754:7763   */\n      dup8\n        /* \"#utility.yul\":7750:7772   */\n      add\n        /* \"#utility.yul\":7719:7782   */\n      tag_120\n      jump\t// in\n    tag_235:\n        /* \"#utility.yul\":7709:7782   */\n      swap4\n      pop\n        /* \"#utility.yul\":7505:7792   */\n      pop\n        /* \"#utility.yul\":7831:7833   */\n      0x20\n        /* \"#utility.yul\":7857:7910   */\n      tag_236\n        /* \"#utility.yul\":7902:7909   */\n      dup7\n        /* \"#utility.yul\":7893:7899   */\n      dup3\n        /* \"#utility.yul\":7882:7891   */\n      dup8\n        /* \"#utility.yul\":7878:7900   */\n      add\n        /* \"#utility.yul\":7857:7910   */\n      tag_96\n      jump\t// in\n    tag_236:\n        /* \"#utility.yul\":7847:7910   */\n      swap3\n      pop\n        /* \"#utility.yul\":7802:7920   */\n      pop\n        /* \"#utility.yul\":7959:7961   */\n      0x40\n        /* \"#utility.yul\":7985:8046   */\n      tag_237\n        /* \"#utility.yul\":8038:8045   */\n      dup7\n        /* \"#utility.yul\":8029:8035   */\n      dup3\n        /* \"#utility.yul\":8018:8027   */\n      dup8\n        /* \"#utility.yul\":8014:8036   */\n      add\n        /* \"#utility.yul\":7985:8046   */\n      tag_122\n      jump\t// in\n    tag_237:\n        /* \"#utility.yul\":7975:8046   */\n      swap2\n      pop\n        /* \"#utility.yul\":7930:8056   */\n      pop\n        /* \"#utility.yul\":7248:8063   */\n      swap3\n      pop\n      swap3\n      pop\n      swap3\n      jump\t// out\n        /* \"#utility.yul\":8069:8291   */\n    tag_43:\n        /* \"#utility.yul\":8162:8166   */\n      0x00\n        /* \"#utility.yul\":8200:8202   */\n      0x20\n        /* \"#utility.yul\":8189:8198   */\n      dup3\n        /* \"#utility.yul\":8185:8203   */\n      add\n        /* \"#utility.yul\":8177:8203   */\n      swap1\n      pop\n        /* \"#utility.yul\":8213:8284   */\n      tag_239\n        /* \"#utility.yul\":8281:8282   */\n      0x00\n        /* \"#utility.yul\":8270:8279   */\n      dup4\n        /* \"#utility.yul\":8266:8283   */\n      add\n        /* \"#utility.yul\":8257:8263   */\n      dup5\n        /* \"#utility.yul\":8213:8284   */\n      tag_109\n      jump\t// in\n    tag_239:\n        /* \"#utility.yul\":8069:8291   */\n      swap3\n      swap2\n      pop\n      pop\n      jump\t// out\n        /* \"#utility.yul\":8297:8477   */\n    tag_55:\n        /* \"#utility.yul\":8345:8422   */\n      0x4e487b7100000000000000000000000000000000000000000000000000000000\n        /* \"#utility.yul\":8342:8343   */\n      0x00\n        /* \"#utility.yul\":8335:8423   */\n      mstore\n        /* \"#utility.yul\":8442:8446   */\n      0x32\n        /* \"#utility.yul\":8439:8440   */\n      0x04\n        /* \"#utility.yul\":8432:8447   */\n      mstore\n        /* \"#utility.yul\":8466:8470   */\n      0x24\n        /* \"#utility.yul\":8463:8464   */\n      0x00\n        /* \"#utility.yul\":8456:8471   */\n      revert\n        /* \"#utility.yul\":8483:8663   */\n    tag_123:\n        /* \"#utility.yul\":8531:8608   */\n      0x4e487b7100000000000000000000000000000000000000000000000000000000\n        /* \"#utility.yul\":8528:8529   */\n      0x00\n        /* \"#utility.yul\":8521:8609   */\n      mstore\n        /* \"#utility.yul\":8628:8632   */\n      0x12\n        /* \"#utility.yul\":8625:8626   */\n      0x04\n        /* \"#utility.yul\":8618:8633   */\n      mstore\n        /* \"#utility.yul\":8652:8656   */\n      0x24\n        /* \"#utility.yul\":8649:8650   */\n      0x00\n        /* \"#utility.yul\":8642:8657   */\n      revert\n        /* \"#utility.yul\":8669:8849   */\n    tag_124:\n        /* \"#utility.yul\":8717:8794   */\n      0x4e487b7100000000000000000000000000000000000000000000000000000000\n        /* \"#utility.yul\":8714:8715   */\n      0x00\n        /* \"#utility.yul\":8707:8795   */\n      mstore\n        /* \"#utility.yul\":8814:8818   */\n      0x11\n        /* \"#utility.yul\":8811:8812   */\n      0x04\n        /* \"#utility.yul\":8804:8819   */\n      mstore\n        /* \"#utility.yul\":8838:8842   */\n      0x24\n        /* \"#utility.yul\":8835:8836   */\n      0x00\n        /* \"#utility.yul\":8828:8843   */\n      revert\n        /* \"#utility.yul\":8855:9040   */\n    tag_58:\n        /* \"#utility.yul\":8895:8896   */\n      0x00\n        /* \"#utility.yul\":8912:8932   */\n      tag_244\n        /* \"#utility.yul\":8930:8931   */\n      dup3\n        /* \"#utility.yul\":8912:8932   */\n      tag_94\n      jump\t// in\n    tag_244:\n        /* \"#utility.yul\":8907:8932   */\n      swap2\n      pop\n        /* \"#utility.yul\":8946:8966   */\n      tag_245\n        /* \"#utility.yul\":8964:8965   */\n      dup4\n        /* \"#utility.yul\":8946:8966   */\n      tag_94\n      jump\t// in\n    tag_245:\n        /* \"#utility.yul\":8941:8966   */\n      swap3\n      pop\n        /* \"#utility.yul\":8985:8986   */\n      dup3\n        /* \"#utility.yul\":8975:9010   */\n      tag_246\n      jumpi\n        /* \"#utility.yul\":8990:9008   */\n      tag_247\n      tag_123\n      jump\t// in\n    tag_247:\n        /* \"#utility.yul\":8975:9010   */\n    tag_246:\n        /* \"#utility.yul\":9032:9033   */\n      dup3\n        /* \"#utility.yul\":9029:9030   */\n      dup3\n        /* \"#utility.yul\":9025:9034   */\n      div\n        /* \"#utility.yul\":9020:9034   */\n      swap1\n      pop\n        /* \"#utility.yul\":8855:9040   */\n      swap3\n      swap2\n      pop\n      pop\n      jump\t// out\n        /* \"#utility.yul\":9046:9226   */\n    tag_125:\n        /* \"#utility.yul\":9094:9171   */\n      0x4e487b7100000000000000000000000000000000000000000000000000000000\n        /* \"#utility.yul\":9091:9092   */\n      0x00\n        /* \"#utility.yul\":9084:9172   */\n      mstore\n        /* \"#utility.yul\":9191:9195   */\n      0x22\n        /* \"#utility.yul\":9188:9189   */\n      0x04\n        /* \"#utility.yul\":9181:9196   */\n      mstore\n        /* \"#utility.yul\":9215:9219   */\n      0x24\n        /* \"#utility.yul\":9212:9213   */\n      0x00\n        /* \"#utility.yul\":9205:9220   */\n      revert\n        /* \"#utility.yul\":9232:9552   */\n    tag_66:\n        /* \"#utility.yul\":9276:9282   */\n      0x00\n        /* \"#utility.yul\":9313:9314   */\n      0x02\n        /* \"#utility.yul\":9307:9311   */\n      dup3\n        /* \"#utility.yul\":9303:9315   */\n      div\n        /* \"#utility.yul\":9293:9315   */\n      swap1\n      pop\n        /* \"#utility.yul\":9360:9361   */\n      0x01\n        /* \"#utility.yul\":9354:9358   */\n      dup3\n        /* \"#utility.yul\":9350:9362   */\n      and\n        /* \"#utility.yul\":9381:9399   */\n      dup1\n        /* \"#utility.yul\":9371:9452   */\n      tag_250\n      jumpi\n        /* \"#utility.yul\":9437:9441   */\n      0x7f\n        /* \"#utility.yul\":9429:9435   */\n      dup3\n        /* \"#utility.yul\":9425:9442   */\n      and\n        /* \"#utility.yul\":9415:9442   */\n      swap2\n      pop\n        /* \"#utility.yul\":9371:9452   */\n    tag_250:\n        /* \"#utility.yul\":9499:9501   */\n      0x20\n        /* \"#utility.yul\":9491:9497   */\n      dup3\n        /* \"#utility.yul\":9488:9502   */\n      lt\n        /* \"#utility.yul\":9468:9486   */\n      dup2\n        /* \"#utility.yul\":9465:9503   */\n      sub\n        /* \"#utility.yul\":9462:9546   */\n      tag_251\n      jumpi\n        /* \"#utility.yul\":9518:9536   */\n      tag_252\n      tag_125\n      jump\t// in\n    tag_252:\n        /* \"#utility.yul\":9462:9546   */\n    tag_251:\n        /* \"#utility.yul\":9283:9552   */\n      pop\n        /* \"#utility.yul\":9232:9552   */\n      swap2\n      swap1\n      pop\n      jump\t// out\n        /* \"#utility.yul\":9558:9699   */\n    tag_126:\n        /* \"#utility.yul\":9607:9611   */\n      0x00\n        /* \"#utility.yul\":9630:9633   */\n      dup2\n        /* \"#utility.yul\":9622:9633   */\n      swap1\n      pop\n        /* \"#utility.yul\":9653:9656   */\n      dup2\n        /* \"#utility.yul\":9650:9651   */\n      0x00\n        /* \"#utility.yul\":9643:9657   */\n      mstore\n        /* \"#utility.yul\":9687:9691   */\n      0x20\n        /* \"#utility.yul\":9684:9685   */\n      0x00\n        /* \"#utility.yul\":9674:9692   */\n      keccak256\n        /* \"#utility.yul\":9666:9692   */\n      swap1\n      pop\n        /* \"#utility.yul\":9558:9699   */\n      swap2\n      swap1\n      pop\n      jump\t// out\n        /* \"#utility.yul\":9705:9798   */\n    tag_127:\n        /* \"#utility.yul\":9742:9748   */\n      0x00\n        /* \"#utility.yul\":9789:9791   */\n      0x20\n        /* \"#utility.yul\":9784:9786   */\n      0x1f\n        /* \"#utility.yul\":9777:9782   */\n      dup4\n        /* \"#utility.yul\":9773:9787   */\n      add\n        /* \"#utility.yul\":9769:9792   */\n      div\n        /* \"#utility.yul\":9759:9792   */\n      swap1\n      pop\n        /* \"#utility.yul\":9705:9798   */\n      swap2\n      swap1\n      pop\n      jump\t// out\n        /* \"#utility.yul\":9804:9911   */\n    tag_128:\n        /* \"#utility.yul\":9848:9856   */\n      0x00\n        /* \"#utility.yul\":9898:9903   */\n      dup3\n        /* \"#utility.yul\":9892:9896   */\n      dup3\n        /* \"#utility.yul\":9888:9904   */\n      shl\n        /* \"#utility.yul\":9867:9904   */\n      swap1\n      pop\n        /* \"#utility.yul\":9804:9911   */\n      swap3\n      swap2\n      pop\n      pop\n      jump\t// out\n        /* \"#utility.yul\":9917:10310   */\n    tag_129:\n        /* \"#utility.yul\":9986:9992   */\n      0x00\n        /* \"#utility.yul\":10036:10037   */\n      0x08\n        /* \"#utility.yul\":10024:10034   */\n      dup4\n        /* \"#utility.yul\":10020:10038   */\n      mul\n        /* \"#utility.yul\":10059:10156   */\n      tag_257\n        /* \"#utility.yul\":10089:10155   */\n      0xffffffffffffffffffffffffffffffffffffffffffffffffffffffffffffffff\n        /* \"#utility.yul\":10078:10087   */\n      dup3\n        /* \"#utility.yul\":10059:10156   */\n      tag_128\n      jump\t// in\n    tag_257:\n        /* \"#utility.yul\":10177:10216   */\n      tag_258\n        /* \"#utility.yul\":10207:10215   */\n      dup7\n        /* \"#utility.yul\":10196:10205   */\n      dup4\n        /* \"#utility.yul\":10177:10216   */\n      tag_128\n      jump\t// in\n    tag_258:\n        /* \"#utility.yul\":10165:10216   */\n      swap6\n      pop\n        /* \"#utility.yul\":10249:10253   */\n      dup1\n        /* \"#utility.yul\":10245:10254   */\n      not\n        /* \"#utility.yul\":10238:10243   */\n      dup5\n        /* \"#utility.yul\":10234:10255   */\n      and\n        /* \"#utility.yul\":10225:10255   */\n      swap4\n      pop\n        /* \"#utility.yul\":10298:10302   */\n      dup1\n        /* \"#utility.yul\":10288:10296   */\n      dup7\n        /* \"#utility.yul\":10284:10303   */\n      and\n        /* \"#utility.yul\":10277:10282   */\n      dup5\n        /* \"#utility.yul\":10274:10304   */\n      or\n        /* \"#utility.yul\":10264:10304   */\n      swap3\n      pop\n        /* \"#utility.yul\":9993:10310   */\n      pop\n      pop\n        /* \"#utility.yul\":9917:10310   */\n      swap4\n      swap3\n      pop\n      pop\n      pop\n      jump\t// out\n        /* \"#utility.yul\":10316:10376   */\n    tag_130:\n        /* \"#utility.yul\":10344:10347   */\n      0x00\n        /* \"#utility.yul\":10365:10370   */\n      dup2\n        /* \"#utility.yul\":10358:10370   */\n      swap1\n      pop\n        /* \"#utility.yul\":10316:10376   */\n      swap2\n      swap1\n      pop\n      jump\t// out\n        /* \"#utility.yul\":10382:10524   */\n    tag_131:\n        /* \"#utility.yul\":10432:10441   */\n      0x00\n        /* \"#utility.yul\":10465:10518   */\n      tag_261\n        /* \"#utility.yul\":10483:10517   */\n      tag_262\n        /* \"#utility.yul\":10492:10516   */\n      tag_263\n        /* \"#utility.yul\":10510:10515   */\n      dup5\n        /* \"#utility.yul\":10492:10516   */\n      tag_94\n      jump\t// in\n    tag_263:\n        /* \"#utility.yul\":10483:10517   */\n      tag_130\n      jump\t// in\n    tag_262:\n        /* \"#utility.yul\":10465:10518   */\n      tag_94\n      jump\t// in\n    tag_261:\n        /* \"#utility.yul\":10452:10518   */\n      swap1\n      pop\n        /* \"#utility.yul\":10382:10524   */\n      swap2\n      swap1\n      pop\n      jump\t// out\n        /* \"#utility.yul\":10530:10605   */\n    tag_132:\n        /* \"#utility.yul\":10573:10576   */\n      0x00\n        /* \"#utility.yul\":10594:10599   */\n      dup2\n        /* \"#utility.yul\":10587:10599   */\n      swap1\n      pop\n        /* \"#utility.yul\":10530:10605   */\n      swap2\n      swap1\n      pop\n      jump\t// out\n        /* \"#utility.yul\":10611:10880   */\n    tag_133:\n        /* \"#utility.yul\":10721:10760   */\n      tag_266\n        /* \"#utility.yul\":10752:10759   */\n      dup4\n        /* \"#utility.yul\":10721:10760   */\n      tag_131\n      jump\t// in\n    tag_266:\n        /* \"#utility.yul\":10782:10873   */\n      tag_267\n        /* \"#utility.yul\":10831:10872   */\n      tag_268\n        /* \"#utility.yul\":10855:10871   */\n      dup3\n        /* \"#utility.yul\":10831:10872   */\n      tag_132\n      jump\t// in\n    tag_268:\n        /* \"#utility.yul\":10823:10829   */\n      dup5\n        /* \"#utility.yul\":10816:10820   */\n      dup5\n        /* \"#utility.yul\":10810:10821   */\n      sload\n        /* \"#utility.yul\":10782:10873   */\n      tag_129\n      jump\t// in\n    tag_267:\n        /* \"#utility.yul\":10776:10780   */\n      dup3\n        /* \"#utility.yul\":10769:10874   */\n      sstore\n        /* \"#utility.yul\":10687:10880   */\n      pop\n        /* \"#utility.yul\":10611:10880   */\n      pop\n      pop\n      pop\n      jump\t// out\n        /* \"#utility.yul\":10886:10959   */\n    tag_134:\n        /* \"#utility.yul\":10931:10934   */\n      0x00\n        /* \"#utility.yul\":10886:10959   */\n      swap1\n      jump\t// out\n        /* \"#utility.yul\":10965:11154   */\n    tag_135:\n        /* \"#utility.yul\":11042:11074   */\n      tag_271\n      tag_134\n      jump\t// in\n    tag_271:\n        /* \"#utility.yul\":11083:11148   */\n      tag_272\n        /* \"#utility.yul\":11141:11147   */\n      dup2\n        /* \"#utility.yul\":11133:11139   */\n      dup5\n        /* \"#utility.yul\":11127:11131   */\n      dup5\n        /* \"#utility.yul\":11083:11148   */\n      tag_133\n      jump\t// in\n    tag_272:\n        /* \"#utility.yul\":11018:11154   */\n      pop\n        /* \"#utility.yul\":10965:11154   */\n      pop\n      pop\n      jump\t// out\n        /* \"#utility.yul\":11160:11346   */\n    tag_136:\n        /* \"#utility.yul\":11220:11340   */\n    tag_274:\n        /* \"#utility.yul\":11237:11240   */\n      dup2\n        /* \"#utility.yul\":11230:11235   */\n      dup2\n        /* \"#utility.yul\":11227:11241   */\n      lt\n        /* \"#utility.yul\":11220:11340   */\n      iszero\n      tag_276\n      jumpi\n        /* \"#utility.yul\":11291:11330   */\n      tag_277\n        /* \"#utility.yul\":11328:11329   */\n      0x00\n        /* \"#utility.yul\":11321:11326   */\n      dup3\n        /* \"#utility.yul\":11291:11330   */\n      tag_135\n      jump\t// in\n    tag_277:\n        /* \"#utility.yul\":11264:11265   */\n      0x01\n        /* \"#utility.yul\":11257:11262   */\n      dup2\n        /* \"#utility.yul\":11253:11266   */\n      add\n        /* \"#utility.yul\":11244:11266   */\n      swap1\n      pop\n        /* \"#utility.yul\":11220:11340   */\n      jump(tag_274)\n    tag_276:\n        /* \"#utility.yul\":11160:11346   */\n      pop\n      pop\n      jump\t// out\n        /* \"#utility.yul\":11352:11895   */\n    tag_137:\n        /* \"#utility.yul\":11453:11455   */\n      0x1f\n        /* \"#utility.yul\":11448:11451   */\n      dup3\n        /* \"#utility.yul\":11445:11456   */\n      gt\n        /* \"#utility.yul\":11442:11888   */\n      iszero\n      tag_279\n      jumpi\n        /* \"#utility.yul\":11487:11525   */\n      tag_280\n        /* \"#utility.yul\":11519:11524   */\n      dup2\n        /* \"#utility.yul\":11487:11525   */\n      tag_126\n      jump\t// in\n    tag_280:\n        /* \"#utility.yul\":11571:11600   */\n      tag_281\n        /* \"#utility.yul\":11589:11599   */\n      dup5\n        /* \"#utility.yul\":11571:11600   */\n      tag_127\n      jump\t// in\n    tag_281:\n        /* \"#utility.yul\":11561:11569   */\n      dup2\n        /* \"#utility.yul\":11557:11601   */\n      add\n        /* \"#utility.yul\":11754:11756   */\n      0x20\n        /* \"#utility.yul\":11742:11752   */\n      dup6\n        /* \"#utility.yul\":11739:11757   */\n      lt\n        /* \"#utility.yul\":11736:11785   */\n      iszero\n      tag_282\n      jumpi\n        /* \"#utility.yul\":11775:11783   */\n      dup2\n        /* \"#utility.yul\":11760:11783   */\n      swap1\n      pop\n        /* \"#utility.yul\":11736:11785   */\n    tag_282:\n        /* \"#utility.yul\":11798:11878   */\n      tag_283\n        /* \"#utility.yul\":11854:11876   */\n      tag_284\n        /* \"#utility.yul\":11872:11875   */\n      dup6\n        /* \"#utility.yul\":11854:11876   */\n      tag_127\n      jump\t// in\n    tag_284:\n        /* \"#utility.yul\":11844:11852   */\n      dup4\n        /* \"#utility.yul\":11840:11877   */\n      add\n        /* \"#utility.yul\":11827:11838   */\n      dup3\n        /* \"#utility.yul\":11798:11878   */\n      tag_136\n      jump\t// in\n    tag_283:\n        /* \"#utility.yul\":11457:11888   */\n      pop\n      pop\n        /* \"#utility.yul\":11442:11888   */\n    tag_279:\n        /* \"#utility.yul\":11352:11895   */\n      pop\n      pop\n      pop\n      jump\t// out\n        /* \"#utility.yul\":11901:12018   */\n    tag_138:\n        /* \"#utility.yul\":11955:11963   */\n      0x00\n        /* \"#utility.yul\":12005:12010   */\n      dup3\n        /* \"#utility.yul\":11999:12003   */\n      dup3\n        /* \"#utility.yul\":11995:12011   */\n      shr\n        /* \"#utility.yul\":11974:12011   */\n      swap1\n      pop\n        /* \"#utility.yul\":11901:12018   */\n      swap3\n      swap2\n      pop\n      pop\n      jump\t// out\n        /* \"#utility.yul\":12024:12193   */\n    tag_139:\n        /* \"#utility.yul\":12068:12074   */\n      0x00\n        /* \"#utility.yul\":12101:12152   */\n      tag_287\n        /* \"#utility.yul\":12149:12150   */\n      0x00\n        /* \"#utility.yul\":12145:12151   */\n      not\n        /* \"#utility.yul\":12137:12142   */\n      dup5\n        /* \"#utility.yul\":12134:12135   */\n      0x08\n        /* \"#utility.yul\":12130:12143   */\n      mul\n        /* \"#utility.yul\":12101:12152   */\n      tag_138\n      jump\t// in\n    tag_287:\n        /* \"#utility.yul\":12097:12153   */\n      not\n        /* \"#utility.yul\":12182:12186   */\n      dup1\n        /* \"#utility.yul\":12176:12180   */\n      dup4\n        /* \"#utility.yul\":12172:12187   */\n      and\n        /* \"#utility.yul\":12162:12187   */\n      swap2\n      pop\n        /* \"#utility.yul\":12075:12193   */\n      pop\n        /* \"#utility.yul\":12024:12193   */\n      swap3\n      swap2\n      pop\n      pop\n      jump\t// out\n        /* \"#utility.yul\":12198:12493   */\n    tag_140:\n        /* \"#utility.yul\":12274:12278   */\n      0x00\n        /* \"#utility.yul\":12420:12449   */\n      tag_289\n        /* \"#utility.yul\":12445:12448   */\n      dup4\n        /* \"#utility.yul\":12439:12443   */\n      dup4\n        /* \"#utility.yul\":12420:12449   */\n      tag_139\n      jump\t// in\n    tag_289:\n        /* \"#utility.yul\":12412:12449   */\n      swap2\n      pop\n        /* \"#utility.yul\":12482:12485   */\n      dup3\n        /* \"#utility.yul\":12479:12480   */\n      0x02\n        /* \"#utility.yul\":12475:12486   */\n      mul\n        /* \"#utility.yul\":12469:12473   */\n      dup3\n        /* \"#utility.yul\":12466:12487   */\n      or\n        /* \"#utility.yul\":12458:12487   */\n      swap1\n      pop\n        /* \"#utility.yul\":12198:12493   */\n      swap3\n      swap2\n      pop\n      pop\n      jump\t// out\n        /* \"#utility.yul\":12498:13893   */\n    tag_76:\n        /* \"#utility.yul\":12615:12652   */\n      tag_291\n        /* \"#utility.yul\":12648:12651   */\n      dup3\n        /* \"#utility.yul\":12615:12652   */\n      tag_104\n      jump\t// in\n    tag_291:\n        /* \"#utility.yul\":12717:12735   */\n      0xffffffffffffffff\n        /* \"#utility.yul\":12709:12715   */\n      dup2\n        /* \"#utility.yul\":12706:12736   */\n      gt\n        /* \"#utility.yul\":12703:12759   */\n      iszero\n      tag_292\n      jumpi\n        /* \"#utility.yul\":12739:12757   */\n      tag_293\n      tag_114\n      jump\t// in\n    tag_293:\n        /* \"#utility.yul\":12703:12759   */\n    tag_292:\n        /* \"#utility.yul\":12783:12821   */\n      tag_294\n        /* \"#utility.yul\":12815:12819   */\n      dup3\n        /* \"#utility.yul\":12809:12820   */\n      sload\n        /* \"#utility.yul\":12783:12821   */\n      tag_66\n      jump\t// in\n    tag_294:\n        /* \"#utility.yul\":12868:12935   */\n      tag_295\n        /* \"#utility.yul\":12928:12934   */\n      dup3\n        /* \"#utility.yul\":12920:12926   */\n      dup3\n        /* \"#utility.yul\":12914:12918   */\n      dup6\n        /* \"#utility.yul\":12868:12935   */\n      tag_137\n      jump\t// in\n    tag_295:\n        /* \"#utility.yul\":12962:12963   */\n      0x00\n        /* \"#utility.yul\":12986:12990   */\n      0x20\n        /* \"#utility.yul\":12973:12990   */\n      swap1\n      pop\n        /* \"#utility.yul\":13018:13020   */\n      0x1f\n        /* \"#utility.yul\":13010:13016   */\n      dup4\n        /* \"#utility.yul\":13007:13021   */\n      gt\n        /* \"#utility.yul\":13035:13036   */\n      0x01\n        /* \"#utility.yul\":13030:13648   */\n      dup2\n      eq\n      tag_297\n      jumpi\n        /* \"#utility.yul\":13692:13693   */\n      0x00\n        /* \"#utility.yul\":13709:13715   */\n      dup5\n        /* \"#utility.yul\":13706:13783   */\n      iszero\n      tag_298\n      jumpi\n        /* \"#utility.yul\":13758:13767   */\n      dup3\n        /* \"#utility.yul\":13753:13756   */\n      dup8\n        /* \"#utility.yul\":13749:13768   */\n      add\n        /* \"#utility.yul\":13743:13769   */\n      mload\n        /* \"#utility.yul\":13734:13769   */\n      swap1\n      pop\n        /* \"#utility.yul\":13706:13783   */\n    tag_298:\n        /* \"#utility.yul\":13809:13876   */\n      tag_299\n        /* \"#utility.yul\":13869:13875   */\n      dup6\n        /* \"#utility.yul\":13862:13867   */\n      dup3\n        /* \"#utility.yul\":13809:13876   */\n      tag_140\n      jump\t// in\n    tag_299:\n        /* \"#utility.yul\":13803:13807   */\n      dup7\n        /* \"#utility.yul\":13796:13877   */\n      sstore\n        /* \"#utility.yul\":13665:13887   */\n      pop\n        /* \"#utility.yul\":13000:13887   */\n      jump(tag_296)\n        /* \"#utility.yul\":13030:13648   */\n    tag_297:\n        /* \"#utility.yul\":13082:13086   */\n      0x1f\n        /* \"#utility.yul\":13078:13087   */\n      not\n        /* \"#utility.yul\":13070:13076   */\n      dup5\n        /* \"#utility.yul\":13066:13088   */\n      and\n        /* \"#utility.yul\":13116:13153   */\n      tag_300\n        /* \"#utility.yul\":13148:13152   */\n      dup7\n        /* \"#utility.yul\":13116:13153   */\n      tag_126\n      jump\t// in\n    tag_300:\n        /* \"#utility.yul\":13175:13176   */\n      0x00\n        /* \"#utility.yul\":13189:13397   */\n    tag_301:\n        /* \"#utility.yul\":13203:13210   */\n      dup3\n        /* \"#utility.yul\":13200:13201   */\n      dup2\n        /* \"#utility.yul\":13197:13211   */\n      lt\n        /* \"#utility.yul\":13189:13397   */\n      iszero\n      tag_303\n      jumpi\n        /* \"#utility.yul\":13282:13291   */\n      dup5\n        /* \"#utility.yul\":13277:13280   */\n      dup10\n        /* \"#utility.yul\":13273:13292   */\n      add\n        /* \"#utility.yul\":13267:13293   */\n      mload\n        /* \"#utility.yul\":13259:13265   */\n      dup3\n        /* \"#utility.yul\":13252:13294   */\n      sstore\n        /* \"#utility.yul\":13333:13334   */\n      0x01\n        /* \"#utility.yul\":13325:13331   */\n      dup3\n        /* \"#utility.yul\":13321:13335   */\n      add\n        /* \"#utility.yul\":13311:13335   */\n      swap2\n      pop\n        /* \"#utility.yul\":13380:13382   */\n      0x20\n        /* \"#utility.yul\":13369:13378   */\n      dup6\n        /* \"#utility.yul\":13365:13383   */\n      add\n        /* \"#utility.yul\":13352:13383   */\n      swap5\n      pop\n        /* \"#utility.yul\":13226:13230   */\n      0x20\n        /* \"#utility.yul\":13223:13224   */\n      dup2\n        /* \"#utility.yul\":13219:13231   */\n      add\n        /* \"#utility.yul\":13214:13231   */\n      swap1\n      pop\n        /* \"#utility.yul\":13189:13397   */\n      jump(tag_301)\n    tag_303:\n        /* \"#utility.yul\":13425:13431   */\n      dup7\n        /* \"#utility.yul\":13416:13423   */\n      dup4\n        /* \"#utility.yul\":13413:13432   */\n      lt\n        /* \"#utility.yul\":13410:13589   */\n      iszero\n      tag_304\n      jumpi\n        /* \"#utility.yul\":13483:13492   */\n      dup5\n        /* \"#utility.yul\":13478:13481   */\n      dup10\n        /* \"#utility.yul\":13474:13493   */\n      add\n        /* \"#utility.yul\":13468:13494   */\n      mload\n        /* \"#utility.yul\":13526:13574   */\n      tag_305\n        /* \"#utility.yul\":13568:13572   */\n      0x1f\n        /* \"#utility.yul\":13560:13566   */\n      dup10\n        /* \"#utility.yul\":13556:13573   */\n      and\n        /* \"#utility.yul\":13545:13554   */\n      dup3\n        /* \"#utility.yul\":13526:13574   */\n      tag_139\n      jump\t// in\n    tag_305:\n        /* \"#utility.yul\":13518:13524   */\n      dup4\n        /* \"#utility.yul\":13511:13575   */\n      sstore\n        /* \"#utility.yul\":13433:13589   */\n      pop\n        /* \"#utility.yul\":13410:13589   */\n    tag_304:\n        /* \"#utility.yul\":13635:13636   */\n      0x01\n        /* \"#utility.yul\":13631:13632   */\n      0x02\n        /* \"#utility.yul\":13623:13629   */\n      dup9\n        /* \"#utility.yul\":13619:13633   */\n      mul\n        /* \"#utility.yul\":13615:13637   */\n      add\n        /* \"#utility.yul\":13609:13613   */\n      dup9\n        /* \"#utility.yul\":13602:13638   */\n      sstore\n        /* \"#utility.yul\":13037:13648   */\n      pop\n      pop\n      pop\n        /* \"#utility.yul\":13000:13887   */\n    tag_296:\n      pop\n        /* \"#utility.yul\":12590:13893   */\n      pop\n      pop\n      pop\n        /* \"#utility.yul\":12498:13893   */\n      pop\n      pop\n      jump\t// out\n        /* \"#utility.yul\":13899:14132   */\n    tag_80:\n        /* \"#utility.yul\":13938:13941   */\n      0x00\n        /* \"#utility.yul\":13961:13985   */\n      tag_307\n        /* \"#utility.yul\":13979:13984   */\n      dup3\n        /* \"#utility.yul\":13961:13985   */\n      tag_94\n      jump\t// in\n    tag_307:\n        /* \"#utility.yul\":13952:13985   */\n      swap2\n      pop\n        /* \"#utility.yul\":14007:14073   */\n      0xffffffffffffffffffffffffffffffffffffffffffffffffffffffffffffffff\n        /* \"#utility.yul\":14000:14005   */\n      dup3\n        /* \"#utility.yul\":13997:14074   */\n      sub\n        /* \"#utility.yul\":13994:14097   */\n      tag_308\n      jumpi\n        /* \"#utility.yul\":14077:14095   */\n      tag_309\n      tag_124\n      jump\t// in\n    tag_309:\n        /* \"#utility.yul\":13994:14097   */\n    tag_308:\n        /* \"#utility.yul\":14124:14125   */\n      0x01\n        /* \"#utility.yul\":14117:14122   */\n      dup3\n        /* \"#utility.yul\":14113:14126   */\n      add\n        /* \"#utility.yul\":14106:14126   */\n      swap1\n      pop\n        /* \"#utility.yul\":13899:14132   */\n      swap2\n      swap1\n      pop\n      jump\t// out\n\n    auxdata: 0xa2646970667358221220a800ad465f90396e3d16901d9094f711ea3c40c941710a044f05f5b660549c8a64736f6c63430008110033\n}\n","bytecode":{"linkReferences":{},"object":"60806040523480156200001157600080fd5b506040516200115e3803806200115e83398181016040528101906200003791906200012b565b806000806101000a81548173ffffffffffffffffffffffffffffffffffffffff021916908373ffffffffffffffffffffffffffffffffffffffff16021790555081600181905550505062000172565b600080fd5b6000819050919050565b620000a0816200008b565b8114620000ac57600080fd5b50565b600081519050620000c08162000095565b92915050565b600073ffffffffffffffffffffffffffffffffffffffff82169050919050565b6000620000f382620000c6565b9050919050565b6200010581620000e6565b81146200011157600080fd5b50565b6000815190506200012581620000fa565b92915050565b6000806040838503121562000145576200014462000086565b5b60006200015585828601620000af565b9250506020620001688582860162000114565b9150509250929050565b610fdc80620001826000396000f3fe60806040526004361061007b5760003560e01c80638a9cfd551161004e5780638a9cfd5514610152578063937e09b11461017b578063d7bb99ba146101a6578063d7d1bbdb146101b05761007b565b806303441006146100805780630a144391146100a9578063481c6a75146100e657806381d12c5814610111575b600080fd5b34801561008c57600080fd5b506100a760048036038101906100a291906107a5565b6101d9565b005b3480156100b557600080fd5b506100d060048036038101906100cb9190610830565b610321565b6040516100dd9190610878565b60405180910390f35b3480156100f257600080fd5b506100fb610341565b60405161010891906108a2565b60405180910390f35b34801561011d57600080fd5b50610138600480360381019061013391906107a5565b610365565b60405161014995949392919061097d565b60405180910390f35b34801561015e57600080fd5b5061017960048036038101906101749190610b38565b610460565b005b34801561018757600080fd5b50610190610567565b60405161019d9190610ba7565b60405180910390f35b6101ae61056d565b005b3480156101bc57600080fd5b506101d760048036038101906101d291906107a5565b6105ed565b005b60008054906101000a900473ffffffffffffffffffffffffffffffffffffffff1673ffffffffffffffffffffffffffffffffffffffff163373ffffffffffffffffffffffffffffffffffffffff161461023157600080fd5b60006002828154811061024757610246610bc2565b5b9060005260206000209060060201905060026004546102669190610c4f565b81600301541161027557600080fd5b8060050160009054906101000a900460ff161561029157600080fd5b8060020160009054906101000a900473ffffffffffffffffffffffffffffffffffffffff1673ffffffffffffffffffffffffffffffffffffffff166108fc82600101549081150290604051600060405180830381858888f193505050501580156102ff573d6000803e3d6000fd5b5060018160050160006101000a81548160ff0219169083151502179055505050565b60036020528060005260406000206000915054906101000a900460ff1681565b60008054906101000a900473ffffffffffffffffffffffffffffffffffffffff1681565b6002818154811061037557600080fd5b906000526020600020906006020160009150905080600001805461039890610caf565b80601f01602080910402602001604051908101604052809291908181526020018280546103c490610caf565b80156104115780601f106103e657610100808354040283529160200191610411565b820191906000526020600020905b8154815290600101906020018083116103f457829003601f168201915b5050505050908060010154908060020160009054906101000a900473ffffffffffffffffffffffffffffffffffffffff16908060030154908060050160009054906101000a900460ff16905085565b60008054906101000a900473ffffffffffffffffffffffffffffffffffffffff1673ffffffffffffffffffffffffffffffffffffffff163373ffffffffffffffffffffffffffffffffffffffff16146104b857600080fd5b600060026001816001815401808255809150500390600052602060002090600602019050838160000190816104ed9190610e8c565b50828160010181905550818160020160006101000a81548173ffffffffffffffffffffffffffffffffffffffff021916908373ffffffffffffffffffffffffffffffffffffffff16021790555060008160050160006101000a81548160ff0219169083151502179055506000816003018190555050505050565b60015481565b600154341161057b57600080fd5b6001600360003373ffffffffffffffffffffffffffffffffffffffff1673ffffffffffffffffffffffffffffffffffffffff16815260200190815260200160002060006101000a81548160ff021916908315150217905550600460008154809291906105e690610f5e565b9190505550565b60006002828154811061060357610602610bc2565b5b90600052602060002090600602019050600360003373ffffffffffffffffffffffffffffffffffffffff1673ffffffffffffffffffffffffffffffffffffffff16815260200190815260200160002060009054906101000a900460ff1661066957600080fd5b6002828154811061067d5761067c610bc2565b5b906000526020600020906006020160040160003373ffffffffffffffffffffffffffffffffffffffff1673ffffffffffffffffffffffffffffffffffffffff16815260200190815260200160002060009054906101000a900460ff16156106e357600080fd5b60018160040160003373ffffffffffffffffffffffffffffffffffffffff1673ffffffffffffffffffffffffffffffffffffffff16815260200190815260200160002060006101000a81548160ff02191690831515021790555080600301600081548092919061075290610f5e565b91905055505050565b6000604051905090565b600080fd5b600080fd5b6000819050919050565b6107828161076f565b811461078d57600080fd5b50565b60008135905061079f81610779565b92915050565b6000602082840312156107bb576107ba610765565b5b60006107c984828501610790565b91505092915050565b600073ffffffffffffffffffffffffffffffffffffffff82169050919050565b60006107fd826107d2565b9050919050565b61080d816107f2565b811461081857600080fd5b50565b60008135905061082a81610804565b92915050565b60006020828403121561084657610845610765565b5b60006108548482850161081b565b91505092915050565b60008115159050919050565b6108728161085d565b82525050565b600060208201905061088d6000830184610869565b92915050565b61089c816107f2565b82525050565b60006020820190506108b76000830184610893565b92915050565b600081519050919050565b600082825260208201905092915050565b60005b838110156108f75780820151818401526020810190506108dc565b60008484015250505050565b6000601f19601f8301169050919050565b600061091f826108bd565b61092981856108c8565b93506109398185602086016108d9565b61094281610903565b840191505092915050565b6109568161076f565b82525050565b6000610967826107d2565b9050919050565b6109778161095c565b82525050565b600060a08201905081810360008301526109978188610914565b90506109a6602083018761094d565b6109b3604083018661096e565b6109c0606083018561094d565b6109cd6080830184610869565b9695505050505050565b600080fd5b600080fd5b7f4e487b7100000000000000000000000000000000000000000000000000000000600052604160045260246000fd5b610a1982610903565b810181811067ffffffffffffffff82111715610a3857610a376109e1565b5b80604052505050565b6000610a4b61075b565b9050610a578282610a10565b919050565b600067ffffffffffffffff821115610a7757610a766109e1565b5b610a8082610903565b9050602081019050919050565b82818337600083830152505050565b6000610aaf610aaa84610a5c565b610a41565b905082815260208101848484011115610acb57610aca6109dc565b5b610ad6848285610a8d565b509392505050565b600082601f830112610af357610af26109d7565b5b8135610b03848260208601610a9c565b91505092915050565b610b158161095c565b8114610b2057600080fd5b50565b600081359050610b3281610b0c565b92915050565b600080600060608486031215610b5157610b50610765565b5b600084013567ffffffffffffffff811115610b6f57610b6e61076a565b5b610b7b86828701610ade565b9350506020610b8c86828701610790565b9250506040610b9d86828701610b23565b9150509250925092565b6000602082019050610bbc600083018461094d565b92915050565b7f4e487b7100000000000000000000000000000000000000000000000000000000600052603260045260246000fd5b7f4e487b7100000000000000000000000000000000000000000000000000000000600052601260045260246000fd5b7f4e487b7100000000000000000000000000000000000000000000000000000000600052601160045260246000fd5b6000610c5a8261076f565b9150610c658361076f565b925082610c7557610c74610bf1565b5b828204905092915050565b7f4e487b7100000000000000000000000000000000000000000000000000000000600052602260045260246000fd5b60006002820490506001821680610cc757607f821691505b602082108103610cda57610cd9610c80565b5b50919050565b60008190508160005260206000209050919050565b60006020601f8301049050919050565b600082821b905092915050565b600060088302610d427fffffffffffffffffffffffffffffffffffffffffffffffffffffffffffffffff82610d05565b610d4c8683610d05565b95508019841693508086168417925050509392505050565b6000819050919050565b6000610d89610d84610d7f8461076f565b610d64565b61076f565b9050919050565b6000819050919050565b610da383610d6e565b610db7610daf82610d90565b848454610d12565b825550505050565b600090565b610dcc610dbf565b610dd7818484610d9a565b505050565b5b81811015610dfb57610df0600082610dc4565b600181019050610ddd565b5050565b601f821115610e4057610e1181610ce0565b610e1a84610cf5565b81016020851015610e29578190505b610e3d610e3585610cf5565b830182610ddc565b50505b505050565b600082821c905092915050565b6000610e6360001984600802610e45565b1980831691505092915050565b6000610e7c8383610e52565b9150826002028217905092915050565b610e95826108bd565b67ffffffffffffffff811115610eae57610ead6109e1565b5b610eb88254610caf565b610ec3828285610dff565b600060209050601f831160018114610ef65760008415610ee4578287015190505b610eee8582610e70565b865550610f56565b601f198416610f0486610ce0565b60005b82811015610f2c57848901518255600182019150602085019450602081019050610f07565b86831015610f495784890151610f45601f891682610e52565b8355505b6001600288020188555050505b505050505050565b6000610f698261076f565b91507fffffffffffffffffffffffffffffffffffffffffffffffffffffffffffffffff8203610f9b57610f9a610c20565b5b60018201905091905056fea2646970667358221220a800ad465f90396e3d16901d9094f711ea3c40c941710a044f05f5b660549c8a64736f6c63430008110033","opcodes":"PUSH1 0x80 PUSH1 0x40 MSTORE CALLVALUE DUP1 ISZERO PUSH3 0x11 JUMPI PUSH1 0x0 DUP1 REVERT JUMPDEST POP PUSH1 0x40 MLOAD PUSH3 0x115E CODESIZE SUB DUP1 PUSH3 0x115E DUP4 CODECOPY DUP2 DUP2 ADD PUSH1 0x40 MSTORE DUP2 ADD SWAP1 PUSH3 0x37 SWAP2 SWAP1 PUSH3 0x12B JUMP JUMPDEST DUP1 PUSH1 0x0 DUP1 PUSH2 0x100 EXP DUP2 SLOAD DUP2 PUSH20 0xFFFFFFFFFFFFFFFFFFFFFFFFFFFFFFFFFFFFFFFF MUL NOT AND SWAP1 DUP4 PUSH20 0xFFFFFFFFFFFFFFFFFFFFFFFFFFFFFFFFFFFFFFFF AND MUL OR SWAP1 SSTORE POP DUP2 PUSH1 0x1 DUP2 SWAP1 SSTORE POP POP POP PUSH3 0x172 JUMP JUMPDEST PUSH1 0x0 DUP1 REVERT JUMPDEST PUSH1 0x0 DUP2 SWAP1 POP SWAP2 SWAP1 POP JUMP JUMPDEST PUSH3 0xA0 DUP2 PUSH3 0x8B JUMP JUMPDEST DUP2 EQ PUSH3 0xAC JUMPI PUSH1 0x0 DUP1 REVERT JUMPDEST POP JUMP JUMPDEST PUSH1 0x0 DUP2 MLOAD SWAP1 POP PUSH3 0xC0 DUP2 PUSH3 0x95 JUMP JUMPDEST SWAP3 SWAP2 POP POP JUMP JUMPDEST PUSH1 0x0 PUSH20 0xFFFFFFFFFFFFFFFFFFFFFFFFFFFFFFFFFFFFFFFF DUP3 AND SWAP1 POP SWAP2 SWAP1 POP JUMP JUMPDEST PUSH1 0x0 PUSH3 0xF3 DUP3 PUSH3 0xC6 JUMP JUMPDEST SWAP1 POP SWAP2 SWAP1 POP JUMP JUMPDEST PUSH3 0x105 DUP2 PUSH3 0xE6 JUMP JUMPDEST DUP2 EQ PUSH3 0x111 JUMPI PUSH1 0x0 DUP1 REVERT JUMPDEST POP JUMP JUMPDEST PUSH1 0x0 DUP2 MLOAD SWAP1 POP PUSH3 0x125 DUP2 PUSH3 0xFA JUMP JUMPDEST SWAP3 SWAP2 POP POP JUMP JUMPDEST PUSH1 0x0 DUP1 PUSH1 0x40 DUP4 DUP6 SUB SLT ISZERO PUSH3 0x145 JUMPI PUSH3 0x144 PUSH3 0x86 JUMP JUMPDEST JUMPDEST PUSH1 0x0 PUSH3 0x155 DUP6 DUP3 DUP7 ADD PUSH3 0xAF JUMP JUMPDEST SWAP3 POP POP PUSH1 0x20 PUSH3 0x168 DUP6 DUP3 DUP7 ADD PUSH3 0x114 JUMP JUMPDEST SWAP2 POP POP SWAP3 POP SWAP3 SWAP1 POP JUMP JUMPDEST PUSH2 0xFDC DUP1 PUSH3 0x182 PUSH1 0x0 CODECOPY PUSH1 0x0 RETURN INVALID PUSH1 0x80 PUSH1 0x40 MSTORE PUSH1 0x4 CALLDATASIZE LT PUSH2 0x7B JUMPI PUSH1 0x0 CALLDATALOAD PUSH1 0xE0 SHR DUP1 PUSH4 0x8A9CFD55 GT PUSH2 0x4E JUMPI DUP1 PUSH4 0x8A9CFD55 EQ PUSH2 0x152 JUMPI DUP1 PUSH4 0x937E09B1 EQ PUSH2 0x17B JUMPI DUP1 PUSH4 0xD7BB99BA EQ PUSH2 0x1A6 JUMPI DUP1 PUSH4 0xD7D1BBDB EQ PUSH2 0x1B0 JUMPI PUSH2 0x7B JUMP JUMPDEST DUP1 PUSH4 0x3441006 EQ PUSH2 0x80 JUMPI DUP1 PUSH4 0xA144391 EQ PUSH2 0xA9 JUMPI DUP1 PUSH4 0x481C6A75 EQ PUSH2 0xE6 JUMPI DUP1 PUSH4 0x81D12C58 EQ PUSH2 0x111 JUMPI JUMPDEST PUSH1 0x0 DUP1 REVERT JUMPDEST CALLVALUE DUP1 ISZERO PUSH2 0x8C JUMPI PUSH1 0x0 DUP1 REVERT JUMPDEST POP PUSH2 0xA7 PUSH1 0x4 DUP1 CALLDATASIZE SUB DUP2 ADD SWAP1 PUSH2 0xA2 SWAP2 SWAP1 PUSH2 0x7A5 JUMP JUMPDEST PUSH2 0x1D9 JUMP JUMPDEST STOP JUMPDEST CALLVALUE DUP1 ISZERO PUSH2 0xB5 JUMPI PUSH1 0x0 DUP1 REVERT JUMPDEST POP PUSH2 0xD0 PUSH1 0x4 DUP1 CALLDATASIZE SUB DUP2 ADD SWAP1 PUSH2 0xCB SWAP2 SWAP1 PUSH2 0x830 JUMP JUMPDEST PUSH2 0x321 JUMP JUMPDEST PUSH1 0x40 MLOAD PUSH2 0xDD SWAP2 SWAP1 PUSH2 0x878 JUMP JUMPDEST PUSH1 0x40 MLOAD DUP1 SWAP2 SUB SWAP1 RETURN JUMPDEST CALLVALUE DUP1 ISZERO PUSH2 0xF2 JUMPI PUSH1 0x0 DUP1 REVERT JUMPDEST POP PUSH2 0xFB PUSH2 0x341 JUMP JUMPDEST PUSH1 0x40 MLOAD PUSH2 0x108 SWAP2 SWAP1 PUSH2 0x8A2 JUMP JUMPDEST PUSH1 0x40 MLOAD DUP1 SWAP2 SUB SWAP1 RETURN JUMPDEST CALLVALUE DUP1 ISZERO PUSH2 0x11D JUMPI PUSH1 0x0 DUP1 REVERT JUMPDEST POP PUSH2 0x138 PUSH1 0x4 DUP1 CALLDATASIZE SUB DUP2 ADD SWAP1 PUSH2 0x133 SWAP2 SWAP1 PUSH2 0x7A5 JUMP JUMPDEST PUSH2 0x365 JUMP JUMPDEST PUSH1 0x40 MLOAD PUSH2 0x149 SWAP6 SWAP5 SWAP4 SWAP3 SWAP2 SWAP1 PUSH2 0x97D JUMP JUMPDEST PUSH1 0x40 MLOAD DUP1 SWAP2 SUB SWAP1 RETURN JUMPDEST CALLVALUE DUP1 ISZERO PUSH2 0x15E JUMPI PUSH1 0x0 DUP1 REVERT JUMPDEST POP PUSH2 0x179 PUSH1 0x4 DUP1 CALLDATASIZE SUB DUP2 ADD SWAP1 PUSH2 0x174 SWAP2 SWAP1 PUSH2 0xB38 JUMP JUMPDEST PUSH2 0x460 JUMP JUMPDEST STOP JUMPDEST CALLVALUE DUP1 ISZERO PUSH2 0x187 JUMPI PUSH1 0x0 DUP1 REVERT JUMPDEST POP PUSH2 0x190 PUSH2 0x567 JUMP JUMPDEST PUSH1 0x40 MLOAD PUSH2 0x19D SWAP2 SWAP1 PUSH2 0xBA7 JUMP JUMPDEST PUSH1 0x40 MLOAD DUP1 SWAP2 SUB SWAP1 RETURN JUMPDEST PUSH2 0x1AE PUSH2 0x56D JUMP JUMPDEST STOP JUMPDEST CALLVALUE DUP1 ISZERO PUSH2 0x1BC JUMPI PUSH1 0x0 DUP1 REVERT JUMPDEST POP PUSH2 0x1D7 PUSH1 0x4 DUP1 CALLDATASIZE SUB DUP2 ADD SWAP1 PUSH2 0x1D2 SWAP2 SWAP1 PUSH2 0x7A5 JUMP JUMPDEST PUSH2 0x5ED JUMP JUMPDEST STOP JUMPDEST PUSH1 0x0 DUP1 SLOAD SWAP1 PUSH2 0x100 EXP SWAP1 DIV PUSH20 0xFFFFFFFFFFFFFFFFFFFFFFFFFFFFFFFFFFFFFFFF AND PUSH20 0xFFFFFFFFFFFFFFFFFFFFFFFFFFFFFFFFFFFFFFFF AND CALLER PUSH20 0xFFFFFFFFFFFFFFFFFFFFFFFFFFFFFFFFFFFFFFFF AND EQ PUSH2 0x231 JUMPI PUSH1 0x0 DUP1 REVERT JUMPDEST PUSH1 0x0 PUSH1 0x2 DUP3 DUP2 SLOAD DUP2 LT PUSH2 0x247 JUMPI PUSH2 0x246 PUSH2 0xBC2 JUMP JUMPDEST JUMPDEST SWAP1 PUSH1 0x0 MSTORE PUSH1 0x20 PUSH1 0x0 KECCAK256 SWAP1 PUSH1 0x6 MUL ADD SWAP1 POP PUSH1 0x2 PUSH1 0x4 SLOAD PUSH2 0x266 SWAP2 SWAP1 PUSH2 0xC4F JUMP JUMPDEST DUP2 PUSH1 0x3 ADD SLOAD GT PUSH2 0x275 JUMPI PUSH1 0x0 DUP1 REVERT JUMPDEST DUP1 PUSH1 0x5 ADD PUSH1 0x0 SWAP1 SLOAD SWAP1 PUSH2 0x100 EXP SWAP1 DIV PUSH1 0xFF AND ISZERO PUSH2 0x291 JUMPI PUSH1 0x0 DUP1 REVERT JUMPDEST DUP1 PUSH1 0x2 ADD PUSH1 0x0 SWAP1 SLOAD SWAP1 PUSH2 0x100 EXP SWAP1 DIV PUSH20 0xFFFFFFFFFFFFFFFFFFFFFFFFFFFFFFFFFFFFFFFF AND PUSH20 0xFFFFFFFFFFFFFFFFFFFFFFFFFFFFFFFFFFFFFFFF AND PUSH2 0x8FC DUP3 PUSH1 0x1 ADD SLOAD SWAP1 DUP2 ISZERO MUL SWAP1 PUSH1 0x40 MLOAD PUSH1 0x0 PUSH1 0x40 MLOAD DUP1 DUP4 SUB DUP2 DUP6 DUP9 DUP9 CALL SWAP4 POP POP POP POP ISZERO DUP1 ISZERO PUSH2 0x2FF JUMPI RETURNDATASIZE PUSH1 0x0 DUP1 RETURNDATACOPY RETURNDATASIZE PUSH1 0x0 REVERT JUMPDEST POP PUSH1 0x1 DUP2 PUSH1 0x5 ADD PUSH1 0x0 PUSH2 0x100 EXP DUP2 SLOAD DUP2 PUSH1 0xFF MUL NOT AND SWAP1 DUP4 ISZERO ISZERO MUL OR SWAP1 SSTORE POP POP POP JUMP JUMPDEST PUSH1 0x3 PUSH1 0x20 MSTORE DUP1 PUSH1 0x0 MSTORE PUSH1 0x40 PUSH1 0x0 KECCAK256 PUSH1 0x0 SWAP2 POP SLOAD SWAP1 PUSH2 0x100 EXP SWAP1 DIV PUSH1 0xFF AND DUP2 JUMP JUMPDEST PUSH1 0x0 DUP1 SLOAD SWAP1 PUSH2 0x100 EXP SWAP1 DIV PUSH20 0xFFFFFFFFFFFFFFFFFFFFFFFFFFFFFFFFFFFFFFFF AND DUP2 JUMP JUMPDEST PUSH1 0x2 DUP2 DUP2 SLOAD DUP2 LT PUSH2 0x375 JUMPI PUSH1 0x0 DUP1 REVERT JUMPDEST SWAP1 PUSH1 0x0 MSTORE PUSH1 0x20 PUSH1 0x0 KECCAK256 SWAP1 PUSH1 0x6 MUL ADD PUSH1 0x0 SWAP2 POP SWAP1 POP DUP1 PUSH1 0x0 ADD DUP1 SLOAD PUSH2 0x398 SWAP1 PUSH2 0xCAF JUMP JUMPDEST DUP1 PUSH1 0x1F ADD PUSH1 0x20 DUP1 SWAP2 DIV MUL PUSH1 0x20 ADD PUSH1 0x40 MLOAD SWAP1 DUP2 ADD PUSH1 0x40 MSTORE DUP1 SWAP3 SWAP2 SWAP1 DUP2 DUP2 MSTORE PUSH1 0x20 ADD DUP3 DUP1 SLOAD PUSH2 0x3C4 SWAP1 PUSH2 0xCAF JUMP JUMPDEST DUP1 ISZERO PUSH2 0x411 JUMPI DUP1 PUSH1 0x1F LT PUSH2 0x3E6 JUMPI PUSH2 0x100 DUP1 DUP4 SLOAD DIV MUL DUP4 MSTORE SWAP2 PUSH1 0x20 ADD SWAP2 PUSH2 0x411 JUMP JUMPDEST DUP3 ADD SWAP2 SWAP1 PUSH1 0x0 MSTORE PUSH1 0x20 PUSH1 0x0 KECCAK256 SWAP1 JUMPDEST DUP2 SLOAD DUP2 MSTORE SWAP1 PUSH1 0x1 ADD SWAP1 PUSH1 0x20 ADD DUP1 DUP4 GT PUSH2 0x3F4 JUMPI DUP3 SWAP1 SUB PUSH1 0x1F AND DUP3 ADD SWAP2 JUMPDEST POP POP POP POP POP SWAP1 DUP1 PUSH1 0x1 ADD SLOAD SWAP1 DUP1 PUSH1 0x2 ADD PUSH1 0x0 SWAP1 SLOAD SWAP1 PUSH2 0x100 EXP SWAP1 DIV PUSH20 0xFFFFFFFFFFFFFFFFFFFFFFFFFFFFFFFFFFFFFFFF AND SWAP1 DUP1 PUSH1 0x3 ADD SLOAD SWAP1 DUP1 PUSH1 0x5 ADD PUSH1 0x0 SWAP1 SLOAD SWAP1 PUSH2 0x100 EXP SWAP1 DIV PUSH1 0xFF AND SWAP1 POP DUP6 JUMP JUMPDEST PUSH1 0x0 DUP1 SLOAD SWAP1 PUSH2 0x100 EXP SWAP1 DIV PUSH20 0xFFFFFFFFFFFFFFFFFFFFFFFFFFFFFFFFFFFFFFFF AND PUSH20 0xFFFFFFFFFFFFFFFFFFFFFFFFFFFFFFFFFFFFFFFF AND CALLER PUSH20 0xFFFFFFFFFFFFFFFFFFFFFFFFFFFFFFFFFFFFFFFF AND EQ PUSH2 0x4B8 JUMPI PUSH1 0x0 DUP1 REVERT JUMPDEST PUSH1 0x0 PUSH1 0x2 PUSH1 0x1 DUP2 PUSH1 0x1 DUP2 SLOAD ADD DUP1 DUP3 SSTORE DUP1 SWAP2 POP POP SUB SWAP1 PUSH1 0x0 MSTORE PUSH1 0x20 PUSH1 0x0 KECCAK256 SWAP1 PUSH1 0x6 MUL ADD SWAP1 POP DUP4 DUP2 PUSH1 0x0 ADD SWAP1 DUP2 PUSH2 0x4ED SWAP2 SWAP1 PUSH2 0xE8C JUMP JUMPDEST POP DUP3 DUP2 PUSH1 0x1 ADD DUP2 SWAP1 SSTORE POP DUP2 DUP2 PUSH1 0x2 ADD PUSH1 0x0 PUSH2 0x100 EXP DUP2 SLOAD DUP2 PUSH20 0xFFFFFFFFFFFFFFFFFFFFFFFFFFFFFFFFFFFFFFFF MUL NOT AND SWAP1 DUP4 PUSH20 0xFFFFFFFFFFFFFFFFFFFFFFFFFFFFFFFFFFFFFFFF AND MUL OR SWAP1 SSTORE POP PUSH1 0x0 DUP2 PUSH1 0x5 ADD PUSH1 0x0 PUSH2 0x100 EXP DUP2 SLOAD DUP2 PUSH1 0xFF MUL NOT AND SWAP1 DUP4 ISZERO ISZERO MUL OR SWAP1 SSTORE POP PUSH1 0x0 DUP2 PUSH1 0x3 ADD DUP2 SWAP1 SSTORE POP POP POP POP POP JUMP JUMPDEST PUSH1 0x1 SLOAD DUP2 JUMP JUMPDEST PUSH1 0x1 SLOAD CALLVALUE GT PUSH2 0x57B JUMPI PUSH1 0x0 DUP1 REVERT JUMPDEST PUSH1 0x1 PUSH1 0x3 PUSH1 0x0 CALLER PUSH20 0xFFFFFFFFFFFFFFFFFFFFFFFFFFFFFFFFFFFFFFFF AND PUSH20 0xFFFFFFFFFFFFFFFFFFFFFFFFFFFFFFFFFFFFFFFF AND DUP2 MSTORE PUSH1 0x20 ADD SWAP1 DUP2 MSTORE PUSH1 0x20 ADD PUSH1 0x0 KECCAK256 PUSH1 0x0 PUSH2 0x100 EXP DUP2 SLOAD DUP2 PUSH1 0xFF MUL NOT AND SWAP1 DUP4 ISZERO ISZERO MUL OR SWAP1 SSTORE POP PUSH1 0x4 PUSH1 0x0 DUP2 SLOAD DUP1 SWAP3 SWAP2 SWAP1 PUSH2 0x5E6 SWAP1 PUSH2 0xF5E JUMP JUMPDEST SWAP2 SWAP1 POP SSTORE POP JUMP JUMPDEST PUSH1 0x0 PUSH1 0x2 DUP3 DUP2 SLOAD DUP2 LT PUSH2 0x603 JUMPI PUSH2 0x602 PUSH2 0xBC2 JUMP JUMPDEST JUMPDEST SWAP1 PUSH1 0x0 MSTORE PUSH1 0x20 PUSH1 0x0 KECCAK256 SWAP1 PUSH1 0x6 MUL ADD SWAP1 POP PUSH1 0x3 PUSH1 0x0 CALLER PUSH20 0xFFFFFFFFFFFFFFFFFFFFFFFFFFFFFFFFFFFFFFFF AND PUSH20 0xFFFFFFFFFFFFFFFFFFFFFFFFFFFFFFFFFFFFFFFF AND DUP2 MSTORE PUSH1 0x20 ADD SWAP1 DUP2 MSTORE PUSH1 0x20 ADD PUSH1 0x0 KECCAK256 PUSH1 0x0 SWAP1 SLOAD SWAP1 PUSH2 0x100 EXP SWAP1 DIV PUSH1 0xFF AND PUSH2 0x669 JUMPI PUSH1 0x0 DUP1 REVERT JUMPDEST PUSH1 0x2 DUP3 DUP2 SLOAD DUP2 LT PUSH2 0x67D JUMPI PUSH2 0x67C PUSH2 0xBC2 JUMP JUMPDEST JUMPDEST SWAP1 PUSH1 0x0 MSTORE PUSH1 0x20 PUSH1 0x0 KECCAK256 SWAP1 PUSH1 0x6 MUL ADD PUSH1 0x4 ADD PUSH1 0x0 CALLER PUSH20 0xFFFFFFFFFFFFFFFFFFFFFFFFFFFFFFFFFFFFFFFF AND PUSH20 0xFFFFFFFFFFFFFFFFFFFFFFFFFFFFFFFFFFFFFFFF AND DUP2 MSTORE PUSH1 0x20 ADD SWAP1 DUP2 MSTORE PUSH1 0x20 ADD PUSH1 0x0 KECCAK256 PUSH1 0x0 SWAP1 SLOAD SWAP1 PUSH2 0x100 EXP SWAP1 DIV PUSH1 0xFF AND ISZERO PUSH2 0x6E3 JUMPI PUSH1 0x0 DUP1 REVERT JUMPDEST PUSH1 0x1 DUP2 PUSH1 0x4 ADD PUSH1 0x0 CALLER PUSH20 0xFFFFFFFFFFFFFFFFFFFFFFFFFFFFFFFFFFFFFFFF AND PUSH20 0xFFFFFFFFFFFFFFFFFFFFFFFFFFFFFFFFFFFFFFFF AND DUP2 MSTORE PUSH1 0x20 ADD SWAP1 DUP2 MSTORE PUSH1 0x20 ADD PUSH1 0x0 KECCAK256 PUSH1 0x0 PUSH2 0x100 EXP DUP2 SLOAD DUP2 PUSH1 0xFF MUL NOT AND SWAP1 DUP4 ISZERO ISZERO MUL OR SWAP1 SSTORE POP DUP1 PUSH1 0x3 ADD PUSH1 0x0 DUP2 SLOAD DUP1 SWAP3 SWAP2 SWAP1 PUSH2 0x752 SWAP1 PUSH2 0xF5E JUMP JUMPDEST SWAP2 SWAP1 POP SSTORE POP POP POP JUMP JUMPDEST PUSH1 0x0 PUSH1 0x40 MLOAD SWAP1 POP SWAP1 JUMP JUMPDEST PUSH1 0x0 DUP1 REVERT JUMPDEST PUSH1 0x0 DUP1 REVERT JUMPDEST PUSH1 0x0 DUP2 SWAP1 POP SWAP2 SWAP1 POP JUMP JUMPDEST PUSH2 0x782 DUP2 PUSH2 0x76F JUMP JUMPDEST DUP2 EQ PUSH2 0x78D JUMPI PUSH1 0x0 DUP1 REVERT JUMPDEST POP JUMP JUMPDEST PUSH1 0x0 DUP2 CALLDATALOAD SWAP1 POP PUSH2 0x79F DUP2 PUSH2 0x779 JUMP JUMPDEST SWAP3 SWAP2 POP POP JUMP JUMPDEST PUSH1 0x0 PUSH1 0x20 DUP3 DUP5 SUB SLT ISZERO PUSH2 0x7BB JUMPI PUSH2 0x7BA PUSH2 0x765 JUMP JUMPDEST JUMPDEST PUSH1 0x0 PUSH2 0x7C9 DUP5 DUP3 DUP6 ADD PUSH2 0x790 JUMP JUMPDEST SWAP2 POP POP SWAP3 SWAP2 POP POP JUMP JUMPDEST PUSH1 0x0 PUSH20 0xFFFFFFFFFFFFFFFFFFFFFFFFFFFFFFFFFFFFFFFF DUP3 AND SWAP1 POP SWAP2 SWAP1 POP JUMP JUMPDEST PUSH1 0x0 PUSH2 0x7FD DUP3 PUSH2 0x7D2 JUMP JUMPDEST SWAP1 POP SWAP2 SWAP1 POP JUMP JUMPDEST PUSH2 0x80D DUP2 PUSH2 0x7F2 JUMP JUMPDEST DUP2 EQ PUSH2 0x818 JUMPI PUSH1 0x0 DUP1 REVERT JUMPDEST POP JUMP JUMPDEST PUSH1 0x0 DUP2 CALLDATALOAD SWAP1 POP PUSH2 0x82A DUP2 PUSH2 0x804 JUMP JUMPDEST SWAP3 SWAP2 POP POP JUMP JUMPDEST PUSH1 0x0 PUSH1 0x20 DUP3 DUP5 SUB SLT ISZERO PUSH2 0x846 JUMPI PUSH2 0x845 PUSH2 0x765 JUMP JUMPDEST JUMPDEST PUSH1 0x0 PUSH2 0x854 DUP5 DUP3 DUP6 ADD PUSH2 0x81B JUMP JUMPDEST SWAP2 POP POP SWAP3 SWAP2 POP POP JUMP JUMPDEST PUSH1 0x0 DUP2 ISZERO ISZERO SWAP1 POP SWAP2 SWAP1 POP JUMP JUMPDEST PUSH2 0x872 DUP2 PUSH2 0x85D JUMP JUMPDEST DUP3 MSTORE POP POP JUMP JUMPDEST PUSH1 0x0 PUSH1 0x20 DUP3 ADD SWAP1 POP PUSH2 0x88D PUSH1 0x0 DUP4 ADD DUP5 PUSH2 0x869 JUMP JUMPDEST SWAP3 SWAP2 POP POP JUMP JUMPDEST PUSH2 0x89C DUP2 PUSH2 0x7F2 JUMP JUMPDEST DUP3 MSTORE POP POP JUMP JUMPDEST PUSH1 0x0 PUSH1 0x20 DUP3 ADD SWAP1 POP PUSH2 0x8B7 PUSH1 0x0 DUP4 ADD DUP5 PUSH2 0x893 JUMP JUMPDEST SWAP3 SWAP2 POP POP JUMP JUMPDEST PUSH1 0x0 DUP2 MLOAD SWAP1 POP SWAP2 SWAP1 POP JUMP JUMPDEST PUSH1 0x0 DUP3 DUP3 MSTORE PUSH1 0x20 DUP3 ADD SWAP1 POP SWAP3 SWAP2 POP POP JUMP JUMPDEST PUSH1 0x0 JUMPDEST DUP4 DUP2 LT ISZERO PUSH2 0x8F7 JUMPI DUP1 DUP3 ADD MLOAD DUP2 DUP5 ADD MSTORE PUSH1 0x20 DUP2 ADD SWAP1 POP PUSH2 0x8DC JUMP JUMPDEST PUSH1 0x0 DUP5 DUP5 ADD MSTORE POP POP POP POP JUMP JUMPDEST PUSH1 0x0 PUSH1 0x1F NOT PUSH1 0x1F DUP4 ADD AND SWAP1 POP SWAP2 SWAP1 POP JUMP JUMPDEST PUSH1 0x0 PUSH2 0x91F DUP3 PUSH2 0x8BD JUMP JUMPDEST PUSH2 0x929 DUP2 DUP6 PUSH2 0x8C8 JUMP JUMPDEST SWAP4 POP PUSH2 0x939 DUP2 DUP6 PUSH1 0x20 DUP7 ADD PUSH2 0x8D9 JUMP JUMPDEST PUSH2 0x942 DUP2 PUSH2 0x903 JUMP JUMPDEST DUP5 ADD SWAP2 POP POP SWAP3 SWAP2 POP POP JUMP JUMPDEST PUSH2 0x956 DUP2 PUSH2 0x76F JUMP JUMPDEST DUP3 MSTORE POP POP JUMP JUMPDEST PUSH1 0x0 PUSH2 0x967 DUP3 PUSH2 0x7D2 JUMP JUMPDEST SWAP1 POP SWAP2 SWAP1 POP JUMP JUMPDEST PUSH2 0x977 DUP2 PUSH2 0x95C JUMP JUMPDEST DUP3 MSTORE POP POP JUMP JUMPDEST PUSH1 0x0 PUSH1 0xA0 DUP3 ADD SWAP1 POP DUP2 DUP2 SUB PUSH1 0x0 DUP4 ADD MSTORE PUSH2 0x997 DUP2 DUP9 PUSH2 0x914 JUMP JUMPDEST SWAP1 POP PUSH2 0x9A6 PUSH1 0x20 DUP4 ADD DUP8 PUSH2 0x94D JUMP JUMPDEST PUSH2 0x9B3 PUSH1 0x40 DUP4 ADD DUP7 PUSH2 0x96E JUMP JUMPDEST PUSH2 0x9C0 PUSH1 0x60 DUP4 ADD DUP6 PUSH2 0x94D JUMP JUMPDEST PUSH2 0x9CD PUSH1 0x80 DUP4 ADD DUP5 PUSH2 0x869 JUMP JUMPDEST SWAP7 SWAP6 POP POP POP POP POP POP JUMP JUMPDEST PUSH1 0x0 DUP1 REVERT JUMPDEST PUSH1 0x0 DUP1 REVERT JUMPDEST PUSH32 0x4E487B7100000000000000000000000000000000000000000000000000000000 PUSH1 0x0 MSTORE PUSH1 0x41 PUSH1 0x4 MSTORE PUSH1 0x24 PUSH1 0x0 REVERT JUMPDEST PUSH2 0xA19 DUP3 PUSH2 0x903 JUMP JUMPDEST DUP2 ADD DUP2 DUP2 LT PUSH8 0xFFFFFFFFFFFFFFFF DUP3 GT OR ISZERO PUSH2 0xA38 JUMPI PUSH2 0xA37 PUSH2 0x9E1 JUMP JUMPDEST JUMPDEST DUP1 PUSH1 0x40 MSTORE POP POP POP JUMP JUMPDEST PUSH1 0x0 PUSH2 0xA4B PUSH2 0x75B JUMP JUMPDEST SWAP1 POP PUSH2 0xA57 DUP3 DUP3 PUSH2 0xA10 JUMP JUMPDEST SWAP2 SWAP1 POP JUMP JUMPDEST PUSH1 0x0 PUSH8 0xFFFFFFFFFFFFFFFF DUP3 GT ISZERO PUSH2 0xA77 JUMPI PUSH2 0xA76 PUSH2 0x9E1 JUMP JUMPDEST JUMPDEST PUSH2 0xA80 DUP3 PUSH2 0x903 JUMP JUMPDEST SWAP1 POP PUSH1 0x20 DUP2 ADD SWAP1 POP SWAP2 SWAP1 POP JUMP JUMPDEST DUP3 DUP2 DUP4 CALLDATACOPY PUSH1 0x0 DUP4 DUP4 ADD MSTORE POP POP POP JUMP JUMPDEST PUSH1 0x0 PUSH2 0xAAF PUSH2 0xAAA DUP5 PUSH2 0xA5C JUMP JUMPDEST PUSH2 0xA41 JUMP JUMPDEST SWAP1 POP DUP3 DUP2 MSTORE PUSH1 0x20 DUP2 ADD DUP5 DUP5 DUP5 ADD GT ISZERO PUSH2 0xACB JUMPI PUSH2 0xACA PUSH2 0x9DC JUMP JUMPDEST JUMPDEST PUSH2 0xAD6 DUP5 DUP3 DUP6 PUSH2 0xA8D JUMP JUMPDEST POP SWAP4 SWAP3 POP POP POP JUMP JUMPDEST PUSH1 0x0 DUP3 PUSH1 0x1F DUP4 ADD SLT PUSH2 0xAF3 JUMPI PUSH2 0xAF2 PUSH2 0x9D7 JUMP JUMPDEST JUMPDEST DUP2 CALLDATALOAD PUSH2 0xB03 DUP5 DUP3 PUSH1 0x20 DUP7 ADD PUSH2 0xA9C JUMP JUMPDEST SWAP2 POP POP SWAP3 SWAP2 POP POP JUMP JUMPDEST PUSH2 0xB15 DUP2 PUSH2 0x95C JUMP JUMPDEST DUP2 EQ PUSH2 0xB20 JUMPI PUSH1 0x0 DUP1 REVERT JUMPDEST POP JUMP JUMPDEST PUSH1 0x0 DUP2 CALLDATALOAD SWAP1 POP PUSH2 0xB32 DUP2 PUSH2 0xB0C JUMP JUMPDEST SWAP3 SWAP2 POP POP JUMP JUMPDEST PUSH1 0x0 DUP1 PUSH1 0x0 PUSH1 0x60 DUP5 DUP7 SUB SLT ISZERO PUSH2 0xB51 JUMPI PUSH2 0xB50 PUSH2 0x765 JUMP JUMPDEST JUMPDEST PUSH1 0x0 DUP5 ADD CALLDATALOAD PUSH8 0xFFFFFFFFFFFFFFFF DUP2 GT ISZERO PUSH2 0xB6F JUMPI PUSH2 0xB6E PUSH2 0x76A JUMP JUMPDEST JUMPDEST PUSH2 0xB7B DUP7 DUP3 DUP8 ADD PUSH2 0xADE JUMP JUMPDEST SWAP4 POP POP PUSH1 0x20 PUSH2 0xB8C DUP7 DUP3 DUP8 ADD PUSH2 0x790 JUMP JUMPDEST SWAP3 POP POP PUSH1 0x40 PUSH2 0xB9D DUP7 DUP3 DUP8 ADD PUSH2 0xB23 JUMP JUMPDEST SWAP2 POP POP SWAP3 POP SWAP3 POP SWAP3 JUMP JUMPDEST PUSH1 0x0 PUSH1 0x20 DUP3 ADD SWAP1 POP PUSH2 0xBBC PUSH1 0x0 DUP4 ADD DUP5 PUSH2 0x94D JUMP JUMPDEST SWAP3 SWAP2 POP POP JUMP JUMPDEST PUSH32 0x4E487B7100000000000000000000000000000000000000000000000000000000 PUSH1 0x0 MSTORE PUSH1 0x32 PUSH1 0x4 MSTORE PUSH1 0x24 PUSH1 0x0 REVERT JUMPDEST PUSH32 0x4E487B7100000000000000000000000000000000000000000000000000000000 PUSH1 0x0 MSTORE PUSH1 0x12 PUSH1 0x4 MSTORE PUSH1 0x24 PUSH1 0x0 REVERT JUMPDEST PUSH32 0x4E487B7100000000000000000000000000000000000000000000000000000000 PUSH1 0x0 MSTORE PUSH1 0x11 PUSH1 0x4 MSTORE PUSH1 0x24 PUSH1 0x0 REVERT JUMPDEST PUSH1 0x0 PUSH2 0xC5A DUP3 PUSH2 0x76F JUMP JUMPDEST SWAP2 POP PUSH2 0xC65 DUP4 PUSH2 0x76F JUMP JUMPDEST SWAP3 POP DUP3 PUSH2 0xC75 JUMPI PUSH2 0xC74 PUSH2 0xBF1 JUMP JUMPDEST JUMPDEST DUP3 DUP3 DIV SWAP1 POP SWAP3 SWAP2 POP POP JUMP JUMPDEST PUSH32 0x4E487B7100000000000000000000000000000000000000000000000000000000 PUSH1 0x0 MSTORE PUSH1 0x22 PUSH1 0x4 MSTORE PUSH1 0x24 PUSH1 0x0 REVERT JUMPDEST PUSH1 0x0 PUSH1 0x2 DUP3 DIV SWAP1 POP PUSH1 0x1 DUP3 AND DUP1 PUSH2 0xCC7 JUMPI PUSH1 0x7F DUP3 AND SWAP2 POP JUMPDEST PUSH1 0x20 DUP3 LT DUP2 SUB PUSH2 0xCDA JUMPI PUSH2 0xCD9 PUSH2 0xC80 JUMP JUMPDEST JUMPDEST POP SWAP2 SWAP1 POP JUMP JUMPDEST PUSH1 0x0 DUP2 SWAP1 POP DUP2 PUSH1 0x0 MSTORE PUSH1 0x20 PUSH1 0x0 KECCAK256 SWAP1 POP SWAP2 SWAP1 POP JUMP JUMPDEST PUSH1 0x0 PUSH1 0x20 PUSH1 0x1F DUP4 ADD DIV SWAP1 POP SWAP2 SWAP1 POP JUMP JUMPDEST PUSH1 0x0 DUP3 DUP3 SHL SWAP1 POP SWAP3 SWAP2 POP POP JUMP JUMPDEST PUSH1 0x0 PUSH1 0x8 DUP4 MUL PUSH2 0xD42 PUSH32 0xFFFFFFFFFFFFFFFFFFFFFFFFFFFFFFFFFFFFFFFFFFFFFFFFFFFFFFFFFFFFFFFF DUP3 PUSH2 0xD05 JUMP JUMPDEST PUSH2 0xD4C DUP7 DUP4 PUSH2 0xD05 JUMP JUMPDEST SWAP6 POP DUP1 NOT DUP5 AND SWAP4 POP DUP1 DUP7 AND DUP5 OR SWAP3 POP POP POP SWAP4 SWAP3 POP POP POP JUMP JUMPDEST PUSH1 0x0 DUP2 SWAP1 POP SWAP2 SWAP1 POP JUMP JUMPDEST PUSH1 0x0 PUSH2 0xD89 PUSH2 0xD84 PUSH2 0xD7F DUP5 PUSH2 0x76F JUMP JUMPDEST PUSH2 0xD64 JUMP JUMPDEST PUSH2 0x76F JUMP JUMPDEST SWAP1 POP SWAP2 SWAP1 POP JUMP JUMPDEST PUSH1 0x0 DUP2 SWAP1 POP SWAP2 SWAP1 POP JUMP JUMPDEST PUSH2 0xDA3 DUP4 PUSH2 0xD6E JUMP JUMPDEST PUSH2 0xDB7 PUSH2 0xDAF DUP3 PUSH2 0xD90 JUMP JUMPDEST DUP5 DUP5 SLOAD PUSH2 0xD12 JUMP JUMPDEST DUP3 SSTORE POP POP POP POP JUMP JUMPDEST PUSH1 0x0 SWAP1 JUMP JUMPDEST PUSH2 0xDCC PUSH2 0xDBF JUMP JUMPDEST PUSH2 0xDD7 DUP2 DUP5 DUP5 PUSH2 0xD9A JUMP JUMPDEST POP POP POP JUMP JUMPDEST JUMPDEST DUP2 DUP2 LT ISZERO PUSH2 0xDFB JUMPI PUSH2 0xDF0 PUSH1 0x0 DUP3 PUSH2 0xDC4 JUMP JUMPDEST PUSH1 0x1 DUP2 ADD SWAP1 POP PUSH2 0xDDD JUMP JUMPDEST POP POP JUMP JUMPDEST PUSH1 0x1F DUP3 GT ISZERO PUSH2 0xE40 JUMPI PUSH2 0xE11 DUP2 PUSH2 0xCE0 JUMP JUMPDEST PUSH2 0xE1A DUP5 PUSH2 0xCF5 JUMP JUMPDEST DUP2 ADD PUSH1 0x20 DUP6 LT ISZERO PUSH2 0xE29 JUMPI DUP2 SWAP1 POP JUMPDEST PUSH2 0xE3D PUSH2 0xE35 DUP6 PUSH2 0xCF5 JUMP JUMPDEST DUP4 ADD DUP3 PUSH2 0xDDC JUMP JUMPDEST POP POP JUMPDEST POP POP POP JUMP JUMPDEST PUSH1 0x0 DUP3 DUP3 SHR SWAP1 POP SWAP3 SWAP2 POP POP JUMP JUMPDEST PUSH1 0x0 PUSH2 0xE63 PUSH1 0x0 NOT DUP5 PUSH1 0x8 MUL PUSH2 0xE45 JUMP JUMPDEST NOT DUP1 DUP4 AND SWAP2 POP POP SWAP3 SWAP2 POP POP JUMP JUMPDEST PUSH1 0x0 PUSH2 0xE7C DUP4 DUP4 PUSH2 0xE52 JUMP JUMPDEST SWAP2 POP DUP3 PUSH1 0x2 MUL DUP3 OR SWAP1 POP SWAP3 SWAP2 POP POP JUMP JUMPDEST PUSH2 0xE95 DUP3 PUSH2 0x8BD JUMP JUMPDEST PUSH8 0xFFFFFFFFFFFFFFFF DUP2 GT ISZERO PUSH2 0xEAE JUMPI PUSH2 0xEAD PUSH2 0x9E1 JUMP JUMPDEST JUMPDEST PUSH2 0xEB8 DUP3 SLOAD PUSH2 0xCAF JUMP JUMPDEST PUSH2 0xEC3 DUP3 DUP3 DUP6 PUSH2 0xDFF JUMP JUMPDEST PUSH1 0x0 PUSH1 0x20 SWAP1 POP PUSH1 0x1F DUP4 GT PUSH1 0x1 DUP2 EQ PUSH2 0xEF6 JUMPI PUSH1 0x0 DUP5 ISZERO PUSH2 0xEE4 JUMPI DUP3 DUP8 ADD MLOAD SWAP1 POP JUMPDEST PUSH2 0xEEE DUP6 DUP3 PUSH2 0xE70 JUMP JUMPDEST DUP7 SSTORE POP PUSH2 0xF56 JUMP JUMPDEST PUSH1 0x1F NOT DUP5 AND PUSH2 0xF04 DUP7 PUSH2 0xCE0 JUMP JUMPDEST PUSH1 0x0 JUMPDEST DUP3 DUP2 LT ISZERO PUSH2 0xF2C JUMPI DUP5 DUP10 ADD MLOAD DUP3 SSTORE PUSH1 0x1 DUP3 ADD SWAP2 POP PUSH1 0x20 DUP6 ADD SWAP5 POP PUSH1 0x20 DUP2 ADD SWAP1 POP PUSH2 0xF07 JUMP JUMPDEST DUP7 DUP4 LT ISZERO PUSH2 0xF49 JUMPI DUP5 DUP10 ADD MLOAD PUSH2 0xF45 PUSH1 0x1F DUP10 AND DUP3 PUSH2 0xE52 JUMP JUMPDEST DUP4 SSTORE POP JUMPDEST PUSH1 0x1 PUSH1 0x2 DUP9 MUL ADD DUP9 SSTORE POP POP POP JUMPDEST POP POP POP POP POP POP JUMP JUMPDEST PUSH1 0x0 PUSH2 0xF69 DUP3 PUSH2 0x76F JUMP JUMPDEST SWAP2 POP PUSH32 0xFFFFFFFFFFFFFFFFFFFFFFFFFFFFFFFFFFFFFFFFFFFFFFFFFFFFFFFFFFFFFFFF DUP3 SUB PUSH2 0xF9B JUMPI PUSH2 0xF9A PUSH2 0xC20 JUMP JUMPDEST JUMPDEST PUSH1 0x1 DUP3 ADD SWAP1 POP SWAP2 SWAP1 POP JUMP INVALID LOG2 PUSH5 0x6970667358 0x22 SLT KECCAK256 0xA8 STOP 0xAD CHAINID 0x5F SWAP1 CODECOPY PUSH15 0x3D16901D9094F711EA3C40C941710A DIV 0x4F SDIV CREATE2 0xB6 PUSH1 0x54 SWAP13 DUP11 PUSH5 0x736F6C6343 STOP ADDMOD GT STOP CALLER "},"gasEstimates":{"creation":{"codeDepositCost":"812000","executionCost":"infinite","totalCost":"infinite"},"external":{"approveRequest(uint256)":"infinite","approvers(address)":"2868","contribute()":"50999","createRequest(string,uint256,address)":"infinite","finalizeRequest(uint256)":"infinite","manager()":"2556","minimumContribution()":"2451","requests(uint256)":"infinite"}},"methodIdentifiers":{"approveRequest(uint256)":"d7d1bbdb","approvers(address)":"0a144391","contribute()":"d7bb99ba","createRequest(string,uint256,address)":"8a9cfd55","finalizeRequest(uint256)":"03441006","manager()":"481c6a75","minimumContribution()":"937e09b1","requests(uint256)":"81d12c58"}},"storageLayout":{"storage":[{"astId":56,"contract":"Campaign.sol:Campaign","label":"manager","offset":0,"slot":"0","type":"t_address"},{"astId":58,"contract":"Campaign.sol:Campaign","label":"minimumContribution","offset":0,"slot":"1","type":"t_uint256"},{"astId":62,"contract":"Campaign.sol:Campaign","label":"requests","offset":0,"slot":"2","type":"t_array(t_struct(Request)54_storage)dyn_storage"},{"astId":66,"contract":"Campaign.sol:Campaign","label":"approvers","offset":0,"slot":"3","type":"t_mapping(t_address,t_bool)"},{"astId":68,"contract":"Campaign.sol:Campaign","label":"approversCount","offset":0,"slot":"4","type":"t_uint256"}],"types":{"t_address":{"encoding":"inplace","label":"address","numberOfBytes":"20"},"t_address_payable":{"encoding":"inplace","label":"address payable","numberOfBytes":"20"},"t_array(t_struct(Request)54_storage)dyn_storage":{"base":"t_struct(Request)54_storage","encoding":"dynamic_array","label":"struct Campaign.Request[]","numberOfBytes":"32"},"t_bool":{"encoding":"inplace","label":"bool","numberOfBytes":"1"},"t_mapping(t_address,t_bool)":{"encoding":"mapping","key":"t_address","label":"mapping(address => bool)","numberOfBytes":"32","value":"t_bool"},"t_string_storage":{"encoding":"bytes","label":"string","numberOfBytes":"32"},"t_struct(Request)54_storage":{"encoding":"inplace","label":"struct Campaign.Request","members":[{"astId":41,"contract":"Campaign.sol:Campaign","label":"description","offset":0,"slot":"0","type":"t_string_storage"},{"astId":43,"contract":"Campaign.sol:Campaign","label":"value","offset":0,"slot":"1","type":"t_uint256"},{"astId":45,"contract":"Campaign.sol:Campaign","label":"recipient","offset":0,"slot":"2","type":"t_address_payable"},{"astId":47,"contract":"Campaign.sol:Campaign","label":"approvalCount","offset":0,"slot":"3","type":"t_uint256"},{"astId":51,"contract":"Campaign.sol:Campaign","label":"approvals","offset":0,"slot":"4","type":"t_mapping(t_address,t_bool)"},{"astId":53,"contract":"Campaign.sol:Campaign","label":"complete","offset":0,"slot":"5","type":"t_bool"}],"numberOfBytes":"192"},"t_uint256":{"encoding":"inplace","label":"uint256","numberOfBytes":"32"}}},"userdoc":{"kind":"user","methods":{},"version":1}}